{
  "contractName": "AuctionHouse",
  "abi": [
    {
      "anonymous": false,
      "inputs": [
        {
          "indexed": true,
          "internalType": "address",
          "name": "owner",
          "type": "address"
        },
        {
          "indexed": false,
          "internalType": "uint256",
          "name": "idx",
          "type": "uint256"
        },
        {
          "indexed": false,
          "internalType": "uint256",
          "name": "identifier",
          "type": "uint256"
        },
        {
          "indexed": false,
          "internalType": "bool",
          "name": "sealed_auction",
          "type": "bool"
        }
      ],
      "name": "AuctionDeployed",
      "type": "event"
    },
    {
      "anonymous": false,
      "inputs": [
        {
          "indexed": true,
          "internalType": "address",
          "name": "sender",
          "type": "address"
        },
        {
          "indexed": false,
          "internalType": "uint256",
          "name": "value",
          "type": "uint256"
        },
        {
          "indexed": false,
          "internalType": "uint256",
          "name": "idx",
          "type": "uint256"
        }
      ],
      "name": "DepositEvent",
      "type": "event"
    },
    {
      "anonymous": false,
      "inputs": [
        {
          "indexed": true,
          "internalType": "address",
          "name": "sender",
          "type": "address"
        },
        {
          "indexed": false,
          "internalType": "uint256",
          "name": "value",
          "type": "uint256"
        },
        {
          "indexed": false,
          "internalType": "uint256",
          "name": "idx",
          "type": "uint256"
        }
      ],
      "name": "OpenBidEvent",
      "type": "event"
    },
    {
      "anonymous": false,
      "inputs": [
        {
          "indexed": true,
          "internalType": "address",
          "name": "sender",
          "type": "address"
        },
        {
          "indexed": false,
          "internalType": "uint256",
          "name": "idx",
          "type": "uint256"
        }
      ],
      "name": "SealedBidEvent",
      "type": "event"
    },
    {
      "inputs": [
        {
          "internalType": "uint256",
          "name": "nonce",
          "type": "uint256"
        },
        {
          "internalType": "uint256",
          "name": "number",
          "type": "uint256"
        }
      ],
      "name": "hashSeriesNumber",
      "outputs": [
        {
          "internalType": "uint256",
          "name": "",
          "type": "uint256"
        }
      ],
      "stateMutability": "pure",
      "type": "function"
    },
    {
      "inputs": [
        {
          "internalType": "uint256",
          "name": "idx",
          "type": "uint256"
        }
      ],
      "name": "get_owner",
      "outputs": [
        {
          "internalType": "address",
          "name": "",
          "type": "address"
        }
      ],
      "stateMutability": "view",
      "type": "function"
    },
    {
      "inputs": [
        {
          "internalType": "address",
          "name": "addr",
          "type": "address"
        },
        {
          "internalType": "uint256",
          "name": "idx",
          "type": "uint256"
        }
      ],
      "name": "is_owner",
      "outputs": [
        {
          "internalType": "bool",
          "name": "",
          "type": "bool"
        }
      ],
      "stateMutability": "view",
      "type": "function"
    },
    {
      "inputs": [
        {
          "internalType": "uint256",
          "name": "idx",
          "type": "uint256"
        }
      ],
      "name": "is_sealed",
      "outputs": [
        {
          "internalType": "bool",
          "name": "",
          "type": "bool"
        }
      ],
      "stateMutability": "view",
      "type": "function"
    },
    {
      "inputs": [
        {
          "internalType": "uint256",
          "name": "identifier",
          "type": "uint256"
        }
      ],
      "name": "get_idx_from_identifier",
      "outputs": [
        {
          "internalType": "uint256",
          "name": "",
          "type": "uint256"
        }
      ],
      "stateMutability": "view",
      "type": "function"
    },
    {
      "inputs": [
        {
          "internalType": "uint256",
          "name": "identifier",
          "type": "uint256"
        }
      ],
      "name": "identifier_is_unused",
      "outputs": [
        {
          "internalType": "bool",
          "name": "",
          "type": "bool"
        }
      ],
      "stateMutability": "view",
      "type": "function"
    },
    {
      "inputs": [],
      "name": "get_number_of_auctions",
      "outputs": [
        {
          "internalType": "uint256",
          "name": "",
          "type": "uint256"
        }
      ],
      "stateMutability": "view",
      "type": "function"
    },
    {
      "inputs": [
        {
          "internalType": "uint256",
          "name": "identifier",
          "type": "uint256"
        },
        {
          "internalType": "bool",
          "name": "type_sealed",
          "type": "bool"
        }
      ],
      "name": "deploy_auction",
      "outputs": [],
      "stateMutability": "payable",
      "type": "function"
    },
    {
      "inputs": [
        {
          "internalType": "uint256",
          "name": "idx",
          "type": "uint256"
        }
      ],
      "name": "start_auction",
      "outputs": [],
      "stateMutability": "payable",
      "type": "function"
    },
    {
      "inputs": [
        {
          "internalType": "uint256",
          "name": "idx",
          "type": "uint256"
        }
      ],
      "name": "deposit_money",
      "outputs": [
        {
          "internalType": "uint256",
          "name": "",
          "type": "uint256"
        }
      ],
      "stateMutability": "payable",
      "type": "function"
    },
    {
      "inputs": [
        {
          "internalType": "uint256",
          "name": "idx",
          "type": "uint256"
        }
      ],
      "name": "get_deposit_balance",
      "outputs": [
        {
          "internalType": "uint256",
          "name": "",
          "type": "uint256"
        }
      ],
      "stateMutability": "view",
      "type": "function"
    },
    {
      "inputs": [
        {
          "internalType": "uint256",
          "name": "idx",
          "type": "uint256"
        },
        {
          "internalType": "uint256",
          "name": "bid_value",
          "type": "uint256"
        }
      ],
      "name": "set_bid",
      "outputs": [],
      "stateMutability": "nonpayable",
      "type": "function"
    },
    {
      "inputs": [
        {
          "internalType": "uint256",
          "name": "idx",
          "type": "uint256"
        }
      ],
      "name": "get_bid",
      "outputs": [
        {
          "internalType": "uint256",
          "name": "",
          "type": "uint256"
        }
      ],
      "stateMutability": "view",
      "type": "function"
    },
    {
      "inputs": [
        {
          "internalType": "uint256",
          "name": "idx",
          "type": "uint256"
        }
      ],
      "name": "get_highest_bid",
      "outputs": [
        {
          "internalType": "uint256",
          "name": "",
          "type": "uint256"
        }
      ],
      "stateMutability": "view",
      "type": "function"
    },
    {
      "inputs": [
        {
          "internalType": "uint256",
          "name": "idx",
          "type": "uint256"
        }
      ],
      "name": "get_endtime",
      "outputs": [
        {
          "internalType": "uint256",
          "name": "",
          "type": "uint256"
        }
      ],
      "stateMutability": "view",
      "type": "function"
    },
    {
      "inputs": [],
      "name": "create_timestamp",
      "outputs": [
        {
          "internalType": "uint256",
          "name": "",
          "type": "uint256"
        }
      ],
      "stateMutability": "view",
      "type": "function"
    },
    {
      "inputs": [
        {
          "internalType": "uint256",
          "name": "idx",
          "type": "uint256"
        }
      ],
      "name": "kill",
      "outputs": [],
      "stateMutability": "nonpayable",
      "type": "function"
    },
    {
      "inputs": [
        {
          "internalType": "uint256",
          "name": "idx",
          "type": "uint256"
        }
      ],
      "name": "get_winner",
      "outputs": [
        {
          "internalType": "address",
          "name": "",
          "type": "address"
        },
        {
          "internalType": "uint256",
          "name": "",
          "type": "uint256"
        }
      ],
      "stateMutability": "view",
      "type": "function"
    },
    {
      "inputs": [
        {
          "internalType": "uint256",
          "name": "idx",
          "type": "uint256"
        }
      ],
      "name": "refund_deposit",
      "outputs": [],
      "stateMutability": "nonpayable",
      "type": "function"
    }
  ],
  "bytecode": "0x6080604052600860015534801561001557600080fd5b5061240d806100256000396000f3fe6080604052600436106101145760003560e01c806372205875116100a0578063a092c50411610064578063a092c504146103e2578063ce4339b71461041f578063d29a00251461045c578063e9117d8914610485578063f458de9e146104b557610114565b806372205875146102f85780637a2994eb146103355780637a31ee4f1461035e578063841af85914610389578063970e2ba6146103c657610114565b80633ea3ff93116100e75780633ea3ff93146101fa57806344375fc714610225578063468298d414610241578063631603361461027e578063686cfd29146102bb57610114565b8063051a00d3146101195780630802ca28146101565780631c733acf1461017f578063243dc409146101bc575b600080fd5b34801561012557600080fd5b50610140600480360381019061013b9190612098565b6104f2565b60405161014d91906121e6565b60405180910390f35b34801561016257600080fd5b5061017d60048036038101906101789190612139565b6105a6565b005b34801561018b57600080fd5b506101a660048036038101906101a191906120d4565b610a62565b6040516101b39190612201565b60405180910390f35b3480156101c857600080fd5b506101e360048036038101906101de91906120d4565b610d11565b6040516101f19291906121bd565b60405180910390f35b34801561020657600080fd5b5061020f61102e565b60405161021c9190612201565b60405180910390f35b61023f600480360381019061023a91906120d4565b611036565b005b34801561024d57600080fd5b50610268600480360381019061026391906120d4565b611206565b60405161027591906121e6565b60405180910390f35b34801561028a57600080fd5b506102a560048036038101906102a091906120d4565b611280565b6040516102b291906121e6565b60405180910390f35b3480156102c757600080fd5b506102e260048036038101906102dd9190612139565b611310565b6040516102ef9190612201565b60405180910390f35b34801561030457600080fd5b5061031f600480360381019061031a91906120d4565b611346565b60405161032c91906121a2565b60405180910390f35b34801561034157600080fd5b5061035c600480360381019061035791906120d4565b6113ba565b005b34801561036a57600080fd5b506103736115d7565b6040516103809190612201565b60405180910390f35b34801561039557600080fd5b506103b060048036038101906103ab91906120d4565b6115e3565b6040516103bd9190612201565b60405180910390f35b6103e060048036038101906103db91906120fd565b611687565b005b3480156103ee57600080fd5b50610409600480360381019061040491906120d4565b6117e1565b6040516104169190612201565b60405180910390f35b34801561042b57600080fd5b50610446600480360381019061044191906120d4565b611872565b6040516104539190612201565b60405180910390f35b34801561046857600080fd5b50610483600480360381019061047e91906120d4565b611903565b005b61049f600480360381019061049a91906120d4565b611dd8565b6040516104ac9190612201565b60405180910390f35b3480156104c157600080fd5b506104dc60048036038101906104d791906120d4565b612005565b6040516104e99190612201565b60405180910390f35b600080828154811061052d577f4e487b7100000000000000000000000000000000000000000000000000000000600052603260045260246000fd5b906000526020600020906007020160000160009054906101000a900473ffffffffffffffffffffffffffffffffffffffff1673ffffffffffffffffffffffffffffffffffffffff168373ffffffffffffffffffffffffffffffffffffffff16141561059b57600190506105a0565b600090505b92915050565b600082815481106105e0577f4e487b7100000000000000000000000000000000000000000000000000000000600052603260045260246000fd5b906000526020600020906007020160030160009054906101000a900460ff1661060857600080fd5b60008281548110610642577f4e487b7100000000000000000000000000000000000000000000000000000000600052603260045260246000fd5b906000526020600020906007020160000160009054906101000a900473ffffffffffffffffffffffffffffffffffffffff1673ffffffffffffffffffffffffffffffffffffffff163373ffffffffffffffffffffffffffffffffffffffff1614156106ac57600080fd5b674563918244f40000600083815481106106ef577f4e487b7100000000000000000000000000000000000000000000000000000000600052603260045260246000fd5b906000526020600020906007020160050160003373ffffffffffffffffffffffffffffffffffffffff1673ffffffffffffffffffffffffffffffffffffffff16815260200190815260200160002054101561074957600080fd5b61075161102e565b6000838154811061078b577f4e487b7100000000000000000000000000000000000000000000000000000000600052603260045260246000fd5b906000526020600020906007020160020154116107a757600080fd5b60011515600083815481106107e5577f4e487b7100000000000000000000000000000000000000000000000000000000600052603260045260246000fd5b906000526020600020906007020160030160019054906101000a900460ff16151514156108ec578060008381548110610847577f4e487b7100000000000000000000000000000000000000000000000000000000600052603260045260246000fd5b906000526020600020906007020160060160003373ffffffffffffffffffffffffffffffffffffffff1673ffffffffffffffffffffffffffffffffffffffff168152602001908152602001600020819055503373ffffffffffffffffffffffffffffffffffffffff167f272ba7f62ee5837a19f4c8dd77198207a11e1cccea75d922a4eeccde4646a30d836040516108df9190612201565b60405180910390a2610a5e565b60008281548110610926577f4e487b7100000000000000000000000000000000000000000000000000000000600052603260045260246000fd5b906000526020600020906007020160060160003373ffffffffffffffffffffffffffffffffffffffff1673ffffffffffffffffffffffffffffffffffffffff16815260200190815260200160002054811161098057600080fd5b80600083815481106109bb577f4e487b7100000000000000000000000000000000000000000000000000000000600052603260045260246000fd5b906000526020600020906007020160060160003373ffffffffffffffffffffffffffffffffffffffff1673ffffffffffffffffffffffffffffffffffffffff168152602001908152602001600020819055503373ffffffffffffffffffffffffffffffffffffffff167f26c5351ce9eed975c898f05f94fd88033c938f9b8970582c3b6f396f2309696c8284604051610a5592919061221c565b60405180910390a25b5050565b600080151560008381548110610aa1577f4e487b7100000000000000000000000000000000000000000000000000000000600052603260045260246000fd5b906000526020600020906007020160030160019054906101000a900460ff16151514610acc57600080fd5b6000805b60008481548110610b0a577f4e487b7100000000000000000000000000000000000000000000000000000000600052603260045260246000fd5b906000526020600020906007020160040180549050811015610d07576000808581548110610b61577f4e487b7100000000000000000000000000000000000000000000000000000000600052603260045260246000fd5b90600052602060002090600702016004018281548110610baa577f4e487b7100000000000000000000000000000000000000000000000000000000600052603260045260246000fd5b9060005260206000200160009054906101000a900473ffffffffffffffffffffffffffffffffffffffff1690508260008681548110610c12577f4e487b7100000000000000000000000000000000000000000000000000000000600052603260045260246000fd5b906000526020600020906007020160060160008373ffffffffffffffffffffffffffffffffffffffff1673ffffffffffffffffffffffffffffffffffffffff168152602001908152602001600020541115610cf35760008581548110610ca1577f4e487b7100000000000000000000000000000000000000000000000000000000600052603260045260246000fd5b906000526020600020906007020160060160008273ffffffffffffffffffffffffffffffffffffffff1673ffffffffffffffffffffffffffffffffffffffff1681526020019081526020016000205492505b508080610cff9061231a565b915050610ad0565b5080915050919050565b6000804360008481548110610d4f577f4e487b7100000000000000000000000000000000000000000000000000000000600052603260045260246000fd5b9060005260206000209060070201600201541115610d6c57600080fd5b6000151560008481548110610daa577f4e487b7100000000000000000000000000000000000000000000000000000000600052603260045260246000fd5b906000526020600020906007020160030160019054906101000a900460ff16151514610dd557600080fd5b600080610de185611346565b905060005b60008681548110610e20577f4e487b7100000000000000000000000000000000000000000000000000000000600052603260045260246000fd5b906000526020600020906007020160040180549050811015611020576000808781548110610e77577f4e487b7100000000000000000000000000000000000000000000000000000000600052603260045260246000fd5b90600052602060002090600702016004018281548110610ec0577f4e487b7100000000000000000000000000000000000000000000000000000000600052603260045260246000fd5b9060005260206000200160009054906101000a900473ffffffffffffffffffffffffffffffffffffffff1690508360008881548110610f28577f4e487b7100000000000000000000000000000000000000000000000000000000600052603260045260246000fd5b906000526020600020906007020160060160008373ffffffffffffffffffffffffffffffffffffffff1673ffffffffffffffffffffffffffffffffffffffff16815260200190815260200160002054111561100c5760008781548110610fb7577f4e487b7100000000000000000000000000000000000000000000000000000000600052603260045260246000fd5b906000526020600020906007020160060160008273ffffffffffffffffffffffffffffffffffffffff1673ffffffffffffffffffffffffffffffffffffffff1681526020019081526020016000205493508092505b5080806110189061231a565b915050610de6565b508082935093505050915091565b600043905090565b60008181548110611070577f4e487b7100000000000000000000000000000000000000000000000000000000600052603260045260246000fd5b906000526020600020906007020160000160009054906101000a900473ffffffffffffffffffffffffffffffffffffffff1673ffffffffffffffffffffffffffffffffffffffff163373ffffffffffffffffffffffffffffffffffffffff16146110d957600080fd5b6000151560008281548110611117577f4e487b7100000000000000000000000000000000000000000000000000000000600052603260045260246000fd5b906000526020600020906007020160030160009054906101000a900460ff1615151461114257600080fd5b60015443611150919061227c565b6000828154811061118a577f4e487b7100000000000000000000000000000000000000000000000000000000600052603260045260246000fd5b9060005260206000209060070201600201819055506001600082815481106111db577f4e487b7100000000000000000000000000000000000000000000000000000000600052603260045260246000fd5b906000526020600020906007020160030160006101000a81548160ff02191690831515021790555050565b60006001151560008381548110611246577f4e487b7100000000000000000000000000000000000000000000000000000000600052603260045260246000fd5b906000526020600020906007020160030160019054906101000a900460ff1615151415611276576001905061127b565b600090505b919050565b600080600090505b6000805490508110156113055782600082815481106112d0577f4e487b7100000000000000000000000000000000000000000000000000000000600052603260045260246000fd5b90600052602060002090600702016001015414156112f257600091505061130b565b80806112fd9061231a565b915050611288565b50600190505b919050565b6000818360405160200161132592919061221c565b6040516020818303038152906040528051906020012060001c905092915050565b6000808281548110611381577f4e487b7100000000000000000000000000000000000000000000000000000000600052603260045260246000fd5b906000526020600020906007020160000160009054906101000a900473ffffffffffffffffffffffffffffffffffffffff169050919050565b60001515600082815481106113f8577f4e487b7100000000000000000000000000000000000000000000000000000000600052603260045260246000fd5b906000526020600020906007020160030160009054906101000a900460ff161515148061146f5750436000828154811061145b577f4e487b7100000000000000000000000000000000000000000000000000000000600052603260045260246000fd5b906000526020600020906007020160020154105b61147857600080fd5b3373ffffffffffffffffffffffffffffffffffffffff166108fc600083815481106114cc577f4e487b7100000000000000000000000000000000000000000000000000000000600052603260045260246000fd5b906000526020600020906007020160050160003373ffffffffffffffffffffffffffffffffffffffff1673ffffffffffffffffffffffffffffffffffffffff168152602001908152602001600020549081150290604051600060405180830381858888f19350505050158015611546573d6000803e3d6000fd5b506000808281548110611582577f4e487b7100000000000000000000000000000000000000000000000000000000600052603260045260246000fd5b906000526020600020906007020160050160003373ffffffffffffffffffffffffffffffffffffffff1673ffffffffffffffffffffffffffffffffffffffff1681526020019081526020016000208190555050565b60008080549050905090565b60008015156115f183611280565b1515146115fd57600080fd5b60005b60008054905081101561167c578260008281548110611648577f4e487b7100000000000000000000000000000000000000000000000000000000600052603260045260246000fd5b90600052602060002090600702016001015414156116695780915050611682565b80806116749061231a565b915050611600565b50600090505b919050565b61169082611280565b61169957600080fd5b60008080549050905060006001816001815401808255809150500390600052602060002090505060008082815481106116fb577f4e487b7100000000000000000000000000000000000000000000000000000000600052603260045260246000fd5b9060005260206000209060070201905060015443611719919061227c565b8160020181905550338160000160006101000a81548173ffffffffffffffffffffffffffffffffffffffff021916908373ffffffffffffffffffffffffffffffffffffffff160217905550828160030160016101000a81548160ff0219169083151502179055508381600101819055503373ffffffffffffffffffffffffffffffffffffffff167ff04b9fd96031702b939d571a81acc9c809b2376063fcbc6afd6f75af5ed139228386866040516117d393929190612245565b60405180910390a250505050565b600080828154811061181c577f4e487b7100000000000000000000000000000000000000000000000000000000600052603260045260246000fd5b906000526020600020906007020160050160003373ffffffffffffffffffffffffffffffffffffffff1673ffffffffffffffffffffffffffffffffffffffff168152602001908152602001600020549050919050565b60008082815481106118ad577f4e487b7100000000000000000000000000000000000000000000000000000000600052603260045260246000fd5b906000526020600020906007020160060160003373ffffffffffffffffffffffffffffffffffffffff1673ffffffffffffffffffffffffffffffffffffffff168152602001908152602001600020549050919050565b6000818154811061193d577f4e487b7100000000000000000000000000000000000000000000000000000000600052603260045260246000fd5b906000526020600020906007020160000160009054906101000a900473ffffffffffffffffffffffffffffffffffffffff1673ffffffffffffffffffffffffffffffffffffffff163373ffffffffffffffffffffffffffffffffffffffff16146119a657600080fd5b600081815481106119e0577f4e487b7100000000000000000000000000000000000000000000000000000000600052603260045260246000fd5b90600052602060002090600702016002015443116119fd57600080fd5b60005b60008281548110611a3a577f4e487b7100000000000000000000000000000000000000000000000000000000600052603260045260246000fd5b906000526020600020906007020160040180549050811015611dd4576000808381548110611a91577f4e487b7100000000000000000000000000000000000000000000000000000000600052603260045260246000fd5b90600052602060002090600702016004018281548110611ada577f4e487b7100000000000000000000000000000000000000000000000000000000600052603260045260246000fd5b9060005260206000200160009054906101000a900473ffffffffffffffffffffffffffffffffffffffff1690506000808481548110611b42577f4e487b7100000000000000000000000000000000000000000000000000000000600052603260045260246000fd5b90600052602060002090600702016005016000808681548110611b8e577f4e487b7100000000000000000000000000000000000000000000000000000000600052603260045260246000fd5b90600052602060002090600702016004018581548110611bd7577f4e487b7100000000000000000000000000000000000000000000000000000000600052603260045260246000fd5b9060005260206000200160009054906101000a900473ffffffffffffffffffffffffffffffffffffffff1673ffffffffffffffffffffffffffffffffffffffff1673ffffffffffffffffffffffffffffffffffffffff1681526020019081526020016000205490508173ffffffffffffffffffffffffffffffffffffffff166108fc829081150290604051600060405180830381858888f19350505050158015611c85573d6000803e3d6000fd5b506000808581548110611cc1577f4e487b7100000000000000000000000000000000000000000000000000000000600052603260045260246000fd5b90600052602060002090600702016005016000808781548110611d0d577f4e487b7100000000000000000000000000000000000000000000000000000000600052603260045260246000fd5b90600052602060002090600702016004018681548110611d56577f4e487b7100000000000000000000000000000000000000000000000000000000600052603260045260246000fd5b9060005260206000200160009054906101000a900473ffffffffffffffffffffffffffffffffffffffff1673ffffffffffffffffffffffffffffffffffffffff1673ffffffffffffffffffffffffffffffffffffffff1681526020019081526020016000208190555050508080611dcc9061231a565b915050611a00565b5050565b60003460008381548110611e15577f4e487b7100000000000000000000000000000000000000000000000000000000600052603260045260246000fd5b906000526020600020906007020160050160003373ffffffffffffffffffffffffffffffffffffffff1673ffffffffffffffffffffffffffffffffffffffff1681526020019081526020016000206000828254611e72919061227c565b9250508190555060008281548110611eb3577f4e487b7100000000000000000000000000000000000000000000000000000000600052603260045260246000fd5b9060005260206000209060070201600401339080600181540180825580915050600190039060005260206000200160009091909190916101000a81548173ffffffffffffffffffffffffffffffffffffffff021916908373ffffffffffffffffffffffffffffffffffffffff1602179055503373ffffffffffffffffffffffffffffffffffffffff167fad40ae5dc69974ba932d08b0a608e89109412d41d04850f5196f144875ae26603484604051611f6d92919061221c565b60405180910390a260008281548110611faf577f4e487b7100000000000000000000000000000000000000000000000000000000600052603260045260246000fd5b906000526020600020906007020160050160003373ffffffffffffffffffffffffffffffffffffffff1673ffffffffffffffffffffffffffffffffffffffff168152602001908152602001600020549050919050565b6000808281548110612040577f4e487b7100000000000000000000000000000000000000000000000000000000600052603260045260246000fd5b9060005260206000209060070201600201549050919050565b60008135905061206881612392565b92915050565b60008135905061207d816123a9565b92915050565b600081359050612092816123c0565b92915050565b600080604083850312156120ab57600080fd5b60006120b985828601612059565b92505060206120ca85828601612083565b9150509250929050565b6000602082840312156120e657600080fd5b60006120f484828501612083565b91505092915050565b6000806040838503121561211057600080fd5b600061211e85828601612083565b925050602061212f8582860161206e565b9150509250929050565b6000806040838503121561214c57600080fd5b600061215a85828601612083565b925050602061216b85828601612083565b9150509250929050565b61217e816122d2565b82525050565b61218d816122e4565b82525050565b61219c81612310565b82525050565b60006020820190506121b76000830184612175565b92915050565b60006040820190506121d26000830185612175565b6121df6020830184612193565b9392505050565b60006020820190506121fb6000830184612184565b92915050565b60006020820190506122166000830184612193565b92915050565b60006040820190506122316000830185612193565b61223e6020830184612193565b9392505050565b600060608201905061225a6000830186612193565b6122676020830185612193565b6122746040830184612184565b949350505050565b600061228782612310565b915061229283612310565b9250827fffffffffffffffffffffffffffffffffffffffffffffffffffffffffffffffff038211156122c7576122c6612363565b5b828201905092915050565b60006122dd826122f0565b9050919050565b60008115159050919050565b600073ffffffffffffffffffffffffffffffffffffffff82169050919050565b6000819050919050565b600061232582612310565b91507fffffffffffffffffffffffffffffffffffffffffffffffffffffffffffffffff82141561235857612357612363565b5b600182019050919050565b7f4e487b7100000000000000000000000000000000000000000000000000000000600052601160045260246000fd5b61239b816122d2565b81146123a657600080fd5b50565b6123b2816122e4565b81146123bd57600080fd5b50565b6123c981612310565b81146123d457600080fd5b5056fea2646970667358221220632b220ccbf13e621a8e79f945ada0834dfc2f24c93f4ba06b96f1d751e4cfdb64736f6c63430008000033",
  "immutableReferences": {},
  "source": "// SPDX-License-Identifier: MIT\r\npragma solidity ^0.8.0;\r\n\r\ncontract AuctionHouse {\r\n\r\n    struct Auction {\r\n        address owner;\r\n        uint auction_identifier;\r\n        uint endtime; \r\n        bool active; \r\n        bool sealed_auction; \r\n        address[] bidders;\r\n        mapping (address => uint) deposit;   \r\n        mapping (address => uint) bids;\r\n    }\r\n\r\n    Auction[] auctions;\r\n\r\n    uint256 interval = 8; \r\n    \r\n    // define events\r\n    event DepositEvent(address indexed sender, uint value, uint256 idx);\r\n    event AuctionDeployed(address indexed owner, uint256 idx, uint256 identifier, bool sealed_auction);\r\n    event OpenBidEvent(address indexed sender, uint value, uint256 idx);\r\n    event SealedBidEvent(address indexed sender, uint256 idx);\r\n\r\n\r\n    function hashSeriesNumber(uint256 nonce, uint256 number) public pure returns (uint) {\r\n        // hash the value of a string and number \r\n        return uint256(keccak256(abi.encode(number, nonce)));\r\n    }\r\n\r\n    function get_owner(uint idx) public view returns (address){\r\n        // returns the address of the owner for certain id \r\n        return auctions[idx].owner;\r\n    }\r\n\r\n    function is_owner(address addr, uint idx) public view returns (bool){\r\n        // returns true/false of an address with idx\r\n        if (addr == auctions[idx].owner){\r\n            return true;\r\n        }\r\n        else{\r\n            return false;\r\n        }\r\n    }\r\n\r\n    function is_sealed(uint idx) public view returns (bool){\r\n        // returns true/false if the auction is sealed\r\n        if (auctions[idx].sealed_auction == true){\r\n            return true;\r\n        }\r\n        else{\r\n            return false;\r\n        }\r\n    }\r\n\r\n    function get_idx_from_identifier(uint identifier) public view returns (uint){\r\n        // get the id of an auction given an identifier\r\n        require(identifier_is_unused(identifier)==false);\r\n        for (uint256 idx = 0; idx < auctions.length; idx++) {\r\n            if (auctions[idx].auction_identifier == identifier){\r\n                return idx;\r\n            }\r\n        }\r\n        return 0;\r\n    }\r\n\r\n    function identifier_is_unused(uint identifier) public view returns (bool){\r\n        // check if the identifier is already in use\r\n        for (uint256 idx = 0; idx < auctions.length; idx++) {\r\n            if (auctions[idx].auction_identifier == identifier){\r\n                return false;\r\n            }\r\n        }\r\n        return true;\r\n    }\r\n\r\n    function get_number_of_auctions() public view returns (uint){\r\n        // returns the number of auctions\r\n        return auctions.length;\r\n    }\r\n\r\n    function deploy_auction(uint identifier, bool type_sealed) public payable{\r\n        // deploys an auction\r\n        require(identifier_is_unused(identifier));\r\n        uint idx = auctions.length;\r\n        auctions.push();\r\n        Auction storage new_auct = auctions[idx];\r\n        new_auct.endtime = block.number + interval;\r\n        new_auct.owner = msg.sender;\r\n        new_auct.sealed_auction = type_sealed;\r\n        new_auct.auction_identifier = identifier;\r\n        emit AuctionDeployed(msg.sender, idx, identifier, type_sealed);\r\n    }\r\n\r\n    function start_auction(uint idx) public payable {\r\n        // start the auction, setting timelimit, can only not be reactivated\r\n        require(msg.sender == auctions[idx].owner);\r\n        require(auctions[idx].active == false);\r\n        auctions[idx].endtime = block.number + interval;\r\n        auctions[idx].active = true;\r\n        \r\n    }\r\n\r\n    function deposit_money(uint idx) public payable returns (uint){\r\n        // Deposit money in order to be able to participate\r\n        auctions[idx].deposit[msg.sender] += msg.value;\r\n        auctions[idx].bidders.push(msg.sender);\r\n        emit DepositEvent(msg.sender, msg.value, idx);\r\n        return auctions[idx].deposit[msg.sender];\r\n    }\r\n\r\n    function get_deposit_balance(uint idx) public view returns (uint){\r\n        // gets the balances of bidders\r\n        return auctions[idx].deposit[msg.sender];\r\n    }\r\n\r\n    function set_bid(uint idx, uint bid_value) public {\r\n        // sets the bid, requirements have to be fulfilled \r\n        require(auctions[idx].active);\r\n        require(msg.sender != auctions[idx].owner);\r\n        require(auctions[idx].deposit[msg.sender]>=5 ether);\r\n        require(auctions[idx].endtime > create_timestamp());\r\n\r\n        if (auctions[idx].sealed_auction == true){\r\n            auctions[idx].bids[msg.sender] = bid_value;\r\n            emit SealedBidEvent(msg.sender, idx);\r\n        }\r\n        else{\r\n            require(bid_value > auctions[idx].bids[msg.sender]);\r\n            auctions[idx].bids[msg.sender] = bid_value;\r\n            emit OpenBidEvent(msg.sender, bid_value, idx);\r\n        }\r\n    }\r\n\r\n    function get_bid(uint idx) public view returns (uint){\r\n        // returns last/highest bid of bidder\r\n        return auctions[idx].bids[msg.sender];\r\n    }\r\n\r\n    function get_highest_bid(uint idx) public view returns (uint) {\r\n        require(auctions[idx].sealed_auction == false);\r\n        uint winning_bid=0;\r\n        for (uint256 i = 0; i < auctions[idx].bidders.length; i++) {\r\n            address curr_bidder = auctions[idx].bidders[i];\r\n            if (auctions[idx].bids[curr_bidder] > winning_bid){\r\n                winning_bid = auctions[idx].bids[curr_bidder];\r\n            }\r\n        }  \r\n        return winning_bid;\r\n    }\r\n\r\n    function get_endtime(uint idx) public view returns (uint){\r\n        // returns the endtime\r\n        return auctions[idx].endtime;\r\n    }\r\n\r\n    function create_timestamp() public view returns (uint256){\r\n        // creates timestamp\r\n        return block.number;\r\n    }\r\n\r\n    function kill(uint idx) public{\r\n        // transfers back all deposts for auction id\r\n        require(msg.sender == auctions[idx].owner);\r\n        require(block.number > auctions[idx].endtime);\r\n        for (uint256 i = 0; i < auctions[idx].bidders.length; i++) {\r\n            address bidder = auctions[idx].bidders[i];\r\n            uint deposit = auctions[idx].deposit[auctions[idx].bidders[i]];\r\n            payable(bidder).transfer(deposit);\r\n            auctions[idx].deposit[auctions[idx].bidders[i]] = 0;\r\n        }\r\n    }    \r\n\r\n    function get_winner(uint idx) public view returns (address, uint) {\r\n        // gets the winner in an open price auction\r\n        require((auctions[idx].endtime <= block.number));\r\n        require(auctions[idx].sealed_auction == false);\r\n        uint winning_bid=0;\r\n        address winner_address=get_owner(idx);\r\n        for (uint256 i = 0; i < auctions[idx].bidders.length; i++) {\r\n            address curr_bidder = auctions[idx].bidders[i];\r\n            if (auctions[idx].bids[curr_bidder] > winning_bid){\r\n                winning_bid = auctions[idx].bids[curr_bidder];\r\n                winner_address = curr_bidder;\r\n            }\r\n        }  \r\n        return (winner_address, winning_bid);\r\n    }\r\n\r\n    function refund_deposit(uint idx) public {\r\n        // refund the deposit if action is not active or if time is over\r\n        require(auctions[idx].active == false || auctions[idx].endtime < block.number);\r\n        payable(msg.sender).transfer(auctions[idx].deposit[msg.sender]);\r\n        auctions[idx].deposit[msg.sender] = 0;\r\n    }\r\n}\r\n",
  "sourcePath": "C:/Users/maxgi/Uni-Max/Coding/BLKCHN21/BlockchainProject/contracts/AuctionHouse.sol",
  "compiler": {
    "name": "solc",
    "version": "0.8.0+commit.c7dfd78e.Emscripten.clang"
  },
  "schemaVersion": "3.4.1",
  "updatedAt": "2021-06-09T18:57:52.025Z",
  "devdoc": {
    "kind": "dev",
    "methods": {},
    "version": 1
  },
  "userdoc": {
    "kind": "user",
    "methods": {},
    "version": 1
  }
}