{
  "contractName": "AuctionHouse",
  "abi": [
    {
      "inputs": [],
      "stateMutability": "payable",
      "type": "constructor"
    },
    {
      "anonymous": false,
      "inputs": [
        {
          "indexed": true,
          "internalType": "address",
          "name": "accountAddress",
          "type": "address"
        },
        {
          "indexed": false,
          "internalType": "uint256",
          "name": "amount",
          "type": "uint256"
        }
      ],
      "name": "LogDepositMade",
      "type": "event"
    },
    {
      "anonymous": false,
      "inputs": [
        {
          "indexed": true,
          "internalType": "address",
          "name": "_from",
          "type": "address"
        },
        {
          "indexed": true,
          "internalType": "address",
          "name": "_to",
          "type": "address"
        },
        {
          "indexed": false,
          "internalType": "uint256",
          "name": "_value",
          "type": "uint256"
        }
      ],
      "name": "Transfer",
      "type": "event"
    },
    {
      "inputs": [
        {
          "internalType": "string",
          "name": "series",
          "type": "string"
        },
        {
          "internalType": "uint256",
          "name": "number",
          "type": "uint256"
        }
      ],
      "name": "hashSeriesNumber",
      "outputs": [
        {
          "internalType": "bytes32",
          "name": "",
          "type": "bytes32"
        }
      ],
      "stateMutability": "pure",
      "type": "function"
    },
    {
      "inputs": [
        {
          "internalType": "uint256",
          "name": "idx",
          "type": "uint256"
        }
      ],
      "name": "get_owner",
      "outputs": [
        {
          "internalType": "address",
          "name": "",
          "type": "address"
        }
      ],
      "stateMutability": "view",
      "type": "function"
    },
    {
      "inputs": [
        {
          "internalType": "address",
          "name": "add",
          "type": "address"
        },
        {
          "internalType": "uint256",
          "name": "idx",
          "type": "uint256"
        }
      ],
      "name": "is_owner",
      "outputs": [
        {
          "internalType": "bool",
          "name": "",
          "type": "bool"
        }
      ],
      "stateMutability": "view",
      "type": "function"
    },
    {
      "inputs": [
        {
          "internalType": "uint256",
          "name": "idx",
          "type": "uint256"
        }
      ],
      "name": "is_sealed",
      "outputs": [
        {
          "internalType": "bool",
          "name": "",
          "type": "bool"
        }
      ],
      "stateMutability": "view",
      "type": "function"
    },
    {
      "inputs": [
        {
          "internalType": "address",
          "name": "owner",
          "type": "address"
        }
      ],
      "name": "get_id",
      "outputs": [
        {
          "internalType": "uint256",
          "name": "",
          "type": "uint256"
        }
      ],
      "stateMutability": "view",
      "type": "function"
    },
    {
      "inputs": [],
      "name": "deploy_sealed_auction",
      "outputs": [
        {
          "internalType": "uint256",
          "name": "",
          "type": "uint256"
        }
      ],
      "stateMutability": "payable",
      "type": "function"
    },
    {
      "inputs": [],
      "name": "deploy_open_auction",
      "outputs": [
        {
          "internalType": "uint256",
          "name": "",
          "type": "uint256"
        }
      ],
      "stateMutability": "payable",
      "type": "function"
    },
    {
      "inputs": [
        {
          "internalType": "uint256",
          "name": "idx",
          "type": "uint256"
        }
      ],
      "name": "start_auction",
      "outputs": [],
      "stateMutability": "payable",
      "type": "function"
    },
    {
      "inputs": [
        {
          "internalType": "uint256",
          "name": "idx",
          "type": "uint256"
        }
      ],
      "name": "deposit_money",
      "outputs": [
        {
          "internalType": "uint256",
          "name": "",
          "type": "uint256"
        }
      ],
      "stateMutability": "payable",
      "type": "function"
    },
    {
      "inputs": [
        {
          "internalType": "uint256",
          "name": "idx",
          "type": "uint256"
        }
      ],
      "name": "get_deposit_balance",
      "outputs": [
        {
          "internalType": "uint256",
          "name": "",
          "type": "uint256"
        }
      ],
      "stateMutability": "view",
      "type": "function"
    },
    {
      "inputs": [
        {
          "internalType": "uint256",
          "name": "idx",
          "type": "uint256"
        },
        {
          "internalType": "uint256",
          "name": "bid_value",
          "type": "uint256"
        }
      ],
      "name": "set_bid",
      "outputs": [],
      "stateMutability": "nonpayable",
      "type": "function"
    },
    {
      "inputs": [
        {
          "internalType": "uint256",
          "name": "idx",
          "type": "uint256"
        }
      ],
      "name": "get_bid",
      "outputs": [
        {
          "internalType": "uint256",
          "name": "",
          "type": "uint256"
        }
      ],
      "stateMutability": "view",
      "type": "function"
    },
    {
      "inputs": [
        {
          "internalType": "uint256",
          "name": "idx",
          "type": "uint256"
        }
      ],
      "name": "get_endtime",
      "outputs": [
        {
          "internalType": "uint256",
          "name": "",
          "type": "uint256"
        }
      ],
      "stateMutability": "view",
      "type": "function"
    },
    {
      "inputs": [],
      "name": "create_timestamp",
      "outputs": [
        {
          "internalType": "uint256",
          "name": "",
          "type": "uint256"
        }
      ],
      "stateMutability": "view",
      "type": "function"
    },
    {
      "inputs": [
        {
          "internalType": "uint256",
          "name": "idx",
          "type": "uint256"
        }
      ],
      "name": "kill",
      "outputs": [],
      "stateMutability": "nonpayable",
      "type": "function"
    },
    {
      "inputs": [
        {
          "internalType": "uint256",
          "name": "idx",
          "type": "uint256"
        }
      ],
      "name": "get_winner",
      "outputs": [
        {
          "internalType": "address",
          "name": "",
          "type": "address"
        },
        {
          "internalType": "uint256",
          "name": "",
          "type": "uint256"
        }
      ],
      "stateMutability": "view",
      "type": "function"
    },
    {
      "inputs": [
        {
          "internalType": "uint256",
          "name": "idx",
          "type": "uint256"
        }
      ],
      "name": "refund_deposit",
      "outputs": [],
      "stateMutability": "nonpayable",
      "type": "function"
    }
  ],
  "bytecode": "0x6080604052670de0b6b3a76400006001556402540be40060025560076003556122618061002d6000396000f3fe6080604052600436106100fe5760003560e01c80637a2994eb11610095578063ce4339b711610064578063ce4339b714610347578063d29a002514610384578063e9117d89146103ad578063ef2784a8146103dd578063f458de9e1461041a576100fe565b80637a2994eb1461028657806399f0231f146102af578063a092c504146102ec578063c6be98f714610329576100fe565b80633ea3ff93116100d15780633ea3ff93146101c557806344375fc7146101f0578063468298d41461020c5780637220587514610249576100fe565b8063051a00d3146101035780630802ca2814610140578063233b37f214610169578063243dc40914610187575b600080fd5b34801561010f57600080fd5b5061012a60048036038101906101259190611d55565b610457565b6040516101379190611f03565b60405180910390f35b34801561014c57600080fd5b5061016760048036038101906101629190611e0e565b61050b565b005b610171610963565b60405161017e9190611f39565b60405180910390f35b34801561019357600080fd5b506101ae60048036038101906101a99190611de5565b610aa7565b6040516101bc929190611eda565b60405180910390f35b3480156101d157600080fd5b506101da610dc3565b6040516101e79190611f39565b60405180910390f35b61020a60048036038101906102059190611de5565b610dcb565b005b34801561021857600080fd5b50610233600480360381019061022e9190611de5565b610f97565b6040516102409190611f03565b60405180910390f35b34801561025557600080fd5b50610270600480360381019061026b9190611de5565b611011565b60405161027d9190611ebf565b60405180910390f35b34801561029257600080fd5b506102ad60048036038101906102a89190611de5565b611085565b005b3480156102bb57600080fd5b506102d660048036038101906102d19190611d91565b6112a2565b6040516102e39190611f1e565b60405180910390f35b3480156102f857600080fd5b50610313600480360381019061030e9190611de5565b6112d5565b6040516103209190611f39565b60405180910390f35b610331611366565b60405161033e9190611f39565b60405180910390f35b34801561035357600080fd5b5061036e60048036038101906103699190611de5565b6114ab565b60405161037b9190611f39565b60405180910390f35b34801561039057600080fd5b506103ab60048036038101906103a69190611de5565b61153c565b005b6103c760048036038101906103c29190611de5565b611a11565b6040516103d49190611f39565b60405180910390f35b3480156103e957600080fd5b5061040460048036038101906103ff9190611d2c565b611bee565b6040516104119190611f39565b60405180910390f35b34801561042657600080fd5b50610441600480360381019061043c9190611de5565b611c46565b60405161044e9190611f39565b60405180910390f35b6000808281548110610492577f4e487b7100000000000000000000000000000000000000000000000000000000600052603260045260246000fd5b906000526020600020906006020160000160009054906101000a900473ffffffffffffffffffffffffffffffffffffffff1673ffffffffffffffffffffffffffffffffffffffff168373ffffffffffffffffffffffffffffffffffffffff1614156105005760019050610505565b600090505b92915050565b60008281548110610545577f4e487b7100000000000000000000000000000000000000000000000000000000600052603260045260246000fd5b906000526020600020906006020160020160009054906101000a900460ff161561095f57600082815481106105a3577f4e487b7100000000000000000000000000000000000000000000000000000000600052603260045260246000fd5b906000526020600020906006020160000160009054906101000a900473ffffffffffffffffffffffffffffffffffffffff1673ffffffffffffffffffffffffffffffffffffffff163373ffffffffffffffffffffffffffffffffffffffff161461095e5760015460056106169190612057565b60008381548110610650577f4e487b7100000000000000000000000000000000000000000000000000000000600052603260045260246000fd5b906000526020600020906006020160040160003373ffffffffffffffffffffffffffffffffffffffff1673ffffffffffffffffffffffffffffffffffffffff168152602001908152602001600020541061095d57600082815481106106de577f4e487b7100000000000000000000000000000000000000000000000000000000600052603260045260246000fd5b906000526020600020906006020160050160003373ffffffffffffffffffffffffffffffffffffffff1673ffffffffffffffffffffffffffffffffffffffff1681526020019081526020016000205481111561095c5761073c610dc3565b60008381548110610776577f4e487b7100000000000000000000000000000000000000000000000000000000600052603260045260246000fd5b906000526020600020906006020160010154111561095b5760011515600083815481106107cc577f4e487b7100000000000000000000000000000000000000000000000000000000600052603260045260246000fd5b906000526020600020906006020160020160019054906101000a900460ff16151514156108cc5760006040518060400160405280600481526020017f5465737400000000000000000000000000000000000000000000000000000000815250905061083781836112a2565b60001c60008481548110610874577f4e487b7100000000000000000000000000000000000000000000000000000000600052603260045260246000fd5b906000526020600020906006020160050160003373ffffffffffffffffffffffffffffffffffffffff1673ffffffffffffffffffffffffffffffffffffffff168152602001908152602001600020819055505061095a565b8060008381548110610907577f4e487b7100000000000000000000000000000000000000000000000000000000600052603260045260246000fd5b906000526020600020906006020160050160003373ffffffffffffffffffffffffffffffffffffffff1673ffffffffffffffffffffffffffffffffffffffff168152602001908152602001600020819055505b5b5b5b5b5b5050565b6000806000805490509050600254811015610a9f5760006001816001815401808255809150500390600052602060002090505060008082815481106109d1577f4e487b7100000000000000000000000000000000000000000000000000000000600052603260045260246000fd5b90600052602060002090600602019050600354436109ef9190612001565b8160010181905550338160000160006101000a81548173ffffffffffffffffffffffffffffffffffffffff021916908373ffffffffffffffffffffffffffffffffffffffff1602179055506000808381548110610a75577f4e487b7100000000000000000000000000000000000000000000000000000000600052603260045260246000fd5b906000526020600020906006020160020160016101000a81548160ff021916908315150217905550505b600091505090565b6000804360008481548110610ae5577f4e487b7100000000000000000000000000000000000000000000000000000000600052603260045260246000fd5b90600052602060002090600602016001015410610b0157600080fd5b6000151560008481548110610b3f577f4e487b7100000000000000000000000000000000000000000000000000000000600052603260045260246000fd5b906000526020600020906006020160020160019054906101000a900460ff16151514610b6a57600080fd5b600080610b7685611011565b905060005b60008681548110610bb5577f4e487b7100000000000000000000000000000000000000000000000000000000600052603260045260246000fd5b906000526020600020906006020160030180549050811015610db5576000808781548110610c0c577f4e487b7100000000000000000000000000000000000000000000000000000000600052603260045260246000fd5b90600052602060002090600602016003018281548110610c55577f4e487b7100000000000000000000000000000000000000000000000000000000600052603260045260246000fd5b9060005260206000200160009054906101000a900473ffffffffffffffffffffffffffffffffffffffff1690508360008881548110610cbd577f4e487b7100000000000000000000000000000000000000000000000000000000600052603260045260246000fd5b906000526020600020906006020160050160008373ffffffffffffffffffffffffffffffffffffffff1673ffffffffffffffffffffffffffffffffffffffff168152602001908152602001600020541115610da15760008781548110610d4c577f4e487b7100000000000000000000000000000000000000000000000000000000600052603260045260246000fd5b906000526020600020906006020160050160008273ffffffffffffffffffffffffffffffffffffffff1673ffffffffffffffffffffffffffffffffffffffff1681526020019081526020016000205493508092505b508080610dad90612145565b915050610b7b565b508082935093505050915091565b600043905090565b60008181548110610e05577f4e487b7100000000000000000000000000000000000000000000000000000000600052603260045260246000fd5b906000526020600020906006020160000160009054906101000a900473ffffffffffffffffffffffffffffffffffffffff1673ffffffffffffffffffffffffffffffffffffffff163373ffffffffffffffffffffffffffffffffffffffff16148015610ecd57506000151560008281548110610eaa577f4e487b7100000000000000000000000000000000000000000000000000000000600052603260045260246000fd5b906000526020600020906006020160020160009054906101000a900460ff161515145b15610f945760035443610ee09190612001565b60008281548110610f1a577f4e487b7100000000000000000000000000000000000000000000000000000000600052603260045260246000fd5b906000526020600020906006020160010181905550600160008281548110610f6b577f4e487b7100000000000000000000000000000000000000000000000000000000600052603260045260246000fd5b906000526020600020906006020160020160006101000a81548160ff0219169083151502179055505b50565b60006001151560008381548110610fd7577f4e487b7100000000000000000000000000000000000000000000000000000000600052603260045260246000fd5b906000526020600020906006020160020160019054906101000a900460ff1615151415611007576001905061100c565b600090505b919050565b600080828154811061104c577f4e487b7100000000000000000000000000000000000000000000000000000000600052603260045260246000fd5b906000526020600020906006020160000160009054906101000a900473ffffffffffffffffffffffffffffffffffffffff169050919050565b60001515600082815481106110c3577f4e487b7100000000000000000000000000000000000000000000000000000000600052603260045260246000fd5b906000526020600020906006020160020160009054906101000a900460ff161515148061113a57504360008281548110611126577f4e487b7100000000000000000000000000000000000000000000000000000000600052603260045260246000fd5b906000526020600020906006020160010154105b61114357600080fd5b3373ffffffffffffffffffffffffffffffffffffffff166108fc60008381548110611197577f4e487b7100000000000000000000000000000000000000000000000000000000600052603260045260246000fd5b906000526020600020906006020160040160003373ffffffffffffffffffffffffffffffffffffffff1673ffffffffffffffffffffffffffffffffffffffff168152602001908152602001600020549081150290604051600060405180830381858888f19350505050158015611211573d6000803e3d6000fd5b50600080828154811061124d577f4e487b7100000000000000000000000000000000000000000000000000000000600052603260045260246000fd5b906000526020600020906006020160040160003373ffffffffffffffffffffffffffffffffffffffff1673ffffffffffffffffffffffffffffffffffffffff1681526020019081526020016000208190555050565b600081836040516020016112b7929190611f54565b60405160208183030381529060405280519060200120905092915050565b6000808281548110611310577f4e487b7100000000000000000000000000000000000000000000000000000000600052603260045260246000fd5b906000526020600020906006020160040160003373ffffffffffffffffffffffffffffffffffffffff1673ffffffffffffffffffffffffffffffffffffffff168152602001908152602001600020549050919050565b60008060008054905090506002548110156114a35760006001816001815401808255809150500390600052602060002090505060008082815481106113d4577f4e487b7100000000000000000000000000000000000000000000000000000000600052603260045260246000fd5b90600052602060002090600602019050600354436113f29190612001565b8160010181905550338160000160006101000a81548173ffffffffffffffffffffffffffffffffffffffff021916908373ffffffffffffffffffffffffffffffffffffffff160217905550600160008381548110611479577f4e487b7100000000000000000000000000000000000000000000000000000000600052603260045260246000fd5b906000526020600020906006020160020160016101000a81548160ff021916908315150217905550505b600091505090565b60008082815481106114e6577f4e487b7100000000000000000000000000000000000000000000000000000000600052603260045260246000fd5b906000526020600020906006020160050160003373ffffffffffffffffffffffffffffffffffffffff1673ffffffffffffffffffffffffffffffffffffffff168152602001908152602001600020549050919050565b60008181548110611576577f4e487b7100000000000000000000000000000000000000000000000000000000600052603260045260246000fd5b906000526020600020906006020160000160009054906101000a900473ffffffffffffffffffffffffffffffffffffffff1673ffffffffffffffffffffffffffffffffffffffff163373ffffffffffffffffffffffffffffffffffffffff16146115df57600080fd5b60008181548110611619577f4e487b7100000000000000000000000000000000000000000000000000000000600052603260045260246000fd5b906000526020600020906006020160010154431161163657600080fd5b60005b60008281548110611673577f4e487b7100000000000000000000000000000000000000000000000000000000600052603260045260246000fd5b906000526020600020906006020160030180549050811015611a0d5760008083815481106116ca577f4e487b7100000000000000000000000000000000000000000000000000000000600052603260045260246000fd5b90600052602060002090600602016003018281548110611713577f4e487b7100000000000000000000000000000000000000000000000000000000600052603260045260246000fd5b9060005260206000200160009054906101000a900473ffffffffffffffffffffffffffffffffffffffff169050600080848154811061177b577f4e487b7100000000000000000000000000000000000000000000000000000000600052603260045260246000fd5b906000526020600020906006020160040160008086815481106117c7577f4e487b7100000000000000000000000000000000000000000000000000000000600052603260045260246000fd5b90600052602060002090600602016003018581548110611810577f4e487b7100000000000000000000000000000000000000000000000000000000600052603260045260246000fd5b9060005260206000200160009054906101000a900473ffffffffffffffffffffffffffffffffffffffff1673ffffffffffffffffffffffffffffffffffffffff1673ffffffffffffffffffffffffffffffffffffffff1681526020019081526020016000205490508173ffffffffffffffffffffffffffffffffffffffff166108fc829081150290604051600060405180830381858888f193505050501580156118be573d6000803e3d6000fd5b5060008085815481106118fa577f4e487b7100000000000000000000000000000000000000000000000000000000600052603260045260246000fd5b90600052602060002090600602016004016000808781548110611946577f4e487b7100000000000000000000000000000000000000000000000000000000600052603260045260246000fd5b9060005260206000209060060201600301868154811061198f577f4e487b7100000000000000000000000000000000000000000000000000000000600052603260045260246000fd5b9060005260206000200160009054906101000a900473ffffffffffffffffffffffffffffffffffffffff1673ffffffffffffffffffffffffffffffffffffffff1673ffffffffffffffffffffffffffffffffffffffff1681526020019081526020016000208190555050508080611a0590612145565b915050611639565b5050565b60003460008381548110611a4e577f4e487b7100000000000000000000000000000000000000000000000000000000600052603260045260246000fd5b906000526020600020906006020160040160003373ffffffffffffffffffffffffffffffffffffffff1673ffffffffffffffffffffffffffffffffffffffff1681526020019081526020016000206000828254611aab9190612001565b9250508190555060008281548110611aec577f4e487b7100000000000000000000000000000000000000000000000000000000600052603260045260246000fd5b9060005260206000209060060201600301339080600181540180825580915050600190039060005260206000200160009091909190916101000a81548173ffffffffffffffffffffffffffffffffffffffff021916908373ffffffffffffffffffffffffffffffffffffffff16021790555060008281548110611b98577f4e487b7100000000000000000000000000000000000000000000000000000000600052603260045260246000fd5b906000526020600020906006020160040160003373ffffffffffffffffffffffffffffffffffffffff1673ffffffffffffffffffffffffffffffffffffffff168152602001908152602001600020549050919050565b600080600090505b600080549050811015611c2e57611c0d8382610457565b15611c1b5780915050611c41565b8080611c2690612145565b915050611bf6565b506001600254611c3e9190612001565b90505b919050565b6000808281548110611c81577f4e487b7100000000000000000000000000000000000000000000000000000000600052603260045260246000fd5b9060005260206000209060060201600101549050919050565b6000611cad611ca884611fb5565b611f84565b905082815260208101848484011115611cc557600080fd5b611cd0848285612103565b509392505050565b600081359050611ce7816121fd565b92915050565b600082601f830112611cfe57600080fd5b8135611d0e848260208601611c9a565b91505092915050565b600081359050611d2681612214565b92915050565b600060208284031215611d3e57600080fd5b6000611d4c84828501611cd8565b91505092915050565b60008060408385031215611d6857600080fd5b6000611d7685828601611cd8565b9250506020611d8785828601611d17565b9150509250929050565b60008060408385031215611da457600080fd5b600083013567ffffffffffffffff811115611dbe57600080fd5b611dca85828601611ced565b9250506020611ddb85828601611d17565b9150509250929050565b600060208284031215611df757600080fd5b6000611e0584828501611d17565b91505092915050565b60008060408385031215611e2157600080fd5b6000611e2f85828601611d17565b9250506020611e4085828601611d17565b9150509250929050565b611e53816120b1565b82525050565b611e62816120c3565b82525050565b611e71816120cf565b82525050565b6000611e8282611fe5565b611e8c8185611ff0565b9350611e9c818560208601612112565b611ea5816121ec565b840191505092915050565b611eb9816120f9565b82525050565b6000602082019050611ed46000830184611e4a565b92915050565b6000604082019050611eef6000830185611e4a565b611efc6020830184611eb0565b9392505050565b6000602082019050611f186000830184611e59565b92915050565b6000602082019050611f336000830184611e68565b92915050565b6000602082019050611f4e6000830184611eb0565b92915050565b6000604082019050611f696000830185611eb0565b8181036020830152611f7b8184611e77565b90509392505050565b6000604051905081810181811067ffffffffffffffff82111715611fab57611faa6121bd565b5b8060405250919050565b600067ffffffffffffffff821115611fd057611fcf6121bd565b5b601f19601f8301169050602081019050919050565b600081519050919050565b600082825260208201905092915050565b600061200c826120f9565b9150612017836120f9565b9250827fffffffffffffffffffffffffffffffffffffffffffffffffffffffffffffffff0382111561204c5761204b61218e565b5b828201905092915050565b6000612062826120f9565b915061206d836120f9565b9250817fffffffffffffffffffffffffffffffffffffffffffffffffffffffffffffffff04831182151516156120a6576120a561218e565b5b828202905092915050565b60006120bc826120d9565b9050919050565b60008115159050919050565b6000819050919050565b600073ffffffffffffffffffffffffffffffffffffffff82169050919050565b6000819050919050565b82818337600083830152505050565b60005b83811015612130578082015181840152602081019050612115565b8381111561213f576000848401525b50505050565b6000612150826120f9565b91507fffffffffffffffffffffffffffffffffffffffffffffffffffffffffffffffff8214156121835761218261218e565b5b600182019050919050565b7f4e487b7100000000000000000000000000000000000000000000000000000000600052601160045260246000fd5b7f4e487b7100000000000000000000000000000000000000000000000000000000600052604160045260246000fd5b6000601f19601f8301169050919050565b612206816120b1565b811461221157600080fd5b50565b61221d816120f9565b811461222857600080fd5b5056fea264697066735822122012ac7ed93359c635014f7b40914afd35dc4b5f0a5dd08f2e361a4b6babd6ffe564736f6c63430008000033",
  "immutableReferences": {},
  "source": "//pragma solidity ^0.5.8;\npragma solidity ^0.8.0;\n\ncontract AuctionHouse {\n\n    struct Auction {\n        address owner;\n        uint endtime; \n        bool active; \n        bool sealed_auction; \n        address[] bidders;\n        mapping (address => uint) deposit;   \n        mapping (address => uint) bids;\n    }\n\n    Auction[] auctions;\n\n    // define variables\n    uint256 ether_var = 10**18;\n    uint256 max_num_contracts = 10**10;\n    uint256 interval = 7;\n    \n    // Log the event about a deposit being made by an address and its amount\n    event LogDepositMade(address indexed accountAddress, uint amount);\n    event Transfer(address indexed _from, address indexed _to, uint256 _value);\n\n    constructor() public payable{\n        // TODO: add something here\n    }\n\n    function hashSeriesNumber(string memory series, uint256 number) public pure returns (bytes32) {\n        // hash the value of a string and number \n        return keccak256(abi.encode(number, series));\n    }\n\n    function get_owner(uint idx) public view returns (address){\n        // returns the address of the owner for certain id \n        return auctions[idx].owner;\n    }\n\n    function is_owner(address add, uint idx) public view returns (bool){\n        if (add == auctions[idx].owner){\n            return true;\n        }\n        else{\n            return false;\n        }\n    }\n\n    function is_sealed(uint idx) public view returns (bool){\n        if (auctions[idx].sealed_auction == true){\n            return true;\n        }\n        else{\n            return false;\n        }\n    }\n\n    function get_id(address owner) public view returns (uint){\n        for (uint256 idx = 0; idx < auctions.length; idx++) {\n            if (is_owner(owner, idx)){\n                return idx;\n            }\n        }\n        return max_num_contracts+1; // TODO: larger value\n    }\n\n    function deploy_sealed_auction() public payable returns (uint){\n        // deploy a sealed auction\n        uint idx = auctions.length;\n        // check if maximum number of contracts is reached\n        if (idx < max_num_contracts){\n            auctions.push();\n            // define parameters\n            Auction storage new_auct = auctions[idx];\n            new_auct.endtime = block.number + interval;\n            new_auct.owner = msg.sender;\n            auctions[idx].sealed_auction = true;\n        }\n        return 0;\n    }\n\n    function deploy_open_auction() public payable returns (uint){\n        // deploy a open auction\n        uint idx = auctions.length;\n        // check if maximum number of contracts is reached\n        if (idx < max_num_contracts){\n            auctions.push();\n            // define parameters\n            Auction storage new_auct = auctions[idx];\n            new_auct.endtime = block.number + interval;\n            new_auct.owner = msg.sender;\n            auctions[idx].sealed_auction = false;\n        }\n        return 0;\n    }\n\n    function start_auction(uint idx) public payable {\n        //start the auction, setting timelimit, can only not be reactivated\n        if (msg.sender == auctions[idx].owner && auctions[idx].active == false){\n            auctions[idx].endtime = block.number + interval;\n            auctions[idx].active = true;\n        }\n    }\n\n    function deposit_money(uint idx) public payable returns (uint){\n        // Deposit money in order to be able to participate\n        auctions[idx].deposit[msg.sender] += msg.value;\n        auctions[idx].bidders.push(msg.sender);\n        return auctions[idx].deposit[msg.sender];\n    }\n\n    function get_deposit_balance(uint idx) public view returns (uint){\n        // gets the balances of bidders\n        return auctions[idx].deposit[msg.sender];\n    }\n\n    function set_bid(uint idx, uint bid_value) public {\n        // contract has to be active\n        if (auctions[idx].active){\n            // the owner can not bid\n            if (msg.sender != auctions[idx].owner){\n                // you can not bid if you have not deposit inital money (5 Ether)\n                if (auctions[idx].deposit[msg.sender]>=5*ether_var){\n                    // only accept bid if its higher than the previous bid\n                    if (bid_value > auctions[idx].bids[msg.sender]) {\n                        // only accept bid if in valid time period\n                        if (auctions[idx].endtime > create_timestamp()){\n                            if (auctions[idx].sealed_auction == true){\n                                string memory test = \"Test\";\n                                auctions[idx].bids[msg.sender] = uint256(hashSeriesNumber(test, bid_value));\n                            }\n                            else{\n                                auctions[idx].bids[msg.sender] = bid_value;\n                            }\n                            \n                        }\n                    }\n                }\n            }\n        }\n    }\n\n    function get_bid(uint idx) public view returns (uint){\n        // returns last/highest bid of bidder\n        return auctions[idx].bids[msg.sender];\n    }\n\n    function get_endtime(uint idx) public view returns (uint){\n        // returns the endtime\n        return auctions[idx].endtime;\n    }\n\n    function create_timestamp() public view returns (uint256){\n        // creates timestamp\n        return block.number;\n    }\n\n    function kill(uint idx) public{\n        // transfers back all deposts for auction id\n        require(msg.sender == auctions[idx].owner);\n        require(block.number > auctions[idx].endtime);\n        for (uint256 i = 0; i < auctions[idx].bidders.length; i++) {\n            address bidder = auctions[idx].bidders[i];\n            uint deposit = auctions[idx].deposit[auctions[idx].bidders[i]];\n            payable(bidder).transfer(deposit);\n            auctions[idx].deposit[auctions[idx].bidders[i]] = 0;\n        }\n    }    \n\n    function get_winner(uint idx) public view returns (address, uint) {\n        // gets the winner in an open price auction\n        require((auctions[idx].endtime < block.number));\n        require(auctions[idx].sealed_auction == false);\n        uint winning_bid=0;\n        address winner_address=get_owner(idx);\n        for (uint256 i = 0; i < auctions[idx].bidders.length; i++) {\n            address curr_bidder = auctions[idx].bidders[i];\n            if (auctions[idx].bids[curr_bidder] > winning_bid){\n                winning_bid = auctions[idx].bids[curr_bidder];\n                winner_address = curr_bidder;\n            }\n        }  \n        return (winner_address, winning_bid);\n    }\n\n    function refund_deposit(uint idx) public {\n        // refund the deposit if action is not active or if time is over\n        require(auctions[idx].active == false || auctions[idx].endtime < block.number);\n        payable(msg.sender).transfer(auctions[idx].deposit[msg.sender]);\n        auctions[idx].deposit[msg.sender] = 0;\n    }\n\n    \n\n}\n",
  "sourcePath": "/Users/yannickklose/Library/Mobile Documents/com~apple~CloudDocs/Documents/07 SoSe21/Blockchain Technolgies/BlockchainProject/contracts/AuctionHouse.sol",
  "compiler": {
    "name": "solc",
    "version": "0.8.0+commit.c7dfd78e.Emscripten.clang"
  },
  "schemaVersion": "3.4.0",
  "updatedAt": "2021-06-02T09:30:31.200Z",
  "devdoc": {
    "kind": "dev",
    "methods": {},
    "version": 1
  },
  "userdoc": {
    "kind": "user",
    "methods": {},
    "version": 1
  }
}