{
  "contractName": "AuctionHouse",
  "abi": [
    {
      "anonymous": false,
      "inputs": [
        {
          "indexed": true,
          "internalType": "address",
          "name": "owner",
          "type": "address"
        },
        {
          "indexed": false,
          "internalType": "uint256",
          "name": "idx",
          "type": "uint256"
        },
        {
          "indexed": false,
          "internalType": "uint256",
          "name": "identifier",
          "type": "uint256"
        },
        {
          "indexed": false,
          "internalType": "bool",
          "name": "sealed_auction",
          "type": "bool"
        }
      ],
      "name": "AuctionDeployed",
      "type": "event"
    },
    {
      "anonymous": false,
      "inputs": [
        {
          "indexed": true,
          "internalType": "address",
          "name": "sender",
          "type": "address"
        },
        {
          "indexed": true,
          "internalType": "uint256",
          "name": "idx",
          "type": "uint256"
        },
        {
          "indexed": true,
          "internalType": "uint256",
          "name": "blockNr",
          "type": "uint256"
        },
        {
          "indexed": false,
          "internalType": "uint256",
          "name": "value",
          "type": "uint256"
        }
      ],
      "name": "BidEvent",
      "type": "event"
    },
    {
      "anonymous": false,
      "inputs": [
        {
          "indexed": true,
          "internalType": "address",
          "name": "sender",
          "type": "address"
        },
        {
          "indexed": false,
          "internalType": "uint256",
          "name": "value",
          "type": "uint256"
        },
        {
          "indexed": false,
          "internalType": "uint256",
          "name": "idx",
          "type": "uint256"
        }
      ],
      "name": "DepositEvent",
      "type": "event"
    },
    {
      "inputs": [
        {
          "internalType": "uint256",
          "name": "",
          "type": "uint256"
        }
      ],
      "name": "auctions",
      "outputs": [
        {
          "internalType": "address",
          "name": "owner",
          "type": "address"
        },
        {
          "internalType": "uint256",
          "name": "auction_identifier",
          "type": "uint256"
        },
        {
          "internalType": "uint256",
          "name": "endtime",
          "type": "uint256"
        },
        {
          "internalType": "bool",
          "name": "active",
          "type": "bool"
        },
        {
          "internalType": "bool",
          "name": "sealed_auction",
          "type": "bool"
        }
      ],
      "stateMutability": "view",
      "type": "function",
      "constant": true
    },
    {
      "inputs": [
        {
          "internalType": "uint256",
          "name": "nonce",
          "type": "uint256"
        },
        {
          "internalType": "uint256",
          "name": "number",
          "type": "uint256"
        }
      ],
      "name": "hashSeriesNumber",
      "outputs": [
        {
          "internalType": "uint256",
          "name": "",
          "type": "uint256"
        }
      ],
      "stateMutability": "pure",
      "type": "function",
      "constant": true
    },
    {
      "inputs": [
        {
          "internalType": "uint256",
          "name": "idx",
          "type": "uint256"
        }
      ],
      "name": "get_owner",
      "outputs": [
        {
          "internalType": "address",
          "name": "",
          "type": "address"
        }
      ],
      "stateMutability": "view",
      "type": "function",
      "constant": true
    },
    {
      "inputs": [
        {
          "internalType": "address",
          "name": "addr",
          "type": "address"
        },
        {
          "internalType": "uint256",
          "name": "idx",
          "type": "uint256"
        }
      ],
      "name": "is_owner",
      "outputs": [
        {
          "internalType": "bool",
          "name": "",
          "type": "bool"
        }
      ],
      "stateMutability": "view",
      "type": "function",
      "constant": true
    },
    {
      "inputs": [
        {
          "internalType": "uint256",
          "name": "idx",
          "type": "uint256"
        }
      ],
      "name": "is_sealed",
      "outputs": [
        {
          "internalType": "bool",
          "name": "",
          "type": "bool"
        }
      ],
      "stateMutability": "view",
      "type": "function",
      "constant": true
    },
    {
      "inputs": [
        {
          "internalType": "uint256",
          "name": "identifier",
          "type": "uint256"
        }
      ],
      "name": "get_idx_from_identifier",
      "outputs": [
        {
          "internalType": "uint256",
          "name": "",
          "type": "uint256"
        }
      ],
      "stateMutability": "view",
      "type": "function",
      "constant": true
    },
    {
      "inputs": [
        {
          "internalType": "uint256",
          "name": "identifier",
          "type": "uint256"
        }
      ],
      "name": "identifier_is_unused",
      "outputs": [
        {
          "internalType": "bool",
          "name": "",
          "type": "bool"
        }
      ],
      "stateMutability": "view",
      "type": "function",
      "constant": true
    },
    {
      "inputs": [],
      "name": "get_number_of_auctions",
      "outputs": [
        {
          "internalType": "uint256",
          "name": "",
          "type": "uint256"
        }
      ],
      "stateMutability": "view",
      "type": "function",
      "constant": true
    },
    {
      "inputs": [
        {
          "internalType": "uint256",
          "name": "identifier",
          "type": "uint256"
        },
        {
          "internalType": "bool",
          "name": "type_sealed",
          "type": "bool"
        }
      ],
      "name": "deploy_auction",
      "outputs": [],
      "stateMutability": "payable",
      "type": "function",
      "payable": true
    },
    {
      "inputs": [
        {
          "internalType": "uint256",
          "name": "idx",
          "type": "uint256"
        }
      ],
      "name": "start_auction",
      "outputs": [],
      "stateMutability": "payable",
      "type": "function",
      "payable": true
    },
    {
      "inputs": [
        {
          "internalType": "uint256",
          "name": "idx",
          "type": "uint256"
        }
      ],
      "name": "deposit_money",
      "outputs": [
        {
          "internalType": "uint256",
          "name": "",
          "type": "uint256"
        }
      ],
      "stateMutability": "payable",
      "type": "function",
      "payable": true
    },
    {
      "inputs": [
        {
          "internalType": "uint256",
          "name": "idx",
          "type": "uint256"
        }
      ],
      "name": "get_deposit_balance",
      "outputs": [
        {
          "internalType": "uint256",
          "name": "",
          "type": "uint256"
        }
      ],
      "stateMutability": "view",
      "type": "function",
      "constant": true
    },
    {
      "inputs": [
        {
          "internalType": "uint256",
          "name": "idx",
          "type": "uint256"
        },
        {
          "internalType": "uint256",
          "name": "bid_value",
          "type": "uint256"
        }
      ],
      "name": "set_bid",
      "outputs": [],
      "stateMutability": "nonpayable",
      "type": "function"
    },
    {
      "inputs": [
        {
          "internalType": "uint256",
          "name": "idx",
          "type": "uint256"
        }
      ],
      "name": "get_bid",
      "outputs": [
        {
          "internalType": "uint256",
          "name": "",
          "type": "uint256"
        }
      ],
      "stateMutability": "view",
      "type": "function",
      "constant": true
    },
    {
      "inputs": [
        {
          "internalType": "uint256",
          "name": "idx",
          "type": "uint256"
        }
      ],
      "name": "get_highest_bid",
      "outputs": [
        {
          "internalType": "uint256",
          "name": "",
          "type": "uint256"
        }
      ],
      "stateMutability": "view",
      "type": "function",
      "constant": true
    },
    {
      "inputs": [
        {
          "internalType": "uint256",
          "name": "idx",
          "type": "uint256"
        }
      ],
      "name": "get_endtime",
      "outputs": [
        {
          "internalType": "uint256",
          "name": "",
          "type": "uint256"
        }
      ],
      "stateMutability": "view",
      "type": "function",
      "constant": true
    },
    {
      "inputs": [],
      "name": "create_timestamp",
      "outputs": [
        {
          "internalType": "uint256",
          "name": "",
          "type": "uint256"
        }
      ],
      "stateMutability": "view",
      "type": "function",
      "constant": true
    },
    {
      "inputs": [
        {
          "internalType": "uint256",
          "name": "idx",
          "type": "uint256"
        }
      ],
      "name": "kill",
      "outputs": [],
      "stateMutability": "nonpayable",
      "type": "function"
    },
    {
      "inputs": [
        {
          "internalType": "uint256",
          "name": "idx",
          "type": "uint256"
        }
      ],
      "name": "get_winner",
      "outputs": [
        {
          "internalType": "address",
          "name": "winner",
          "type": "address"
        },
        {
          "internalType": "uint256",
          "name": "bid",
          "type": "uint256"
        }
      ],
      "stateMutability": "view",
      "type": "function",
      "constant": true
    },
    {
      "inputs": [
        {
          "internalType": "uint256",
          "name": "idx",
          "type": "uint256"
        }
      ],
      "name": "refund_deposit",
      "outputs": [],
      "stateMutability": "nonpayable",
      "type": "function"
    }
  ],
  "bytecode": "0x6080604052600360015534801561001557600080fd5b506131a6806100256000396000f3fe60806040526004361061011f5760003560e01c806372205875116100a0578063a092c50411610064578063a092c5041461042e578063ce4339b71461046b578063d29a0025146104a8578063e9117d89146104d1578063f458de9e146105015761011f565b806372205875146103445780637a2994eb146103815780637a31ee4f146103aa578063841af859146103d5578063970e2ba6146104125761011f565b806344375fc7116100e757806344375fc714610230578063468298d41461024c578063571a26a01461028957806363160336146102ca578063686cfd29146103075761011f565b8063051a00d3146101245780630802ca28146101615780631c733acf1461018a578063243dc409146101c75780633ea3ff9314610205575b600080fd5b34801561013057600080fd5b5061014b600480360381019061014691906124fa565b61053e565b6040516101589190612d64565b60405180910390f35b34801561016d57600080fd5b506101886004803603810190610183919061259b565b6105f2565b005b34801561019657600080fd5b506101b160048036038101906101ac9190612536565b610b6f565b6040516101be9190612f7f565b60405180910390f35b3480156101d357600080fd5b506101ee60048036038101906101e99190612536565b610e54565b6040516101fc929190612ce8565b60405180910390f35b34801561021157600080fd5b5061021a6111dd565b6040516102279190612f7f565b60405180910390f35b61024a60048036038101906102459190612536565b6111e5565b005b34801561025857600080fd5b50610273600480360381019061026e9190612536565b611421565b6040516102809190612d64565b60405180910390f35b34801561029557600080fd5b506102b060048036038101906102ab9190612536565b61149b565b6040516102c1959493929190612d11565b60405180910390f35b3480156102d657600080fd5b506102f160048036038101906102ec9190612536565b61151b565b6040516102fe9190612d64565b60405180910390f35b34801561031357600080fd5b5061032e6004803603810190610329919061259b565b6115ab565b60405161033b9190612f7f565b60405180910390f35b34801561035057600080fd5b5061036b60048036038101906103669190612536565b6115e1565b6040516103789190612ccd565b60405180910390f35b34801561038d57600080fd5b506103a860048036038101906103a39190612536565b611655565b005b3480156103b657600080fd5b506103bf611972565b6040516103cc9190612f7f565b60405180910390f35b3480156103e157600080fd5b506103fc60048036038101906103f79190612536565b61197e565b6040516104099190612f7f565b60405180910390f35b61042c6004803603810190610427919061255f565b611a53565b005b34801561043a57600080fd5b5061045560048036038101906104509190612536565b611bd7565b6040516104629190612f7f565b60405180910390f35b34801561047757600080fd5b50610492600480360381019061048d9190612536565b611c68565b60405161049f9190612f7f565b60405180910390f35b3480156104b457600080fd5b506104cf60048036038101906104ca9190612536565b611cf9565b005b6104eb60048036038101906104e69190612536565b61223a565b6040516104f89190612f7f565b60405180910390f35b34801561050d57600080fd5b5061052860048036038101906105239190612536565b612467565b6040516105359190612f7f565b60405180910390f35b6000808281548110610579577f4e487b7100000000000000000000000000000000000000000000000000000000600052603260045260246000fd5b906000526020600020906007020160000160009054906101000a900473ffffffffffffffffffffffffffffffffffffffff1673ffffffffffffffffffffffffffffffffffffffff168373ffffffffffffffffffffffffffffffffffffffff1614156105e757600190506105ec565b600090505b92915050565b6000828154811061062c577f4e487b7100000000000000000000000000000000000000000000000000000000600052603260045260246000fd5b906000526020600020906007020160030160009054906101000a900460ff1661068a576040517f08c379a000000000000000000000000000000000000000000000000000000000815260040161068190612e9f565b60405180910390fd5b600082815481106106c4577f4e487b7100000000000000000000000000000000000000000000000000000000600052603260045260246000fd5b906000526020600020906007020160000160009054906101000a900473ffffffffffffffffffffffffffffffffffffffff1673ffffffffffffffffffffffffffffffffffffffff163373ffffffffffffffffffffffffffffffffffffffff161415610764576040517f08c379a000000000000000000000000000000000000000000000000000000000815260040161075b90612e7f565b60405180910390fd5b674563918244f40000600083815481106107a7577f4e487b7100000000000000000000000000000000000000000000000000000000600052603260045260246000fd5b906000526020600020906007020160050160003373ffffffffffffffffffffffffffffffffffffffff1673ffffffffffffffffffffffffffffffffffffffff168152602001908152602001600020541015610837576040517f08c379a000000000000000000000000000000000000000000000000000000000815260040161082e90612f3f565b60405180910390fd5b61083f6111dd565b60008381548110610879577f4e487b7100000000000000000000000000000000000000000000000000000000600052603260045260246000fd5b90600052602060002090600702016002015410156108cc576040517f08c379a00000000000000000000000000000000000000000000000000000000081526004016108c390612ebf565b60405180910390fd5b600115156000838154811061090a577f4e487b7100000000000000000000000000000000000000000000000000000000600052603260045260246000fd5b906000526020600020906007020160030160019054906101000a900460ff16151514156109c357806000838154811061096c577f4e487b7100000000000000000000000000000000000000000000000000000000600052603260045260246000fd5b906000526020600020906007020160060160003373ffffffffffffffffffffffffffffffffffffffff1673ffffffffffffffffffffffffffffffffffffffff16815260200190815260200160002081905550610b1b565b600082815481106109fd577f4e487b7100000000000000000000000000000000000000000000000000000000600052603260045260246000fd5b906000526020600020906007020160060160003373ffffffffffffffffffffffffffffffffffffffff1673ffffffffffffffffffffffffffffffffffffffff168152602001908152602001600020548111610a8d576040517f08c379a0000000000000000000000000000000000000000000000000000000008152600401610a8490612dff565b60405180910390fd5b8060008381548110610ac8577f4e487b7100000000000000000000000000000000000000000000000000000000600052603260045260246000fd5b906000526020600020906007020160060160003373ffffffffffffffffffffffffffffffffffffffff1673ffffffffffffffffffffffffffffffffffffffff168152602001908152602001600020819055505b43823373ffffffffffffffffffffffffffffffffffffffff167fc17b1d2fac2243aa836e914be7fcd693b7e5e91f1f1a1e425ab805d50184159a84604051610b639190612f7f565b60405180910390a45050565b600080151560008381548110610bae577f4e487b7100000000000000000000000000000000000000000000000000000000600052603260045260246000fd5b906000526020600020906007020160030160019054906101000a900460ff16151514610c0f576040517f08c379a0000000000000000000000000000000000000000000000000000000008152600401610c0690612ddf565b60405180910390fd5b6000805b60008481548110610c4d577f4e487b7100000000000000000000000000000000000000000000000000000000600052603260045260246000fd5b906000526020600020906007020160040180549050811015610e4a576000808581548110610ca4577f4e487b7100000000000000000000000000000000000000000000000000000000600052603260045260246000fd5b90600052602060002090600702016004018281548110610ced577f4e487b7100000000000000000000000000000000000000000000000000000000600052603260045260246000fd5b9060005260206000200160009054906101000a900473ffffffffffffffffffffffffffffffffffffffff1690508260008681548110610d55577f4e487b7100000000000000000000000000000000000000000000000000000000600052603260045260246000fd5b906000526020600020906007020160060160008373ffffffffffffffffffffffffffffffffffffffff1673ffffffffffffffffffffffffffffffffffffffff168152602001908152602001600020541115610e365760008581548110610de4577f4e487b7100000000000000000000000000000000000000000000000000000000600052603260045260246000fd5b906000526020600020906007020160060160008273ffffffffffffffffffffffffffffffffffffffff1673ffffffffffffffffffffffffffffffffffffffff1681526020019081526020016000205492505b508080610e42906130a9565b915050610c13565b5080915050919050565b6000804360008481548110610e92577f4e487b7100000000000000000000000000000000000000000000000000000000600052603260045260246000fd5b9060005260206000209060070201600201541115610ee5576040517f08c379a0000000000000000000000000000000000000000000000000000000008152600401610edc90612edf565b60405180910390fd5b6000151560008481548110610f23577f4e487b7100000000000000000000000000000000000000000000000000000000600052603260045260246000fd5b906000526020600020906007020160030160019054906101000a900460ff16151514610f84576040517f08c379a0000000000000000000000000000000000000000000000000000000008152600401610f7b90612f1f565b60405180910390fd5b600080610f90856115e1565b905060005b60008681548110610fcf577f4e487b7100000000000000000000000000000000000000000000000000000000600052603260045260246000fd5b9060005260206000209060070201600401805490508110156111cf576000808781548110611026577f4e487b7100000000000000000000000000000000000000000000000000000000600052603260045260246000fd5b9060005260206000209060070201600401828154811061106f577f4e487b7100000000000000000000000000000000000000000000000000000000600052603260045260246000fd5b9060005260206000200160009054906101000a900473ffffffffffffffffffffffffffffffffffffffff16905083600088815481106110d7577f4e487b7100000000000000000000000000000000000000000000000000000000600052603260045260246000fd5b906000526020600020906007020160060160008373ffffffffffffffffffffffffffffffffffffffff1673ffffffffffffffffffffffffffffffffffffffff1681526020019081526020016000205411156111bb5760008781548110611166577f4e487b7100000000000000000000000000000000000000000000000000000000600052603260045260246000fd5b906000526020600020906007020160060160008273ffffffffffffffffffffffffffffffffffffffff1673ffffffffffffffffffffffffffffffffffffffff1681526020019081526020016000205493508092505b5080806111c7906130a9565b915050610f95565b508082935093505050915091565b600043905090565b6000818154811061121f577f4e487b7100000000000000000000000000000000000000000000000000000000600052603260045260246000fd5b906000526020600020906007020160000160009054906101000a900473ffffffffffffffffffffffffffffffffffffffff1673ffffffffffffffffffffffffffffffffffffffff163373ffffffffffffffffffffffffffffffffffffffff16146112be576040517f08c379a00000000000000000000000000000000000000000000000000000000081526004016112b590612d9f565b60405180910390fd5b60001515600082815481106112fc577f4e487b7100000000000000000000000000000000000000000000000000000000600052603260045260246000fd5b906000526020600020906007020160030160009054906101000a900460ff1615151461135d576040517f08c379a000000000000000000000000000000000000000000000000000000000815260040161135490612dbf565b60405180910390fd5b6001544361136b919061300b565b600082815481106113a5577f4e487b7100000000000000000000000000000000000000000000000000000000600052603260045260246000fd5b9060005260206000209060070201600201819055506001600082815481106113f6577f4e487b7100000000000000000000000000000000000000000000000000000000600052603260045260246000fd5b906000526020600020906007020160030160006101000a81548160ff02191690831515021790555050565b60006001151560008381548110611461577f4e487b7100000000000000000000000000000000000000000000000000000000600052603260045260246000fd5b906000526020600020906007020160030160019054906101000a900460ff16151514156114915760019050611496565b600090505b919050565b600081815481106114ab57600080fd5b90600052602060002090600702016000915090508060000160009054906101000a900473ffffffffffffffffffffffffffffffffffffffff16908060010154908060020154908060030160009054906101000a900460ff16908060030160019054906101000a900460ff16905085565b600080600090505b6000805490508110156115a057826000828154811061156b577f4e487b7100000000000000000000000000000000000000000000000000000000600052603260045260246000fd5b906000526020600020906007020160010154141561158d5760009150506115a6565b8080611598906130a9565b915050611523565b50600190505b919050565b600081836040516020016115c0929190612ca1565b6040516020818303038152906040528051906020012060001c905092915050565b600080828154811061161c577f4e487b7100000000000000000000000000000000000000000000000000000000600052603260045260246000fd5b906000526020600020906007020160000160009054906101000a900473ffffffffffffffffffffffffffffffffffffffff169050919050565b6000808281548110611690577f4e487b7100000000000000000000000000000000000000000000000000000000600052603260045260246000fd5b906000526020600020906007020160050160003373ffffffffffffffffffffffffffffffffffffffff1673ffffffffffffffffffffffffffffffffffffffff168152602001908152602001600020541161171f576040517f08c379a000000000000000000000000000000000000000000000000000000000815260040161171690612e3f565b60405180910390fd5b600015156000828154811061175d577f4e487b7100000000000000000000000000000000000000000000000000000000600052603260045260246000fd5b906000526020600020906007020160030160009054906101000a900460ff16151514806117d4575043600082815481106117c0577f4e487b7100000000000000000000000000000000000000000000000000000000600052603260045260246000fd5b906000526020600020906007020160020154105b611813576040517f08c379a000000000000000000000000000000000000000000000000000000000815260040161180a90612e1f565b60405180910390fd5b3373ffffffffffffffffffffffffffffffffffffffff166108fc60008381548110611867577f4e487b7100000000000000000000000000000000000000000000000000000000600052603260045260246000fd5b906000526020600020906007020160050160003373ffffffffffffffffffffffffffffffffffffffff1673ffffffffffffffffffffffffffffffffffffffff168152602001908152602001600020549081150290604051600060405180830381858888f193505050501580156118e1573d6000803e3d6000fd5b50600080828154811061191d577f4e487b7100000000000000000000000000000000000000000000000000000000600052603260045260246000fd5b906000526020600020906007020160050160003373ffffffffffffffffffffffffffffffffffffffff1673ffffffffffffffffffffffffffffffffffffffff1681526020019081526020016000208190555050565b60008080549050905090565b60006119898261151b565b156119c9576040517f08c379a00000000000000000000000000000000000000000000000000000000081526004016119c090612e5f565b60405180910390fd5b60005b600080549050811015611a48578260008281548110611a14577f4e487b7100000000000000000000000000000000000000000000000000000000600052603260045260246000fd5b9060005260206000209060070201600101541415611a355780915050611a4e565b8080611a40906130a9565b9150506119cc565b50600090505b919050565b611a5c8261151b565b611a9b576040517f08c379a0000000000000000000000000000000000000000000000000000000008152600401611a9290612f5f565b60405180910390fd5b6000808054905090506000600181600181540180825580915050039060005260206000209050506000808281548110611afd577f4e487b7100000000000000000000000000000000000000000000000000000000600052603260045260246000fd5b9060005260206000209060070201905060008160020181905550338160000160006101000a81548173ffffffffffffffffffffffffffffffffffffffff021916908373ffffffffffffffffffffffffffffffffffffffff160217905550828160030160016101000a81548160ff0219169083151502179055508381600101819055503373ffffffffffffffffffffffffffffffffffffffff167ff04b9fd96031702b939d571a81acc9c809b2376063fcbc6afd6f75af5ed13922838686604051611bc993929190612fc3565b60405180910390a250505050565b6000808281548110611c12577f4e487b7100000000000000000000000000000000000000000000000000000000600052603260045260246000fd5b906000526020600020906007020160050160003373ffffffffffffffffffffffffffffffffffffffff1673ffffffffffffffffffffffffffffffffffffffff168152602001908152602001600020549050919050565b6000808281548110611ca3577f4e487b7100000000000000000000000000000000000000000000000000000000600052603260045260246000fd5b906000526020600020906007020160060160003373ffffffffffffffffffffffffffffffffffffffff1673ffffffffffffffffffffffffffffffffffffffff168152602001908152602001600020549050919050565b60008181548110611d33577f4e487b7100000000000000000000000000000000000000000000000000000000600052603260045260246000fd5b906000526020600020906007020160000160009054906101000a900473ffffffffffffffffffffffffffffffffffffffff1673ffffffffffffffffffffffffffffffffffffffff163373ffffffffffffffffffffffffffffffffffffffff1614611dd2576040517f08c379a0000000000000000000000000000000000000000000000000000000008152600401611dc990612eff565b60405180910390fd5b60008181548110611e0c577f4e487b7100000000000000000000000000000000000000000000000000000000600052603260045260246000fd5b9060005260206000209060070201600201544311611e5f576040517f08c379a0000000000000000000000000000000000000000000000000000000008152600401611e5690612d7f565b60405180910390fd5b60005b60008281548110611e9c577f4e487b7100000000000000000000000000000000000000000000000000000000600052603260045260246000fd5b906000526020600020906007020160040180549050811015612236576000808381548110611ef3577f4e487b7100000000000000000000000000000000000000000000000000000000600052603260045260246000fd5b90600052602060002090600702016004018281548110611f3c577f4e487b7100000000000000000000000000000000000000000000000000000000600052603260045260246000fd5b9060005260206000200160009054906101000a900473ffffffffffffffffffffffffffffffffffffffff1690506000808481548110611fa4577f4e487b7100000000000000000000000000000000000000000000000000000000600052603260045260246000fd5b90600052602060002090600702016005016000808681548110611ff0577f4e487b7100000000000000000000000000000000000000000000000000000000600052603260045260246000fd5b90600052602060002090600702016004018581548110612039577f4e487b7100000000000000000000000000000000000000000000000000000000600052603260045260246000fd5b9060005260206000200160009054906101000a900473ffffffffffffffffffffffffffffffffffffffff1673ffffffffffffffffffffffffffffffffffffffff1673ffffffffffffffffffffffffffffffffffffffff1681526020019081526020016000205490508173ffffffffffffffffffffffffffffffffffffffff166108fc829081150290604051600060405180830381858888f193505050501580156120e7573d6000803e3d6000fd5b506000808581548110612123577f4e487b7100000000000000000000000000000000000000000000000000000000600052603260045260246000fd5b9060005260206000209060070201600501600080878154811061216f577f4e487b7100000000000000000000000000000000000000000000000000000000600052603260045260246000fd5b906000526020600020906007020160040186815481106121b8577f4e487b7100000000000000000000000000000000000000000000000000000000600052603260045260246000fd5b9060005260206000200160009054906101000a900473ffffffffffffffffffffffffffffffffffffffff1673ffffffffffffffffffffffffffffffffffffffff1673ffffffffffffffffffffffffffffffffffffffff168152602001908152602001600020819055505050808061222e906130a9565b915050611e62565b5050565b60003460008381548110612277577f4e487b7100000000000000000000000000000000000000000000000000000000600052603260045260246000fd5b906000526020600020906007020160050160003373ffffffffffffffffffffffffffffffffffffffff1673ffffffffffffffffffffffffffffffffffffffff16815260200190815260200160002060008282546122d4919061300b565b9250508190555060008281548110612315577f4e487b7100000000000000000000000000000000000000000000000000000000600052603260045260246000fd5b9060005260206000209060070201600401339080600181540180825580915050600190039060005260206000200160009091909190916101000a81548173ffffffffffffffffffffffffffffffffffffffff021916908373ffffffffffffffffffffffffffffffffffffffff1602179055503373ffffffffffffffffffffffffffffffffffffffff167fad40ae5dc69974ba932d08b0a608e89109412d41d04850f5196f144875ae266034846040516123cf929190612f9a565b60405180910390a260008281548110612411577f4e487b7100000000000000000000000000000000000000000000000000000000600052603260045260246000fd5b906000526020600020906007020160050160003373ffffffffffffffffffffffffffffffffffffffff1673ffffffffffffffffffffffffffffffffffffffff168152602001908152602001600020549050919050565b60008082815481106124a2577f4e487b7100000000000000000000000000000000000000000000000000000000600052603260045260246000fd5b9060005260206000209060070201600201549050919050565b6000813590506124ca8161312b565b92915050565b6000813590506124df81613142565b92915050565b6000813590506124f481613159565b92915050565b6000806040838503121561250d57600080fd5b600061251b858286016124bb565b925050602061252c858286016124e5565b9150509250929050565b60006020828403121561254857600080fd5b6000612556848285016124e5565b91505092915050565b6000806040838503121561257257600080fd5b6000612580858286016124e5565b9250506020612591858286016124d0565b9150509250929050565b600080604083850312156125ae57600080fd5b60006125bc858286016124e5565b92505060206125cd858286016124e5565b9150509250929050565b6125e081613061565b82525050565b6125ef81613073565b82525050565b6000612602603a83612ffa565b91507f4552524f523a205468652061756374696f6e2063616e206f6e6c79206265206b60008301527f696c6c6564207768656e2061756374696f6e206973206f7665720000000000006020830152604082019050919050565b6000612668602b83612ffa565b91507f4552524f523a204f6e6c7920746865206f776e65722063616e2073746172742060008301527f7468652061756374696f6e0000000000000000000000000000000000000000006020830152604082019050919050565b60006126ce602b83612ffa565b91507f4552524f523a205468652061756374696f6e2063616e206f6e6c79206265207360008301527f746172746564206f6e63650000000000000000000000000000000000000000006020830152604082019050919050565b6000612734603983612ffa565b91507f4552524f523a206765742068696768657374206269642063616e206f6e6c792060008301527f62652063616c6c6564206f6e206f70656e2061756374696f6e000000000000006020830152604082019050919050565b600061279a603f83612ffa565b91507f4552524f523a2042696473206861766520746f2062652068696768657220746860008301527f616e2070726576696f7573206269647320286f70656e2061756374696f6e29006020830152604082019050919050565b6000612800605b83612ffa565b91507f4552524f523a20526566756e64206973206f6e6c7920706f737369626c65206160008301527f66746572207468652061756374696f6e206973206f766572206f72206265666f60208301527f7265207468652061756374696f6e2068617320737461727465642e00000000006040830152606082019050919050565b600061288c602b83612ffa565b91507f4552524f523a205468652053656e64657220646f6573206e6f7420686176652060008301527f616e79206465706f7369740000000000000000000000000000000000000000006020830152604082019050919050565b60006128f2602083612ffa565b91507f4552524f523a204964656e74696669657220646f6573206e6f742065786973746000830152602082019050919050565b6000612932602f83612ffa565b91507f4552524f523a20546865206f776e65722063616e206e6f7420626964206f6e2060008301527f6869732f6865722061756374696f6e00000000000000000000000000000000006020830152604082019050919050565b6000612998602d83612ffa565b91507f4552524f523a205468652061756374696f6e2068617320746f2062652073746160008301527f72746564202861637469766529000000000000000000000000000000000000006020830152604082019050919050565b60006129fe603483612ffa565b91507f4552524f523a2041756374696f6e20697320616c7265616479206f766572202860008301527f426c6f636b206c696d69742072656163686564290000000000000000000000006020830152604082019050919050565b6000612a64603983612ffa565b91507f4552524f523a204765742077696e6e65722063616e206f6e6c7920626520636160008301527f6c6c6564207768656e2061756374696f6e206973206f766572000000000000006020830152604082019050919050565b6000612aca602b83612ffa565b91507f4552524f523a204f6e6c7920746865206f776e65722063616e206b696c6c207460008301527f68652061756374696f6e2e0000000000000000000000000000000000000000006020830152604082019050919050565b6000612b30604383612ffa565b91507f4552524f523a205468652066756e6374696f6e206765742077696e6e6572206360008301527f616e206f6e6c792062652063616c6c6564206f6e206f70656e2061756374696f60208301527f6e732e00000000000000000000000000000000000000000000000000000000006040830152606082019050919050565b6000612bbc602d83612ffa565b91507f4552524f523a204465706f736974206973206e6f7420656e6f7567682028617460008301527f206c6561737420352045544829000000000000000000000000000000000000006020830152604082019050919050565b6000612c22602183612ffa565b91507f4552524f523a204964656e74696669657220697320616c72656164792075736560008301527f64000000000000000000000000000000000000000000000000000000000000006020830152604082019050919050565b612c848161309f565b82525050565b612c9b612c968261309f565b6130f2565b82525050565b6000612cad8285612c8a565b602082019150612cbd8284612c8a565b6020820191508190509392505050565b6000602082019050612ce260008301846125d7565b92915050565b6000604082019050612cfd60008301856125d7565b612d0a6020830184612c7b565b9392505050565b600060a082019050612d2660008301886125d7565b612d336020830187612c7b565b612d406040830186612c7b565b612d4d60608301856125e6565b612d5a60808301846125e6565b9695505050505050565b6000602082019050612d7960008301846125e6565b92915050565b60006020820190508181036000830152612d98816125f5565b9050919050565b60006020820190508181036000830152612db88161265b565b9050919050565b60006020820190508181036000830152612dd8816126c1565b9050919050565b60006020820190508181036000830152612df881612727565b9050919050565b60006020820190508181036000830152612e188161278d565b9050919050565b60006020820190508181036000830152612e38816127f3565b9050919050565b60006020820190508181036000830152612e588161287f565b9050919050565b60006020820190508181036000830152612e78816128e5565b9050919050565b60006020820190508181036000830152612e9881612925565b9050919050565b60006020820190508181036000830152612eb88161298b565b9050919050565b60006020820190508181036000830152612ed8816129f1565b9050919050565b60006020820190508181036000830152612ef881612a57565b9050919050565b60006020820190508181036000830152612f1881612abd565b9050919050565b60006020820190508181036000830152612f3881612b23565b9050919050565b60006020820190508181036000830152612f5881612baf565b9050919050565b60006020820190508181036000830152612f7881612c15565b9050919050565b6000602082019050612f946000830184612c7b565b92915050565b6000604082019050612faf6000830185612c7b565b612fbc6020830184612c7b565b9392505050565b6000606082019050612fd86000830186612c7b565b612fe56020830185612c7b565b612ff260408301846125e6565b949350505050565b600082825260208201905092915050565b60006130168261309f565b91506130218361309f565b9250827fffffffffffffffffffffffffffffffffffffffffffffffffffffffffffffffff03821115613056576130556130fc565b5b828201905092915050565b600061306c8261307f565b9050919050565b60008115159050919050565b600073ffffffffffffffffffffffffffffffffffffffff82169050919050565b6000819050919050565b60006130b48261309f565b91507fffffffffffffffffffffffffffffffffffffffffffffffffffffffffffffffff8214156130e7576130e66130fc565b5b600182019050919050565b6000819050919050565b7f4e487b7100000000000000000000000000000000000000000000000000000000600052601160045260246000fd5b61313481613061565b811461313f57600080fd5b50565b61314b81613073565b811461315657600080fd5b50565b6131628161309f565b811461316d57600080fd5b5056fea2646970667358221220258b8ad395c96c7a255ce7c8d2ece87f35fa5b45d9c69be08373ca016fae404464736f6c63430008000033",
  "immutableReferences": {},
  "source": "// SPDX-License-Identifier: MIT\r\npragma solidity ^0.8.0;\r\n\r\ncontract AuctionHouse {\r\n\r\n    struct Auction {\r\n        address owner;\r\n        uint auction_identifier;\r\n        uint endtime; \r\n        bool active; \r\n        bool sealed_auction; \r\n        address[] bidders;\r\n        mapping (address => uint) deposit;   \r\n        mapping (address => uint) bids;\r\n    }\r\n\r\n    Auction[] public auctions;\r\n\r\n    uint256 interval = 3; \r\n    \r\n    // define events\r\n    event DepositEvent(address indexed sender, uint value, uint256 idx);\r\n    event AuctionDeployed(address indexed owner, uint256 idx, uint256 identifier, bool sealed_auction);\r\n    event BidEvent(address indexed sender, uint256 indexed idx, uint indexed blockNr, uint value);\r\n\r\n    function hashSeriesNumber(uint256 nonce, uint256 number) public pure returns (uint) {\r\n        // hash the value of a string and number \r\n        return uint256(keccak256(abi.encodePacked(number, nonce)));\r\n    }\r\n\r\n    function get_owner(uint idx) public view returns (address){\r\n        // returns the address of the owner for certain id \r\n        return auctions[idx].owner;\r\n    }\r\n\r\n    function is_owner(address addr, uint idx) public view returns (bool){\r\n        // returns true/false of an address with idx\r\n        if (addr == auctions[idx].owner){\r\n            return true;\r\n        }\r\n        else{\r\n            return false;\r\n        }\r\n    }\r\n\r\n    function is_sealed(uint idx) public view returns (bool){\r\n        // returns true/false if the auction is sealed\r\n        if (auctions[idx].sealed_auction == true){\r\n            return true;\r\n        }\r\n        else{\r\n            return false;\r\n        }\r\n    }\r\n\r\n    function get_idx_from_identifier(uint identifier) public view returns (uint){\r\n        // get the id of an auction given an identifier\r\n        require(!identifier_is_unused(identifier), \"ERROR: Identifier does not exist\");\r\n        for (uint256 idx = 0; idx < auctions.length; idx++) {\r\n            if (auctions[idx].auction_identifier == identifier){\r\n                return idx;\r\n            }\r\n        }\r\n        return 0;\r\n    }\r\n\r\n    function identifier_is_unused(uint identifier) public view returns (bool){\r\n        // check if the identifier is already in use\r\n        for (uint256 idx = 0; idx < auctions.length; idx++) {\r\n            if (auctions[idx].auction_identifier == identifier){\r\n                return false;\r\n            }\r\n        }\r\n        return true;\r\n    }\r\n\r\n    function get_number_of_auctions() public view returns (uint){\r\n        // returns the number of auctions\r\n        return auctions.length;\r\n    }\r\n\r\n    function deploy_auction(uint identifier, bool type_sealed) public payable{\r\n        // deploys an auction\r\n        require(identifier_is_unused(identifier), \"ERROR: Identifier is already used\");\r\n        uint idx = auctions.length;\r\n        auctions.push();\r\n        Auction storage new_auct = auctions[idx];\r\n        // Changed by Max\r\n        new_auct.endtime = 0;\r\n        new_auct.owner = msg.sender;\r\n        new_auct.sealed_auction = type_sealed;\r\n        new_auct.auction_identifier = identifier;\r\n        emit AuctionDeployed(msg.sender, idx, identifier, type_sealed);\r\n    }\r\n\r\n    function start_auction(uint idx) public payable {\r\n        // start the auction, setting timelimit, can only not be reactivated\r\n        require(msg.sender == auctions[idx].owner, \"ERROR: Only the owner can start the auction\");\r\n        require(auctions[idx].active == false, \"ERROR: The auction can only be started once\");\r\n        auctions[idx].endtime = block.number + interval;\r\n        auctions[idx].active = true;\r\n        \r\n    }\r\n\r\n    function deposit_money(uint idx) public payable returns (uint){\r\n        // Deposit money in order to be able to participate\r\n        auctions[idx].deposit[msg.sender] += msg.value;\r\n        auctions[idx].bidders.push(msg.sender);\r\n        emit DepositEvent(msg.sender, msg.value, idx);\r\n        return auctions[idx].deposit[msg.sender];\r\n    }\r\n\r\n    function get_deposit_balance(uint idx) public view returns (uint){\r\n        // gets the balances of bidders\r\n        return auctions[idx].deposit[msg.sender];\r\n    }\r\n\r\n    function set_bid(uint idx, uint bid_value) public {\r\n        // sets the bid, requirements have to be fulfilled \r\n        require(auctions[idx].active, \"ERROR: The auction has to be started (active)\");\r\n        require(msg.sender != auctions[idx].owner, \"ERROR: The owner can not bid on his/her auction\");\r\n        require(auctions[idx].deposit[msg.sender]>=5 ether, \"ERROR: Deposit is not enough (at least 5 ETH)\");\r\n        require(auctions[idx].endtime >= create_timestamp(), \"ERROR: Auction is already over (Block limit reached)\");\r\n\r\n        if (auctions[idx].sealed_auction == true){\r\n            auctions[idx].bids[msg.sender] = bid_value;\r\n        }\r\n        else{\r\n            require(bid_value > auctions[idx].bids[msg.sender], \"ERROR: Bids have to be higher than previous bids (open auction)\");\r\n            auctions[idx].bids[msg.sender] = bid_value;\r\n        }\r\n        emit BidEvent(msg.sender, idx, block.number, bid_value);\r\n    }\r\n\r\n    function get_bid(uint idx) public view returns (uint){\r\n        // returns last/highest bid of bidder\r\n        return auctions[idx].bids[msg.sender];\r\n    }\r\n\r\n    function get_highest_bid(uint idx) public view returns (uint) {\r\n        require(auctions[idx].sealed_auction == false, \"ERROR: get highest bid can only be called on open auction\");\r\n        uint winning_bid=0;\r\n        for (uint256 i = 0; i < auctions[idx].bidders.length; i++) {\r\n            address curr_bidder = auctions[idx].bidders[i];\r\n            if (auctions[idx].bids[curr_bidder] > winning_bid){\r\n                winning_bid = auctions[idx].bids[curr_bidder];\r\n            }\r\n        }  \r\n        return winning_bid;\r\n    }\r\n\r\n    function get_endtime(uint idx) public view returns (uint){\r\n        // returns the endtime\r\n        return auctions[idx].endtime;\r\n    }\r\n\r\n    function create_timestamp() public view returns (uint256){\r\n        // creates timestamp\r\n        return block.number;\r\n    }\r\n\r\n    function kill(uint idx) public{\r\n        // transfers back all deposts for auction id\r\n        require(msg.sender == auctions[idx].owner, \"ERROR: Only the owner can kill the auction.\");\r\n        require(block.number > auctions[idx].endtime, \"ERROR: The auction can only be killed when auction is over\");\r\n        for (uint256 i = 0; i < auctions[idx].bidders.length; i++) {\r\n            address bidder = auctions[idx].bidders[i];\r\n            uint deposit = auctions[idx].deposit[auctions[idx].bidders[i]];\r\n            payable(bidder).transfer(deposit);\r\n            auctions[idx].deposit[auctions[idx].bidders[i]] = 0;\r\n        }\r\n    }    \r\n\r\n    function get_winner(uint idx) public view returns (address winner, uint bid) {\r\n        // gets the winner in an open price auction\r\n        require(auctions[idx].endtime <= block.number, \"ERROR: Get winner can only be called when auction is over\");\r\n        require(auctions[idx].sealed_auction == false, \"ERROR: The function get winner can only be called on open auctions.\");\r\n        uint winning_bid=0;\r\n        address winner_address=get_owner(idx);\r\n        for (uint256 i = 0; i < auctions[idx].bidders.length; i++) {\r\n            address curr_bidder = auctions[idx].bidders[i];\r\n            if (auctions[idx].bids[curr_bidder] > winning_bid){\r\n                winning_bid = auctions[idx].bids[curr_bidder];\r\n                winner_address = curr_bidder;\r\n            }\r\n        }  \r\n        return (winner_address, winning_bid);\r\n    }\r\n\r\n    function refund_deposit(uint idx) public {\r\n        // refund the deposit if action is not active or if time is over\r\n        require(auctions[idx].deposit[msg.sender] > 0, \"ERROR: The Sender does not have any deposit\");\r\n        require(auctions[idx].active == false || auctions[idx].endtime < block.number, \"ERROR: Refund is only possible after the auction is over or before the auction has started.\");\r\n        payable(msg.sender).transfer(auctions[idx].deposit[msg.sender]);\r\n        auctions[idx].deposit[msg.sender] = 0;\r\n    }\r\n}\r\n",
  "sourcePath": "C:/Users/maxgi/Uni-Max/Coding/BLKCHN21/BlockchainProject/contracts/AuctionHouse.sol",
  "compiler": {
    "name": "solc",
    "version": "0.8.0+commit.c7dfd78e.Emscripten.clang"
  },
  "schemaVersion": "3.4.1",
  "updatedAt": "2021-07-01T14:30:54.452Z",
  "networkType": "ethereum",
  "devdoc": {
    "kind": "dev",
    "methods": {},
    "version": 1
  },
  "userdoc": {
    "kind": "user",
    "methods": {},
    "version": 1
  }
}