{
  "contractName": "AuctionHouse",
  "abi": [
    {
      "anonymous": false,
      "inputs": [
        {
          "indexed": true,
          "internalType": "address",
          "name": "owner",
          "type": "address"
        },
        {
          "indexed": false,
          "internalType": "uint256",
          "name": "idx",
          "type": "uint256"
        },
        {
          "indexed": false,
          "internalType": "uint256",
          "name": "identifier",
          "type": "uint256"
        },
        {
          "indexed": false,
          "internalType": "bool",
          "name": "sealed_auction",
          "type": "bool"
        }
      ],
      "name": "AuctionDeployed",
      "type": "event"
    },
    {
      "anonymous": false,
      "inputs": [
        {
          "indexed": true,
          "internalType": "address",
          "name": "sender",
          "type": "address"
        },
        {
          "indexed": false,
          "internalType": "uint256",
          "name": "value",
          "type": "uint256"
        },
        {
          "indexed": false,
          "internalType": "uint256",
          "name": "idx",
          "type": "uint256"
        }
      ],
      "name": "BidEvent",
      "type": "event"
    },
    {
      "anonymous": false,
      "inputs": [
        {
          "indexed": true,
          "internalType": "address",
          "name": "sender",
          "type": "address"
        },
        {
          "indexed": false,
          "internalType": "uint256",
          "name": "value",
          "type": "uint256"
        },
        {
          "indexed": false,
          "internalType": "uint256",
          "name": "idx",
          "type": "uint256"
        }
      ],
      "name": "DepositEvent",
      "type": "event"
    },
    {
      "inputs": [
        {
          "internalType": "uint256",
          "name": "",
          "type": "uint256"
        }
      ],
      "name": "auctions",
      "outputs": [
        {
          "internalType": "address",
          "name": "owner",
          "type": "address"
        },
        {
          "internalType": "uint256",
          "name": "auction_identifier",
          "type": "uint256"
        },
        {
          "internalType": "uint256",
          "name": "endtime",
          "type": "uint256"
        },
        {
          "internalType": "bool",
          "name": "active",
          "type": "bool"
        },
        {
          "internalType": "bool",
          "name": "sealed_auction",
          "type": "bool"
        }
      ],
      "stateMutability": "view",
      "type": "function",
      "constant": true
    },
    {
      "inputs": [
        {
          "internalType": "uint256",
          "name": "nonce",
          "type": "uint256"
        },
        {
          "internalType": "uint256",
          "name": "number",
          "type": "uint256"
        }
      ],
      "name": "hashSeriesNumber",
      "outputs": [
        {
          "internalType": "uint256",
          "name": "",
          "type": "uint256"
        }
      ],
      "stateMutability": "pure",
      "type": "function",
      "constant": true
    },
    {
      "inputs": [
        {
          "internalType": "uint256",
          "name": "idx",
          "type": "uint256"
        }
      ],
      "name": "get_owner",
      "outputs": [
        {
          "internalType": "address",
          "name": "",
          "type": "address"
        }
      ],
      "stateMutability": "view",
      "type": "function",
      "constant": true
    },
    {
      "inputs": [
        {
          "internalType": "address",
          "name": "addr",
          "type": "address"
        },
        {
          "internalType": "uint256",
          "name": "idx",
          "type": "uint256"
        }
      ],
      "name": "is_owner",
      "outputs": [
        {
          "internalType": "bool",
          "name": "",
          "type": "bool"
        }
      ],
      "stateMutability": "view",
      "type": "function",
      "constant": true
    },
    {
      "inputs": [
        {
          "internalType": "uint256",
          "name": "idx",
          "type": "uint256"
        }
      ],
      "name": "is_sealed",
      "outputs": [
        {
          "internalType": "bool",
          "name": "",
          "type": "bool"
        }
      ],
      "stateMutability": "view",
      "type": "function",
      "constant": true
    },
    {
      "inputs": [
        {
          "internalType": "uint256",
          "name": "identifier",
          "type": "uint256"
        }
      ],
      "name": "get_idx_from_identifier",
      "outputs": [
        {
          "internalType": "uint256",
          "name": "",
          "type": "uint256"
        }
      ],
      "stateMutability": "view",
      "type": "function",
      "constant": true
    },
    {
      "inputs": [
        {
          "internalType": "uint256",
          "name": "identifier",
          "type": "uint256"
        }
      ],
      "name": "identifier_is_unused",
      "outputs": [
        {
          "internalType": "bool",
          "name": "",
          "type": "bool"
        }
      ],
      "stateMutability": "view",
      "type": "function",
      "constant": true
    },
    {
      "inputs": [],
      "name": "get_number_of_auctions",
      "outputs": [
        {
          "internalType": "uint256",
          "name": "",
          "type": "uint256"
        }
      ],
      "stateMutability": "view",
      "type": "function",
      "constant": true
    },
    {
      "inputs": [
        {
          "internalType": "uint256",
          "name": "identifier",
          "type": "uint256"
        },
        {
          "internalType": "bool",
          "name": "type_sealed",
          "type": "bool"
        }
      ],
      "name": "deploy_auction",
      "outputs": [],
      "stateMutability": "payable",
      "type": "function",
      "payable": true
    },
    {
      "inputs": [
        {
          "internalType": "uint256",
          "name": "idx",
          "type": "uint256"
        }
      ],
      "name": "start_auction",
      "outputs": [],
      "stateMutability": "payable",
      "type": "function",
      "payable": true
    },
    {
      "inputs": [
        {
          "internalType": "uint256",
          "name": "idx",
          "type": "uint256"
        }
      ],
      "name": "deposit_money",
      "outputs": [
        {
          "internalType": "uint256",
          "name": "",
          "type": "uint256"
        }
      ],
      "stateMutability": "payable",
      "type": "function",
      "payable": true
    },
    {
      "inputs": [
        {
          "internalType": "uint256",
          "name": "idx",
          "type": "uint256"
        }
      ],
      "name": "get_deposit_balance",
      "outputs": [
        {
          "internalType": "uint256",
          "name": "",
          "type": "uint256"
        }
      ],
      "stateMutability": "view",
      "type": "function",
      "constant": true
    },
    {
      "inputs": [
        {
          "internalType": "uint256",
          "name": "idx",
          "type": "uint256"
        },
        {
          "internalType": "uint256",
          "name": "bid_value",
          "type": "uint256"
        }
      ],
      "name": "set_bid",
      "outputs": [],
      "stateMutability": "nonpayable",
      "type": "function"
    },
    {
      "inputs": [
        {
          "internalType": "uint256",
          "name": "idx",
          "type": "uint256"
        }
      ],
      "name": "get_bid",
      "outputs": [
        {
          "internalType": "uint256",
          "name": "",
          "type": "uint256"
        }
      ],
      "stateMutability": "view",
      "type": "function",
      "constant": true
    },
    {
      "inputs": [
        {
          "internalType": "uint256",
          "name": "idx",
          "type": "uint256"
        }
      ],
      "name": "get_highest_bid",
      "outputs": [
        {
          "internalType": "uint256",
          "name": "",
          "type": "uint256"
        }
      ],
      "stateMutability": "view",
      "type": "function",
      "constant": true
    },
    {
      "inputs": [
        {
          "internalType": "uint256",
          "name": "idx",
          "type": "uint256"
        }
      ],
      "name": "get_endtime",
      "outputs": [
        {
          "internalType": "uint256",
          "name": "",
          "type": "uint256"
        }
      ],
      "stateMutability": "view",
      "type": "function",
      "constant": true
    },
    {
      "inputs": [],
      "name": "create_timestamp",
      "outputs": [
        {
          "internalType": "uint256",
          "name": "",
          "type": "uint256"
        }
      ],
      "stateMutability": "view",
      "type": "function",
      "constant": true
    },
    {
      "inputs": [
        {
          "internalType": "uint256",
          "name": "idx",
          "type": "uint256"
        }
      ],
      "name": "kill",
      "outputs": [],
      "stateMutability": "nonpayable",
      "type": "function"
    },
    {
      "inputs": [
        {
          "internalType": "uint256",
          "name": "idx",
          "type": "uint256"
        }
      ],
      "name": "get_winner",
      "outputs": [
        {
          "internalType": "address",
          "name": "winner",
          "type": "address"
        },
        {
          "internalType": "uint256",
          "name": "bid",
          "type": "uint256"
        }
      ],
      "stateMutability": "view",
      "type": "function",
      "constant": true
    },
    {
      "inputs": [
        {
          "internalType": "uint256",
          "name": "idx",
          "type": "uint256"
        }
      ],
      "name": "refund_deposit",
      "outputs": [],
      "stateMutability": "nonpayable",
      "type": "function"
    }
  ],
  "bytecode": "0x6080604052600860015534801561001557600080fd5b5061304a806100256000396000f3fe60806040526004361061011f5760003560e01c806372205875116100a0578063a092c50411610064578063a092c5041461042e578063ce4339b71461046b578063d29a0025146104a8578063e9117d89146104d1578063f458de9e146105015761011f565b806372205875146103445780637a2994eb146103815780637a31ee4f146103aa578063841af859146103d5578063970e2ba6146104125761011f565b806344375fc7116100e757806344375fc714610230578063468298d41461024c578063571a26a01461028957806363160336146102ca578063686cfd29146103075761011f565b8063051a00d3146101245780630802ca28146101615780631c733acf1461018a578063243dc409146101c75780633ea3ff9314610205575b600080fd5b34801561013057600080fd5b5061014b60048036038101906101469190612484565b61053e565b6040516101589190612c48565b60405180910390f35b34801561016d57600080fd5b5061018860048036038101906101839190612525565b6105f2565b005b34801561019657600080fd5b506101b160048036038101906101ac91906124c0565b610bbe565b6040516101be9190612e23565b60405180910390f35b3480156101d357600080fd5b506101ee60048036038101906101e991906124c0565b610ea3565b6040516101fc929190612bcc565b60405180910390f35b34801561021157600080fd5b5061021a61122c565b6040516102279190612e23565b60405180910390f35b61024a600480360381019061024591906124c0565b611234565b005b34801561025857600080fd5b50610273600480360381019061026e91906124c0565b611470565b6040516102809190612c48565b60405180910390f35b34801561029557600080fd5b506102b060048036038101906102ab91906124c0565b6114ea565b6040516102c1959493929190612bf5565b60405180910390f35b3480156102d657600080fd5b506102f160048036038101906102ec91906124c0565b61156a565b6040516102fe9190612c48565b60405180910390f35b34801561031357600080fd5b5061032e60048036038101906103299190612525565b6115fa565b60405161033b9190612e23565b60405180910390f35b34801561035057600080fd5b5061036b600480360381019061036691906124c0565b611630565b6040516103789190612bb1565b60405180910390f35b34801561038d57600080fd5b506103a860048036038101906103a391906124c0565b6116a4565b005b3480156103b657600080fd5b506103bf6118f7565b6040516103cc9190612e23565b60405180910390f35b3480156103e157600080fd5b506103fc60048036038101906103f791906124c0565b611903565b6040516104099190612e23565b60405180910390f35b61042c600480360381019061042791906124e9565b6119dd565b005b34801561043a57600080fd5b50610455600480360381019061045091906124c0565b611b61565b6040516104629190612e23565b60405180910390f35b34801561047757600080fd5b50610492600480360381019061048d91906124c0565b611bf2565b60405161049f9190612e23565b60405180910390f35b3480156104b457600080fd5b506104cf60048036038101906104ca91906124c0565b611c83565b005b6104eb60048036038101906104e691906124c0565b6121c4565b6040516104f89190612e23565b60405180910390f35b34801561050d57600080fd5b50610528600480360381019061052391906124c0565b6123f1565b6040516105359190612e23565b60405180910390f35b6000808281548110610579577f4e487b7100000000000000000000000000000000000000000000000000000000600052603260045260246000fd5b906000526020600020906007020160000160009054906101000a900473ffffffffffffffffffffffffffffffffffffffff1673ffffffffffffffffffffffffffffffffffffffff168373ffffffffffffffffffffffffffffffffffffffff1614156105e757600190506105ec565b600090505b92915050565b6000828154811061062c577f4e487b7100000000000000000000000000000000000000000000000000000000600052603260045260246000fd5b906000526020600020906007020160030160009054906101000a900460ff1661068a576040517f08c379a000000000000000000000000000000000000000000000000000000000815260040161068190612d43565b60405180910390fd5b600082815481106106c4577f4e487b7100000000000000000000000000000000000000000000000000000000600052603260045260246000fd5b906000526020600020906007020160000160009054906101000a900473ffffffffffffffffffffffffffffffffffffffff1673ffffffffffffffffffffffffffffffffffffffff163373ffffffffffffffffffffffffffffffffffffffff161415610764576040517f08c379a000000000000000000000000000000000000000000000000000000000815260040161075b90612d23565b60405180910390fd5b674563918244f40000600083815481106107a7577f4e487b7100000000000000000000000000000000000000000000000000000000600052603260045260246000fd5b906000526020600020906007020160050160003373ffffffffffffffffffffffffffffffffffffffff1673ffffffffffffffffffffffffffffffffffffffff168152602001908152602001600020541015610837576040517f08c379a000000000000000000000000000000000000000000000000000000000815260040161082e90612de3565b60405180910390fd5b61083f61122c565b60008381548110610879577f4e487b7100000000000000000000000000000000000000000000000000000000600052603260045260246000fd5b906000526020600020906007020160020154116108cb576040517f08c379a00000000000000000000000000000000000000000000000000000000081526004016108c290612d63565b60405180910390fd5b6001151560008381548110610909577f4e487b7100000000000000000000000000000000000000000000000000000000600052603260045260246000fd5b906000526020600020906007020160030160019054906101000a900460ff1615151415610a1257806000838154811061096b577f4e487b7100000000000000000000000000000000000000000000000000000000600052603260045260246000fd5b906000526020600020906007020160060160003373ffffffffffffffffffffffffffffffffffffffff1673ffffffffffffffffffffffffffffffffffffffff168152602001908152602001600020819055503373ffffffffffffffffffffffffffffffffffffffff167f8af6b8ce9e717802e71d82fde14340886903c7ba4a5513f0a177b5ae534066bf8284604051610a05929190612e3e565b60405180910390a2610bba565b60008281548110610a4c577f4e487b7100000000000000000000000000000000000000000000000000000000600052603260045260246000fd5b906000526020600020906007020160060160003373ffffffffffffffffffffffffffffffffffffffff1673ffffffffffffffffffffffffffffffffffffffff168152602001908152602001600020548111610adc576040517f08c379a0000000000000000000000000000000000000000000000000000000008152600401610ad390612ce3565b60405180910390fd5b8060008381548110610b17577f4e487b7100000000000000000000000000000000000000000000000000000000600052603260045260246000fd5b906000526020600020906007020160060160003373ffffffffffffffffffffffffffffffffffffffff1673ffffffffffffffffffffffffffffffffffffffff168152602001908152602001600020819055503373ffffffffffffffffffffffffffffffffffffffff167f8af6b8ce9e717802e71d82fde14340886903c7ba4a5513f0a177b5ae534066bf8284604051610bb1929190612e3e565b60405180910390a25b5050565b600080151560008381548110610bfd577f4e487b7100000000000000000000000000000000000000000000000000000000600052603260045260246000fd5b906000526020600020906007020160030160019054906101000a900460ff16151514610c5e576040517f08c379a0000000000000000000000000000000000000000000000000000000008152600401610c5590612cc3565b60405180910390fd5b6000805b60008481548110610c9c577f4e487b7100000000000000000000000000000000000000000000000000000000600052603260045260246000fd5b906000526020600020906007020160040180549050811015610e99576000808581548110610cf3577f4e487b7100000000000000000000000000000000000000000000000000000000600052603260045260246000fd5b90600052602060002090600702016004018281548110610d3c577f4e487b7100000000000000000000000000000000000000000000000000000000600052603260045260246000fd5b9060005260206000200160009054906101000a900473ffffffffffffffffffffffffffffffffffffffff1690508260008681548110610da4577f4e487b7100000000000000000000000000000000000000000000000000000000600052603260045260246000fd5b906000526020600020906007020160060160008373ffffffffffffffffffffffffffffffffffffffff1673ffffffffffffffffffffffffffffffffffffffff168152602001908152602001600020541115610e855760008581548110610e33577f4e487b7100000000000000000000000000000000000000000000000000000000600052603260045260246000fd5b906000526020600020906007020160060160008273ffffffffffffffffffffffffffffffffffffffff1673ffffffffffffffffffffffffffffffffffffffff1681526020019081526020016000205492505b508080610e9190612f4d565b915050610c62565b5080915050919050565b6000804360008481548110610ee1577f4e487b7100000000000000000000000000000000000000000000000000000000600052603260045260246000fd5b9060005260206000209060070201600201541115610f34576040517f08c379a0000000000000000000000000000000000000000000000000000000008152600401610f2b90612d83565b60405180910390fd5b6000151560008481548110610f72577f4e487b7100000000000000000000000000000000000000000000000000000000600052603260045260246000fd5b906000526020600020906007020160030160019054906101000a900460ff16151514610fd3576040517f08c379a0000000000000000000000000000000000000000000000000000000008152600401610fca90612dc3565b60405180910390fd5b600080610fdf85611630565b905060005b6000868154811061101e577f4e487b7100000000000000000000000000000000000000000000000000000000600052603260045260246000fd5b90600052602060002090600702016004018054905081101561121e576000808781548110611075577f4e487b7100000000000000000000000000000000000000000000000000000000600052603260045260246000fd5b906000526020600020906007020160040182815481106110be577f4e487b7100000000000000000000000000000000000000000000000000000000600052603260045260246000fd5b9060005260206000200160009054906101000a900473ffffffffffffffffffffffffffffffffffffffff1690508360008881548110611126577f4e487b7100000000000000000000000000000000000000000000000000000000600052603260045260246000fd5b906000526020600020906007020160060160008373ffffffffffffffffffffffffffffffffffffffff1673ffffffffffffffffffffffffffffffffffffffff16815260200190815260200160002054111561120a57600087815481106111b5577f4e487b7100000000000000000000000000000000000000000000000000000000600052603260045260246000fd5b906000526020600020906007020160060160008273ffffffffffffffffffffffffffffffffffffffff1673ffffffffffffffffffffffffffffffffffffffff1681526020019081526020016000205493508092505b50808061121690612f4d565b915050610fe4565b508082935093505050915091565b600043905090565b6000818154811061126e577f4e487b7100000000000000000000000000000000000000000000000000000000600052603260045260246000fd5b906000526020600020906007020160000160009054906101000a900473ffffffffffffffffffffffffffffffffffffffff1673ffffffffffffffffffffffffffffffffffffffff163373ffffffffffffffffffffffffffffffffffffffff161461130d576040517f08c379a000000000000000000000000000000000000000000000000000000000815260040161130490612c83565b60405180910390fd5b600015156000828154811061134b577f4e487b7100000000000000000000000000000000000000000000000000000000600052603260045260246000fd5b906000526020600020906007020160030160009054906101000a900460ff161515146113ac576040517f08c379a00000000000000000000000000000000000000000000000000000000081526004016113a390612ca3565b60405180910390fd5b600154436113ba9190612eaf565b600082815481106113f4577f4e487b7100000000000000000000000000000000000000000000000000000000600052603260045260246000fd5b906000526020600020906007020160020181905550600160008281548110611445577f4e487b7100000000000000000000000000000000000000000000000000000000600052603260045260246000fd5b906000526020600020906007020160030160006101000a81548160ff02191690831515021790555050565b600060011515600083815481106114b0577f4e487b7100000000000000000000000000000000000000000000000000000000600052603260045260246000fd5b906000526020600020906007020160030160019054906101000a900460ff16151514156114e057600190506114e5565b600090505b919050565b600081815481106114fa57600080fd5b90600052602060002090600702016000915090508060000160009054906101000a900473ffffffffffffffffffffffffffffffffffffffff16908060010154908060020154908060030160009054906101000a900460ff16908060030160019054906101000a900460ff16905085565b600080600090505b6000805490508110156115ef5782600082815481106115ba577f4e487b7100000000000000000000000000000000000000000000000000000000600052603260045260246000fd5b90600052602060002090600702016001015414156115dc5760009150506115f5565b80806115e790612f4d565b915050611572565b50600190505b919050565b6000818360405160200161160f929190612b85565b6040516020818303038152906040528051906020012060001c905092915050565b600080828154811061166b577f4e487b7100000000000000000000000000000000000000000000000000000000600052603260045260246000fd5b906000526020600020906007020160000160009054906101000a900473ffffffffffffffffffffffffffffffffffffffff169050919050565b60001515600082815481106116e2577f4e487b7100000000000000000000000000000000000000000000000000000000600052603260045260246000fd5b906000526020600020906007020160030160009054906101000a900460ff161515148061175957504360008281548110611745577f4e487b7100000000000000000000000000000000000000000000000000000000600052603260045260246000fd5b906000526020600020906007020160020154105b611798576040517f08c379a000000000000000000000000000000000000000000000000000000000815260040161178f90612d03565b60405180910390fd5b3373ffffffffffffffffffffffffffffffffffffffff166108fc600083815481106117ec577f4e487b7100000000000000000000000000000000000000000000000000000000600052603260045260246000fd5b906000526020600020906007020160050160003373ffffffffffffffffffffffffffffffffffffffff1673ffffffffffffffffffffffffffffffffffffffff168152602001908152602001600020549081150290604051600060405180830381858888f19350505050158015611866573d6000803e3d6000fd5b5060008082815481106118a2577f4e487b7100000000000000000000000000000000000000000000000000000000600052603260045260246000fd5b906000526020600020906007020160050160003373ffffffffffffffffffffffffffffffffffffffff1673ffffffffffffffffffffffffffffffffffffffff1681526020019081526020016000208190555050565b60008080549050905090565b60008015156119118361156a565b151514611953576040517f08c379a000000000000000000000000000000000000000000000000000000000815260040161194a90612e03565b60405180910390fd5b60005b6000805490508110156119d257826000828154811061199e577f4e487b7100000000000000000000000000000000000000000000000000000000600052603260045260246000fd5b90600052602060002090600702016001015414156119bf57809150506119d8565b80806119ca90612f4d565b915050611956565b50600090505b919050565b6119e68261156a565b611a25576040517f08c379a0000000000000000000000000000000000000000000000000000000008152600401611a1c90612e03565b60405180910390fd5b6000808054905090506000600181600181540180825580915050039060005260206000209050506000808281548110611a87577f4e487b7100000000000000000000000000000000000000000000000000000000600052603260045260246000fd5b9060005260206000209060070201905060008160020181905550338160000160006101000a81548173ffffffffffffffffffffffffffffffffffffffff021916908373ffffffffffffffffffffffffffffffffffffffff160217905550828160030160016101000a81548160ff0219169083151502179055508381600101819055503373ffffffffffffffffffffffffffffffffffffffff167ff04b9fd96031702b939d571a81acc9c809b2376063fcbc6afd6f75af5ed13922838686604051611b5393929190612e67565b60405180910390a250505050565b6000808281548110611b9c577f4e487b7100000000000000000000000000000000000000000000000000000000600052603260045260246000fd5b906000526020600020906007020160050160003373ffffffffffffffffffffffffffffffffffffffff1673ffffffffffffffffffffffffffffffffffffffff168152602001908152602001600020549050919050565b6000808281548110611c2d577f4e487b7100000000000000000000000000000000000000000000000000000000600052603260045260246000fd5b906000526020600020906007020160060160003373ffffffffffffffffffffffffffffffffffffffff1673ffffffffffffffffffffffffffffffffffffffff168152602001908152602001600020549050919050565b60008181548110611cbd577f4e487b7100000000000000000000000000000000000000000000000000000000600052603260045260246000fd5b906000526020600020906007020160000160009054906101000a900473ffffffffffffffffffffffffffffffffffffffff1673ffffffffffffffffffffffffffffffffffffffff163373ffffffffffffffffffffffffffffffffffffffff1614611d5c576040517f08c379a0000000000000000000000000000000000000000000000000000000008152600401611d5390612da3565b60405180910390fd5b60008181548110611d96577f4e487b7100000000000000000000000000000000000000000000000000000000600052603260045260246000fd5b9060005260206000209060070201600201544311611de9576040517f08c379a0000000000000000000000000000000000000000000000000000000008152600401611de090612c63565b60405180910390fd5b60005b60008281548110611e26577f4e487b7100000000000000000000000000000000000000000000000000000000600052603260045260246000fd5b9060005260206000209060070201600401805490508110156121c0576000808381548110611e7d577f4e487b7100000000000000000000000000000000000000000000000000000000600052603260045260246000fd5b90600052602060002090600702016004018281548110611ec6577f4e487b7100000000000000000000000000000000000000000000000000000000600052603260045260246000fd5b9060005260206000200160009054906101000a900473ffffffffffffffffffffffffffffffffffffffff1690506000808481548110611f2e577f4e487b7100000000000000000000000000000000000000000000000000000000600052603260045260246000fd5b90600052602060002090600702016005016000808681548110611f7a577f4e487b7100000000000000000000000000000000000000000000000000000000600052603260045260246000fd5b90600052602060002090600702016004018581548110611fc3577f4e487b7100000000000000000000000000000000000000000000000000000000600052603260045260246000fd5b9060005260206000200160009054906101000a900473ffffffffffffffffffffffffffffffffffffffff1673ffffffffffffffffffffffffffffffffffffffff1673ffffffffffffffffffffffffffffffffffffffff1681526020019081526020016000205490508173ffffffffffffffffffffffffffffffffffffffff166108fc829081150290604051600060405180830381858888f19350505050158015612071573d6000803e3d6000fd5b5060008085815481106120ad577f4e487b7100000000000000000000000000000000000000000000000000000000600052603260045260246000fd5b906000526020600020906007020160050160008087815481106120f9577f4e487b7100000000000000000000000000000000000000000000000000000000600052603260045260246000fd5b90600052602060002090600702016004018681548110612142577f4e487b7100000000000000000000000000000000000000000000000000000000600052603260045260246000fd5b9060005260206000200160009054906101000a900473ffffffffffffffffffffffffffffffffffffffff1673ffffffffffffffffffffffffffffffffffffffff1673ffffffffffffffffffffffffffffffffffffffff16815260200190815260200160002081905550505080806121b890612f4d565b915050611dec565b5050565b60003460008381548110612201577f4e487b7100000000000000000000000000000000000000000000000000000000600052603260045260246000fd5b906000526020600020906007020160050160003373ffffffffffffffffffffffffffffffffffffffff1673ffffffffffffffffffffffffffffffffffffffff168152602001908152602001600020600082825461225e9190612eaf565b925050819055506000828154811061229f577f4e487b7100000000000000000000000000000000000000000000000000000000600052603260045260246000fd5b9060005260206000209060070201600401339080600181540180825580915050600190039060005260206000200160009091909190916101000a81548173ffffffffffffffffffffffffffffffffffffffff021916908373ffffffffffffffffffffffffffffffffffffffff1602179055503373ffffffffffffffffffffffffffffffffffffffff167fad40ae5dc69974ba932d08b0a608e89109412d41d04850f5196f144875ae26603484604051612359929190612e3e565b60405180910390a26000828154811061239b577f4e487b7100000000000000000000000000000000000000000000000000000000600052603260045260246000fd5b906000526020600020906007020160050160003373ffffffffffffffffffffffffffffffffffffffff1673ffffffffffffffffffffffffffffffffffffffff168152602001908152602001600020549050919050565b600080828154811061242c577f4e487b7100000000000000000000000000000000000000000000000000000000600052603260045260246000fd5b9060005260206000209060070201600201549050919050565b60008135905061245481612fcf565b92915050565b60008135905061246981612fe6565b92915050565b60008135905061247e81612ffd565b92915050565b6000806040838503121561249757600080fd5b60006124a585828601612445565b92505060206124b68582860161246f565b9150509250929050565b6000602082840312156124d257600080fd5b60006124e08482850161246f565b91505092915050565b600080604083850312156124fc57600080fd5b600061250a8582860161246f565b925050602061251b8582860161245a565b9150509250929050565b6000806040838503121561253857600080fd5b60006125468582860161246f565b92505060206125578582860161246f565b9150509250929050565b61256a81612f05565b82525050565b61257981612f17565b82525050565b600061258c603a83612e9e565b91507f4552524f523a205468652061756374696f6e2063616e206f6e6c79206265206b60008301527f696c6c6564207768656e2061756374696f6e206973206f7665720000000000006020830152604082019050919050565b60006125f2602b83612e9e565b91507f4552524f523a204f6e6c7920746865206f776e65722063616e2073746172742060008301527f7468652061756374696f6e0000000000000000000000000000000000000000006020830152604082019050919050565b6000612658602b83612e9e565b91507f4552524f523a205468652061756374696f6e2063616e206f6e6c79206265207360008301527f746172746564206f6e63650000000000000000000000000000000000000000006020830152604082019050919050565b60006126be603983612e9e565b91507f4552524f523a206765742068696768657374206269642063616e206f6e6c792060008301527f62652063616c6c6564206f6e206f70656e2061756374696f6e000000000000006020830152604082019050919050565b6000612724603f83612e9e565b91507f4552524f523a2042696473206861766520746f2062652068696768657220746860008301527f616e2070726576696f7573206269647320286f70656e2061756374696f6e29006020830152604082019050919050565b600061278a605b83612e9e565b91507f4552524f523a20526566756e64206973206f6e6c7920706f737369626c65206160008301527f66746572207468652061756374696f6e206973206f766572206f72206265666f60208301527f7265207468652061756374696f6e2068617320737461727465642e00000000006040830152606082019050919050565b6000612816602f83612e9e565b91507f4552524f523a20546865206f776e65722063616e206e6f7420626964206f6e2060008301527f6869732f6865722061756374696f6e00000000000000000000000000000000006020830152604082019050919050565b600061287c602d83612e9e565b91507f4552524f523a205468652061756374696f6e2068617320746f2062652073746160008301527f72746564202861637469766529000000000000000000000000000000000000006020830152604082019050919050565b60006128e2603483612e9e565b91507f4552524f523a2041756374696f6e20697320616c7265616479206f766572202860008301527f426c6f636b206c696d69742072656163686564290000000000000000000000006020830152604082019050919050565b6000612948603983612e9e565b91507f4552524f523a204765742077696e6e65722063616e206f6e6c7920626520636160008301527f6c6c6564207768656e2061756374696f6e206973206f766572000000000000006020830152604082019050919050565b60006129ae602b83612e9e565b91507f4552524f523a204f6e6c7920746865206f776e65722063616e206b696c6c207460008301527f68652061756374696f6e2e0000000000000000000000000000000000000000006020830152604082019050919050565b6000612a14604383612e9e565b91507f4552524f523a205468652066756e6374696f6e206765742077696e6e6572206360008301527f616e206f6e6c792062652063616c6c6564206f6e206f70656e2061756374696f60208301527f6e732e00000000000000000000000000000000000000000000000000000000006040830152606082019050919050565b6000612aa0602d83612e9e565b91507f4552524f523a204465706f736974206973206e6f7420656e6f7567682028617460008301527f206c6561737420352045544829000000000000000000000000000000000000006020830152604082019050919050565b6000612b06602183612e9e565b91507f4552524f523a204964656e74696669657220697320616c72656164792075736560008301527f64000000000000000000000000000000000000000000000000000000000000006020830152604082019050919050565b612b6881612f43565b82525050565b612b7f612b7a82612f43565b612f96565b82525050565b6000612b918285612b6e565b602082019150612ba18284612b6e565b6020820191508190509392505050565b6000602082019050612bc66000830184612561565b92915050565b6000604082019050612be16000830185612561565b612bee6020830184612b5f565b9392505050565b600060a082019050612c0a6000830188612561565b612c176020830187612b5f565b612c246040830186612b5f565b612c316060830185612570565b612c3e6080830184612570565b9695505050505050565b6000602082019050612c5d6000830184612570565b92915050565b60006020820190508181036000830152612c7c8161257f565b9050919050565b60006020820190508181036000830152612c9c816125e5565b9050919050565b60006020820190508181036000830152612cbc8161264b565b9050919050565b60006020820190508181036000830152612cdc816126b1565b9050919050565b60006020820190508181036000830152612cfc81612717565b9050919050565b60006020820190508181036000830152612d1c8161277d565b9050919050565b60006020820190508181036000830152612d3c81612809565b9050919050565b60006020820190508181036000830152612d5c8161286f565b9050919050565b60006020820190508181036000830152612d7c816128d5565b9050919050565b60006020820190508181036000830152612d9c8161293b565b9050919050565b60006020820190508181036000830152612dbc816129a1565b9050919050565b60006020820190508181036000830152612ddc81612a07565b9050919050565b60006020820190508181036000830152612dfc81612a93565b9050919050565b60006020820190508181036000830152612e1c81612af9565b9050919050565b6000602082019050612e386000830184612b5f565b92915050565b6000604082019050612e536000830185612b5f565b612e606020830184612b5f565b9392505050565b6000606082019050612e7c6000830186612b5f565b612e896020830185612b5f565b612e966040830184612570565b949350505050565b600082825260208201905092915050565b6000612eba82612f43565b9150612ec583612f43565b9250827fffffffffffffffffffffffffffffffffffffffffffffffffffffffffffffffff03821115612efa57612ef9612fa0565b5b828201905092915050565b6000612f1082612f23565b9050919050565b60008115159050919050565b600073ffffffffffffffffffffffffffffffffffffffff82169050919050565b6000819050919050565b6000612f5882612f43565b91507fffffffffffffffffffffffffffffffffffffffffffffffffffffffffffffffff821415612f8b57612f8a612fa0565b5b600182019050919050565b6000819050919050565b7f4e487b7100000000000000000000000000000000000000000000000000000000600052601160045260246000fd5b612fd881612f05565b8114612fe357600080fd5b50565b612fef81612f17565b8114612ffa57600080fd5b50565b61300681612f43565b811461301157600080fd5b5056fea2646970667358221220f1a3d13914672847a3e79836049adc296ee5aab624ea26859f261762e0a7f22e64736f6c63430008000033",
  "immutableReferences": {},
  "source": "// SPDX-License-Identifier: MIT\r\npragma solidity ^0.8.0;\r\n\r\ncontract AuctionHouse {\r\n\r\n    struct Auction {\r\n        address owner;\r\n        uint auction_identifier;\r\n        uint endtime; \r\n        bool active; \r\n        bool sealed_auction; \r\n        address[] bidders;\r\n        mapping (address => uint) deposit;   \r\n        mapping (address => uint) bids;\r\n    }\r\n\r\n    Auction[] public auctions;\r\n\r\n    uint256 interval = 8; \r\n    \r\n    // define events\r\n    event DepositEvent(address indexed sender, uint value, uint256 idx);\r\n    event AuctionDeployed(address indexed owner, uint256 idx, uint256 identifier, bool sealed_auction);\r\n    event BidEvent(address indexed sender, uint value, uint256 idx);\r\n\r\n\r\n    function hashSeriesNumber(uint256 nonce, uint256 number) public pure returns (uint) {\r\n        // hash the value of a string and number \r\n        return uint256(keccak256(abi.encodePacked(number, nonce)));\r\n    }\r\n\r\n    function get_owner(uint idx) public view returns (address){\r\n        // returns the address of the owner for certain id \r\n        return auctions[idx].owner;\r\n    }\r\n\r\n    function is_owner(address addr, uint idx) public view returns (bool){\r\n        // returns true/false of an address with idx\r\n        if (addr == auctions[idx].owner){\r\n            return true;\r\n        }\r\n        else{\r\n            return false;\r\n        }\r\n    }\r\n\r\n    function is_sealed(uint idx) public view returns (bool){\r\n        // returns true/false if the auction is sealed\r\n        if (auctions[idx].sealed_auction == true){\r\n            return true;\r\n        }\r\n        else{\r\n            return false;\r\n        }\r\n    }\r\n\r\n    function get_idx_from_identifier(uint identifier) public view returns (uint){\r\n        // get the id of an auction given an identifier\r\n        require(identifier_is_unused(identifier)==false, \"ERROR: Identifier is already used\");\r\n        for (uint256 idx = 0; idx < auctions.length; idx++) {\r\n            if (auctions[idx].auction_identifier == identifier){\r\n                return idx;\r\n            }\r\n        }\r\n        return 0;\r\n    }\r\n\r\n    function identifier_is_unused(uint identifier) public view returns (bool){\r\n        // check if the identifier is already in use\r\n        for (uint256 idx = 0; idx < auctions.length; idx++) {\r\n            if (auctions[idx].auction_identifier == identifier){\r\n                return false;\r\n            }\r\n        }\r\n        return true;\r\n    }\r\n\r\n    function get_number_of_auctions() public view returns (uint){\r\n        // returns the number of auctions\r\n        return auctions.length;\r\n    }\r\n\r\n    function deploy_auction(uint identifier, bool type_sealed) public payable{\r\n        // deploys an auction\r\n        require(identifier_is_unused(identifier), \"ERROR: Identifier is already used\");\r\n        uint idx = auctions.length;\r\n        auctions.push();\r\n        Auction storage new_auct = auctions[idx];\r\n        // Changed by Max\r\n        new_auct.endtime = 0;\r\n        new_auct.owner = msg.sender;\r\n        new_auct.sealed_auction = type_sealed;\r\n        new_auct.auction_identifier = identifier;\r\n        emit AuctionDeployed(msg.sender, idx, identifier, type_sealed);\r\n    }\r\n\r\n    function start_auction(uint idx) public payable {\r\n        // start the auction, setting timelimit, can only not be reactivated\r\n        require(msg.sender == auctions[idx].owner, \"ERROR: Only the owner can start the auction\");\r\n        require(auctions[idx].active == false, \"ERROR: The auction can only be started once\");\r\n        auctions[idx].endtime = block.number + interval;\r\n        auctions[idx].active = true;\r\n        \r\n    }\r\n\r\n    function deposit_money(uint idx) public payable returns (uint){\r\n        // Deposit money in order to be able to participate\r\n        auctions[idx].deposit[msg.sender] += msg.value;\r\n        auctions[idx].bidders.push(msg.sender);\r\n        emit DepositEvent(msg.sender, msg.value, idx);\r\n        return auctions[idx].deposit[msg.sender];\r\n    }\r\n\r\n    function get_deposit_balance(uint idx) public view returns (uint){\r\n        // gets the balances of bidders\r\n        return auctions[idx].deposit[msg.sender];\r\n    }\r\n\r\n    function set_bid(uint idx, uint bid_value) public {\r\n        // sets the bid, requirements have to be fulfilled \r\n        require(auctions[idx].active, \"ERROR: The auction has to be started (active)\");\r\n        require(msg.sender != auctions[idx].owner, \"ERROR: The owner can not bid on his/her auction\");\r\n        require(auctions[idx].deposit[msg.sender]>=5 ether, \"ERROR: Deposit is not enough (at least 5 ETH)\");\r\n        require(auctions[idx].endtime > create_timestamp(), \"ERROR: Auction is already over (Block limit reached)\");\r\n\r\n        if (auctions[idx].sealed_auction == true){\r\n            auctions[idx].bids[msg.sender] = bid_value;\r\n            emit BidEvent(msg.sender, bid_value, idx);\r\n        }\r\n        else{\r\n            require(bid_value > auctions[idx].bids[msg.sender], \"ERROR: Bids have to be higher than previous bids (open auction)\");\r\n            auctions[idx].bids[msg.sender] = bid_value;\r\n            emit BidEvent(msg.sender, bid_value, idx);\r\n        }\r\n    }\r\n\r\n    function get_bid(uint idx) public view returns (uint){\r\n        // returns last/highest bid of bidder\r\n        return auctions[idx].bids[msg.sender];\r\n    }\r\n\r\n    function get_highest_bid(uint idx) public view returns (uint) {\r\n        require(auctions[idx].sealed_auction == false, \"ERROR: get highest bid can only be called on open auction\");\r\n        uint winning_bid=0;\r\n        for (uint256 i = 0; i < auctions[idx].bidders.length; i++) {\r\n            address curr_bidder = auctions[idx].bidders[i];\r\n            if (auctions[idx].bids[curr_bidder] > winning_bid){\r\n                winning_bid = auctions[idx].bids[curr_bidder];\r\n            }\r\n        }  \r\n        return winning_bid;\r\n    }\r\n\r\n    function get_endtime(uint idx) public view returns (uint){\r\n        // returns the endtime\r\n        return auctions[idx].endtime;\r\n    }\r\n\r\n    function create_timestamp() public view returns (uint256){\r\n        // creates timestamp\r\n        return block.number;\r\n    }\r\n\r\n    function kill(uint idx) public{\r\n        // transfers back all deposts for auction id\r\n        require(msg.sender == auctions[idx].owner, \"ERROR: Only the owner can kill the auction.\");\r\n        require(block.number > auctions[idx].endtime, \"ERROR: The auction can only be killed when auction is over\");\r\n        for (uint256 i = 0; i < auctions[idx].bidders.length; i++) {\r\n            address bidder = auctions[idx].bidders[i];\r\n            uint deposit = auctions[idx].deposit[auctions[idx].bidders[i]];\r\n            payable(bidder).transfer(deposit);\r\n            auctions[idx].deposit[auctions[idx].bidders[i]] = 0;\r\n        }\r\n    }    \r\n\r\n    function get_winner(uint idx) public view returns (address winner, uint bid) {\r\n        // gets the winner in an open price auction\r\n        require(auctions[idx].endtime <= block.number, \"ERROR: Get winner can only be called when auction is over\");\r\n        require(auctions[idx].sealed_auction == false, \"ERROR: The function get winner can only be called on open auctions.\");\r\n        uint winning_bid=0;\r\n        address winner_address=get_owner(idx);\r\n        for (uint256 i = 0; i < auctions[idx].bidders.length; i++) {\r\n            address curr_bidder = auctions[idx].bidders[i];\r\n            if (auctions[idx].bids[curr_bidder] > winning_bid){\r\n                winning_bid = auctions[idx].bids[curr_bidder];\r\n                winner_address = curr_bidder;\r\n            }\r\n        }  \r\n        return (winner_address, winning_bid);\r\n    }\r\n\r\n    function refund_deposit(uint idx) public {\r\n        // refund the deposit if action is not active or if time is over\r\n        require(auctions[idx].active == false || auctions[idx].endtime < block.number, \"ERROR: Refund is only possible after the auction is over or before the auction has started.\");\r\n        payable(msg.sender).transfer(auctions[idx].deposit[msg.sender]);\r\n        auctions[idx].deposit[msg.sender] = 0;\r\n    }\r\n}\r\n",
  "sourcePath": "C:/Users/maxgi/Uni-Max/Coding/BLKCHN21/BlockchainProject/contracts/AuctionHouse.sol",
  "compiler": {
    "name": "solc",
    "version": "0.8.0+commit.c7dfd78e.Emscripten.clang"
  },
  "schemaVersion": "3.4.1",
  "updatedAt": "2021-07-01T09:37:58.238Z",
  "networkType": "ethereum",
  "devdoc": {
    "kind": "dev",
    "methods": {},
    "version": 1
  },
  "userdoc": {
    "kind": "user",
    "methods": {},
    "version": 1
  }
}