{
  "contractName": "AuctionHouse",
  "abi": [
    {
      "inputs": [
        {
          "internalType": "uint256",
          "name": "nonce",
          "type": "uint256"
        },
        {
          "internalType": "uint256",
          "name": "number",
          "type": "uint256"
        }
      ],
      "name": "hashSeriesNumber",
      "outputs": [
        {
          "internalType": "bytes32",
          "name": "",
          "type": "bytes32"
        }
      ],
      "stateMutability": "pure",
      "type": "function"
    },
    {
      "inputs": [
        {
          "internalType": "uint256",
          "name": "identifier",
          "type": "uint256"
        }
      ],
      "name": "get_owner",
      "outputs": [
        {
          "internalType": "address",
          "name": "",
          "type": "address"
        }
      ],
      "stateMutability": "view",
      "type": "function"
    },
    {
      "inputs": [
        {
          "internalType": "address",
          "name": "addr",
          "type": "address"
        },
        {
          "internalType": "uint256",
          "name": "identifier",
          "type": "uint256"
        }
      ],
      "name": "is_owner",
      "outputs": [
        {
          "internalType": "bool",
          "name": "",
          "type": "bool"
        }
      ],
      "stateMutability": "view",
      "type": "function"
    },
    {
      "inputs": [
        {
          "internalType": "uint256",
          "name": "identifier",
          "type": "uint256"
        }
      ],
      "name": "is_sealed",
      "outputs": [
        {
          "internalType": "bool",
          "name": "",
          "type": "bool"
        }
      ],
      "stateMutability": "view",
      "type": "function"
    },
    {
      "inputs": [
        {
          "internalType": "uint256",
          "name": "identifier",
          "type": "uint256"
        }
      ],
      "name": "get_idx_from_identifier",
      "outputs": [
        {
          "internalType": "uint256",
          "name": "",
          "type": "uint256"
        }
      ],
      "stateMutability": "view",
      "type": "function"
    },
    {
      "inputs": [
        {
          "internalType": "uint256",
          "name": "identifier",
          "type": "uint256"
        }
      ],
      "name": "identifier_is_unused",
      "outputs": [
        {
          "internalType": "bool",
          "name": "",
          "type": "bool"
        }
      ],
      "stateMutability": "view",
      "type": "function"
    },
    {
      "inputs": [],
      "name": "get_number_of_auctions",
      "outputs": [
        {
          "internalType": "uint256",
          "name": "",
          "type": "uint256"
        }
      ],
      "stateMutability": "view",
      "type": "function"
    },
    {
      "inputs": [
        {
          "internalType": "uint256",
          "name": "identifier",
          "type": "uint256"
        },
        {
          "internalType": "bool",
          "name": "type_sealed",
          "type": "bool"
        }
      ],
      "name": "deploy_auction",
      "outputs": [],
      "stateMutability": "payable",
      "type": "function"
    },
    {
      "inputs": [
        {
          "internalType": "uint256",
          "name": "identifier",
          "type": "uint256"
        }
      ],
      "name": "start_auction",
      "outputs": [],
      "stateMutability": "payable",
      "type": "function"
    },
    {
      "inputs": [
        {
          "internalType": "uint256",
          "name": "identifier",
          "type": "uint256"
        }
      ],
      "name": "deposit_money",
      "outputs": [
        {
          "internalType": "uint256",
          "name": "",
          "type": "uint256"
        }
      ],
      "stateMutability": "payable",
      "type": "function"
    },
    {
      "inputs": [
        {
          "internalType": "uint256",
          "name": "identifier",
          "type": "uint256"
        }
      ],
      "name": "get_deposit_balance",
      "outputs": [
        {
          "internalType": "uint256",
          "name": "",
          "type": "uint256"
        }
      ],
      "stateMutability": "view",
      "type": "function"
    },
    {
      "inputs": [
        {
          "internalType": "uint256",
          "name": "identifier",
          "type": "uint256"
        },
        {
          "internalType": "uint256",
          "name": "bid_value",
          "type": "uint256"
        },
        {
          "internalType": "uint256",
          "name": "nonce",
          "type": "uint256"
        }
      ],
      "name": "set_bid",
      "outputs": [],
      "stateMutability": "nonpayable",
      "type": "function"
    },
    {
      "inputs": [
        {
          "internalType": "uint256",
          "name": "identifier",
          "type": "uint256"
        }
      ],
      "name": "get_bid",
      "outputs": [
        {
          "internalType": "uint256",
          "name": "",
          "type": "uint256"
        }
      ],
      "stateMutability": "view",
      "type": "function"
    },
    {
      "inputs": [
        {
          "internalType": "uint256",
          "name": "identifier",
          "type": "uint256"
        }
      ],
      "name": "get_endtime",
      "outputs": [
        {
          "internalType": "uint256",
          "name": "",
          "type": "uint256"
        }
      ],
      "stateMutability": "view",
      "type": "function"
    },
    {
      "inputs": [],
      "name": "create_timestamp",
      "outputs": [
        {
          "internalType": "uint256",
          "name": "",
          "type": "uint256"
        }
      ],
      "stateMutability": "view",
      "type": "function"
    },
    {
      "inputs": [
        {
          "internalType": "uint256",
          "name": "identifier",
          "type": "uint256"
        }
      ],
      "name": "kill",
      "outputs": [],
      "stateMutability": "nonpayable",
      "type": "function"
    },
    {
      "inputs": [
        {
          "internalType": "uint256",
          "name": "identifier",
          "type": "uint256"
        }
      ],
      "name": "get_winner",
      "outputs": [
        {
          "internalType": "address",
          "name": "",
          "type": "address"
        },
        {
          "internalType": "uint256",
          "name": "",
          "type": "uint256"
        }
      ],
      "stateMutability": "view",
      "type": "function"
    },
    {
      "inputs": [
        {
          "internalType": "uint256",
          "name": "identifier",
          "type": "uint256"
        }
      ],
      "name": "refund_deposit",
      "outputs": [],
      "stateMutability": "nonpayable",
      "type": "function"
    }
  ],
  "bytecode": "0x6080604052670de0b6b3a7640000600155600860025534801561002157600080fd5b50612133806100316000396000f3fe6080604052600436106101095760003560e01c80637a31ee4f11610095578063a092c50411610064578063a092c5041461039a578063ce4339b7146103d7578063d29a002514610414578063e9117d891461043d578063f458de9e1461046d57610109565b80637a31ee4f146102ed578063841af85914610318578063889133c314610355578063970e2ba61461037e57610109565b8063468298d4116100dc578063468298d4146101d0578063631603361461020d578063686cfd291461024a57806372205875146102875780637a2994eb146102c457610109565b8063051a00d31461010e578063243dc4091461014b5780633ea3ff931461018957806344375fc7146101b4575b600080fd5b34801561011a57600080fd5b5061013560048036038101906101309190611d18565b6104aa565b6040516101429190611ec4565b60405180910390f35b34801561015757600080fd5b50610172600480360381019061016d9190611d54565b61056d565b604051610180929190611e9b565b60405180910390f35b34801561019557600080fd5b5061019e610897565b6040516101ab9190611efa565b60405180910390f35b6101ce60048036038101906101c99190611d54565b61089f565b005b3480156101dc57600080fd5b506101f760048036038101906101f29190611d54565b610a7d565b6040516102049190611ec4565b60405180910390f35b34801561021957600080fd5b50610234600480360381019061022f9190611d54565b610b05565b6040516102419190611ec4565b60405180910390f35b34801561025657600080fd5b50610271600480360381019061026c9190611db9565b610b95565b60405161027e9190611edf565b60405180910390f35b34801561029357600080fd5b506102ae60048036038101906102a99190611d54565b610bc8565b6040516102bb9190611e80565b60405180910390f35b3480156102d057600080fd5b506102eb60048036038101906102e69190611d54565b610c4a565b005b3480156102f957600080fd5b50610302610e75565b60405161030f9190611efa565b60405180910390f35b34801561032457600080fd5b5061033f600480360381019061033a9190611d54565b610e81565b60405161034c9190611efa565b60405180910390f35b34801561036157600080fd5b5061037c60048036038101906103779190611df5565b610f25565b005b61039860048036038101906103939190611d7d565b611364565b005b3480156103a657600080fd5b506103c160048036038101906103bc9190611d54565b61146c565b6040516103ce9190611efa565b60405180910390f35b3480156103e357600080fd5b506103fe60048036038101906103f99190611d54565b61150b565b60405161040b9190611efa565b60405180910390f35b34801561042057600080fd5b5061043b60048036038101906104369190611d54565b6115aa565b005b61045760048036038101906104529190611d54565b611a8d565b6040516104649190611efa565b60405180910390f35b34801561047957600080fd5b50610494600480360381019061048f9190611d54565b611c77565b6040516104a19190611efa565b60405180910390f35b6000806104b683610e81565b9050600081815481106104f2577f4e487b7100000000000000000000000000000000000000000000000000000000600052603260045260246000fd5b906000526020600020906007020160000160009054906101000a900473ffffffffffffffffffffffffffffffffffffffff1673ffffffffffffffffffffffffffffffffffffffff168473ffffffffffffffffffffffffffffffffffffffff161415610561576001915050610567565b60009150505b92915050565b600080600061057b84610e81565b905043600082815481106105b8577f4e487b7100000000000000000000000000000000000000000000000000000000600052603260045260246000fd5b906000526020600020906007020160020154106105d457600080fd5b6000151560008281548110610612577f4e487b7100000000000000000000000000000000000000000000000000000000600052603260045260246000fd5b906000526020600020906007020160030160019054906101000a900460ff1615151461063d57600080fd5b60008061064986610bc8565b905060005b60008481548110610688577f4e487b7100000000000000000000000000000000000000000000000000000000600052603260045260246000fd5b9060005260206000209060070201600401805490508110156108885760008085815481106106df577f4e487b7100000000000000000000000000000000000000000000000000000000600052603260045260246000fd5b90600052602060002090600702016004018281548110610728577f4e487b7100000000000000000000000000000000000000000000000000000000600052603260045260246000fd5b9060005260206000200160009054906101000a900473ffffffffffffffffffffffffffffffffffffffff1690508360008681548110610790577f4e487b7100000000000000000000000000000000000000000000000000000000600052603260045260246000fd5b906000526020600020906007020160060160008373ffffffffffffffffffffffffffffffffffffffff1673ffffffffffffffffffffffffffffffffffffffff168152602001908152602001600020541115610874576000858154811061081f577f4e487b7100000000000000000000000000000000000000000000000000000000600052603260045260246000fd5b906000526020600020906007020160060160008273ffffffffffffffffffffffffffffffffffffffff1673ffffffffffffffffffffffffffffffffffffffff1681526020019081526020016000205493508092505b50808061088090612040565b91505061064e565b50808294509450505050915091565b600043905090565b60006108aa82610e81565b9050600081815481106108e6577f4e487b7100000000000000000000000000000000000000000000000000000000600052603260045260246000fd5b906000526020600020906007020160000160009054906101000a900473ffffffffffffffffffffffffffffffffffffffff1673ffffffffffffffffffffffffffffffffffffffff163373ffffffffffffffffffffffffffffffffffffffff161461094f57600080fd5b600015156000828154811061098d577f4e487b7100000000000000000000000000000000000000000000000000000000600052603260045260246000fd5b906000526020600020906007020160030160009054906101000a900460ff161515146109b857600080fd5b600254436109c69190611f3e565b60008281548110610a00577f4e487b7100000000000000000000000000000000000000000000000000000000600052603260045260246000fd5b906000526020600020906007020160020181905550600160008281548110610a51577f4e487b7100000000000000000000000000000000000000000000000000000000600052603260045260246000fd5b906000526020600020906007020160030160006101000a81548160ff0219169083151502179055505050565b600080610a8983610e81565b90506001151560008281548110610ac9577f4e487b7100000000000000000000000000000000000000000000000000000000600052603260045260246000fd5b906000526020600020906007020160030160019054906101000a900460ff1615151415610afa576001915050610b00565b60009150505b919050565b600080600090505b600080549050811015610b8a578260008281548110610b55577f4e487b7100000000000000000000000000000000000000000000000000000000600052603260045260246000fd5b9060005260206000209060070201600101541415610b77576000915050610b90565b8080610b8290612040565b915050610b0d565b50600190505b919050565b60008183604051602001610baa929190611f15565b60405160208183030381529060405280519060200120905092915050565b600080610bd483610e81565b905060008181548110610c10577f4e487b7100000000000000000000000000000000000000000000000000000000600052603260045260246000fd5b906000526020600020906007020160000160009054906101000a900473ffffffffffffffffffffffffffffffffffffffff16915050919050565b6000610c5582610e81565b90506000151560008281548110610c95577f4e487b7100000000000000000000000000000000000000000000000000000000600052603260045260246000fd5b906000526020600020906007020160030160009054906101000a900460ff1615151480610d0c57504360008281548110610cf8577f4e487b7100000000000000000000000000000000000000000000000000000000600052603260045260246000fd5b906000526020600020906007020160020154105b610d1557600080fd5b3373ffffffffffffffffffffffffffffffffffffffff166108fc60008381548110610d69577f4e487b7100000000000000000000000000000000000000000000000000000000600052603260045260246000fd5b906000526020600020906007020160050160003373ffffffffffffffffffffffffffffffffffffffff1673ffffffffffffffffffffffffffffffffffffffff168152602001908152602001600020549081150290604051600060405180830381858888f19350505050158015610de3573d6000803e3d6000fd5b506000808281548110610e1f577f4e487b7100000000000000000000000000000000000000000000000000000000600052603260045260246000fd5b906000526020600020906007020160050160003373ffffffffffffffffffffffffffffffffffffffff1673ffffffffffffffffffffffffffffffffffffffff168152602001908152602001600020819055505050565b60008080549050905090565b6000801515610e8f83610b05565b151514610e9b57600080fd5b60005b600080549050811015610f1a578260008281548110610ee6577f4e487b7100000000000000000000000000000000000000000000000000000000600052603260045260246000fd5b9060005260206000209060070201600101541415610f075780915050610f20565b8080610f1290612040565b915050610e9e565b50600090505b919050565b6000610f3084610e81565b905060008181548110610f6c577f4e487b7100000000000000000000000000000000000000000000000000000000600052603260045260246000fd5b906000526020600020906007020160030160009054906101000a900460ff16610f9457600080fd5b60008181548110610fce577f4e487b7100000000000000000000000000000000000000000000000000000000600052603260045260246000fd5b906000526020600020906007020160000160009054906101000a900473ffffffffffffffffffffffffffffffffffffffff1673ffffffffffffffffffffffffffffffffffffffff163373ffffffffffffffffffffffffffffffffffffffff16141561103857600080fd5b60015460056110479190611f94565b60008281548110611081577f4e487b7100000000000000000000000000000000000000000000000000000000600052603260045260246000fd5b906000526020600020906007020160050160003373ffffffffffffffffffffffffffffffffffffffff1673ffffffffffffffffffffffffffffffffffffffff1681526020019081526020016000205410156110db57600080fd5b6110e3610897565b6000828154811061111d577f4e487b7100000000000000000000000000000000000000000000000000000000600052603260045260246000fd5b9060005260206000209060070201600201541161113957600080fd5b6001151560008281548110611177577f4e487b7100000000000000000000000000000000000000000000000000000000600052603260045260246000fd5b906000526020600020906007020160030160019054906101000a900460ff161515141561123c576111a88284610b95565b60001c600082815481106111e5577f4e487b7100000000000000000000000000000000000000000000000000000000600052603260045260246000fd5b906000526020600020906007020160060160003373ffffffffffffffffffffffffffffffffffffffff1673ffffffffffffffffffffffffffffffffffffffff1681526020019081526020016000208190555061135e565b60008181548110611276577f4e487b7100000000000000000000000000000000000000000000000000000000600052603260045260246000fd5b906000526020600020906007020160060160003373ffffffffffffffffffffffffffffffffffffffff1673ffffffffffffffffffffffffffffffffffffffff1681526020019081526020016000205483116112d057600080fd5b826000828154811061130b577f4e487b7100000000000000000000000000000000000000000000000000000000600052603260045260246000fd5b906000526020600020906007020160060160003373ffffffffffffffffffffffffffffffffffffffff1673ffffffffffffffffffffffffffffffffffffffff168152602001908152602001600020819055505b50505050565b61136d82610b05565b61137657600080fd5b60008080549050905060006001816001815401808255809150500390600052602060002090505060008082815481106113d8577f4e487b7100000000000000000000000000000000000000000000000000000000600052603260045260246000fd5b90600052602060002090600702019050600254436113f69190611f3e565b8160020181905550338160000160006101000a81548173ffffffffffffffffffffffffffffffffffffffff021916908373ffffffffffffffffffffffffffffffffffffffff160217905550828160030160016101000a81548160ff02191690831515021790555083816001018190555050505050565b60008061147883610e81565b9050600081815481106114b4577f4e487b7100000000000000000000000000000000000000000000000000000000600052603260045260246000fd5b906000526020600020906007020160050160003373ffffffffffffffffffffffffffffffffffffffff1673ffffffffffffffffffffffffffffffffffffffff16815260200190815260200160002054915050919050565b60008061151783610e81565b905060008181548110611553577f4e487b7100000000000000000000000000000000000000000000000000000000600052603260045260246000fd5b906000526020600020906007020160060160003373ffffffffffffffffffffffffffffffffffffffff1673ffffffffffffffffffffffffffffffffffffffff16815260200190815260200160002054915050919050565b60006115b582610e81565b9050600081815481106115f1577f4e487b7100000000000000000000000000000000000000000000000000000000600052603260045260246000fd5b906000526020600020906007020160000160009054906101000a900473ffffffffffffffffffffffffffffffffffffffff1673ffffffffffffffffffffffffffffffffffffffff163373ffffffffffffffffffffffffffffffffffffffff161461165a57600080fd5b60008181548110611694577f4e487b7100000000000000000000000000000000000000000000000000000000600052603260045260246000fd5b90600052602060002090600702016002015443116116b157600080fd5b60005b600082815481106116ee577f4e487b7100000000000000000000000000000000000000000000000000000000600052603260045260246000fd5b906000526020600020906007020160040180549050811015611a88576000808381548110611745577f4e487b7100000000000000000000000000000000000000000000000000000000600052603260045260246000fd5b9060005260206000209060070201600401828154811061178e577f4e487b7100000000000000000000000000000000000000000000000000000000600052603260045260246000fd5b9060005260206000200160009054906101000a900473ffffffffffffffffffffffffffffffffffffffff16905060008084815481106117f6577f4e487b7100000000000000000000000000000000000000000000000000000000600052603260045260246000fd5b90600052602060002090600702016005016000808681548110611842577f4e487b7100000000000000000000000000000000000000000000000000000000600052603260045260246000fd5b9060005260206000209060070201600401858154811061188b577f4e487b7100000000000000000000000000000000000000000000000000000000600052603260045260246000fd5b9060005260206000200160009054906101000a900473ffffffffffffffffffffffffffffffffffffffff1673ffffffffffffffffffffffffffffffffffffffff1673ffffffffffffffffffffffffffffffffffffffff1681526020019081526020016000205490508173ffffffffffffffffffffffffffffffffffffffff166108fc829081150290604051600060405180830381858888f19350505050158015611939573d6000803e3d6000fd5b506000808581548110611975577f4e487b7100000000000000000000000000000000000000000000000000000000600052603260045260246000fd5b906000526020600020906007020160050160008087815481106119c1577f4e487b7100000000000000000000000000000000000000000000000000000000600052603260045260246000fd5b90600052602060002090600702016004018681548110611a0a577f4e487b7100000000000000000000000000000000000000000000000000000000600052603260045260246000fd5b9060005260206000200160009054906101000a900473ffffffffffffffffffffffffffffffffffffffff1673ffffffffffffffffffffffffffffffffffffffff1673ffffffffffffffffffffffffffffffffffffffff1681526020019081526020016000208190555050508080611a8090612040565b9150506116b4565b505050565b600080611a9983610e81565b90503460008281548110611ad6577f4e487b7100000000000000000000000000000000000000000000000000000000600052603260045260246000fd5b906000526020600020906007020160050160003373ffffffffffffffffffffffffffffffffffffffff1673ffffffffffffffffffffffffffffffffffffffff1681526020019081526020016000206000828254611b339190611f3e565b9250508190555060008181548110611b74577f4e487b7100000000000000000000000000000000000000000000000000000000600052603260045260246000fd5b9060005260206000209060070201600401339080600181540180825580915050600190039060005260206000200160009091909190916101000a81548173ffffffffffffffffffffffffffffffffffffffff021916908373ffffffffffffffffffffffffffffffffffffffff16021790555060008181548110611c20577f4e487b7100000000000000000000000000000000000000000000000000000000600052603260045260246000fd5b906000526020600020906007020160050160003373ffffffffffffffffffffffffffffffffffffffff1673ffffffffffffffffffffffffffffffffffffffff16815260200190815260200160002054915050919050565b600080611c8383610e81565b905060008181548110611cbf577f4e487b7100000000000000000000000000000000000000000000000000000000600052603260045260246000fd5b906000526020600020906007020160020154915050919050565b600081359050611ce8816120b8565b92915050565b600081359050611cfd816120cf565b92915050565b600081359050611d12816120e6565b92915050565b60008060408385031215611d2b57600080fd5b6000611d3985828601611cd9565b9250506020611d4a85828601611d03565b9150509250929050565b600060208284031215611d6657600080fd5b6000611d7484828501611d03565b91505092915050565b60008060408385031215611d9057600080fd5b6000611d9e85828601611d03565b9250506020611daf85828601611cee565b9150509250929050565b60008060408385031215611dcc57600080fd5b6000611dda85828601611d03565b9250506020611deb85828601611d03565b9150509250929050565b600080600060608486031215611e0a57600080fd5b6000611e1886828701611d03565b9350506020611e2986828701611d03565b9250506040611e3a86828701611d03565b9150509250925092565b611e4d81611fee565b82525050565b611e5c81612000565b82525050565b611e6b8161200c565b82525050565b611e7a81612036565b82525050565b6000602082019050611e956000830184611e44565b92915050565b6000604082019050611eb06000830185611e44565b611ebd6020830184611e71565b9392505050565b6000602082019050611ed96000830184611e53565b92915050565b6000602082019050611ef46000830184611e62565b92915050565b6000602082019050611f0f6000830184611e71565b92915050565b6000604082019050611f2a6000830185611e71565b611f376020830184611e71565b9392505050565b6000611f4982612036565b9150611f5483612036565b9250827fffffffffffffffffffffffffffffffffffffffffffffffffffffffffffffffff03821115611f8957611f88612089565b5b828201905092915050565b6000611f9f82612036565b9150611faa83612036565b9250817fffffffffffffffffffffffffffffffffffffffffffffffffffffffffffffffff0483118215151615611fe357611fe2612089565b5b828202905092915050565b6000611ff982612016565b9050919050565b60008115159050919050565b6000819050919050565b600073ffffffffffffffffffffffffffffffffffffffff82169050919050565b6000819050919050565b600061204b82612036565b91507fffffffffffffffffffffffffffffffffffffffffffffffffffffffffffffffff82141561207e5761207d612089565b5b600182019050919050565b7f4e487b7100000000000000000000000000000000000000000000000000000000600052601160045260246000fd5b6120c181611fee565b81146120cc57600080fd5b50565b6120d881612000565b81146120e357600080fd5b50565b6120ef81612036565b81146120fa57600080fd5b5056fea264697066735822122058a1dc2adc8279d11938758af89f50f76bc14a511a2c89dde77181badbdeadeb64736f6c63430008000033",
  "immutableReferences": {},
  "source": "// SPDX-License-Identifier: MIT\npragma solidity ^0.8.0;\n\ncontract AuctionHouse {\n\n    struct Auction {\n        address owner;\n        uint user_identifier;\n        uint endtime; \n        bool active; \n        bool sealed_auction; \n        address[] bidders;\n        mapping (address => uint) deposit;   \n        mapping (address => uint) bids;\n    }\n\n    Auction[] auctions;\n\n    // define variables\n    uint256 ether_var = 10**18;\n    uint256 interval = 8; \n    \n\n    function hashSeriesNumber(uint256 nonce, uint256 number) public pure returns (bytes32) {\n        // hash the value of a string and number \n        return keccak256(abi.encode(number, nonce));\n    }\n\n    function get_owner(uint identifier) public view returns (address){\n        // returns the address of the owner for certain id \n        uint256 idx = get_idx_from_identifier(identifier);\n        return auctions[idx].owner;\n    }\n\n    function is_owner(address addr, uint identifier) public view returns (bool){\n        // returns true/false of an address with idx\n        uint256 idx = get_idx_from_identifier(identifier);\n        if (addr == auctions[idx].owner){\n            return true;\n        }\n        else{\n            return false;\n        }\n    }\n\n    function is_sealed(uint identifier) public view returns (bool){\n        // returns true/false if the auction is sealed\n        uint256 idx = get_idx_from_identifier(identifier);\n        if (auctions[idx].sealed_auction == true){\n            return true;\n        }\n        else{\n            return false;\n        }\n    }\n\n    function get_idx_from_identifier(uint identifier) public view returns (uint){\n        // get the id of an auction given an identifier\n        require(identifier_is_unused(identifier)==false);\n        for (uint256 idx = 0; idx < auctions.length; idx++) {\n            if (auctions[idx].user_identifier == identifier){\n                return idx;\n            }\n        }\n        return 0;\n    }\n\n    function identifier_is_unused(uint identifier) public view returns (bool){\n        // check if the identifier is already in use\n        for (uint256 idx = 0; idx < auctions.length; idx++) {\n            if (auctions[idx].user_identifier == identifier){\n                return false;\n            }\n        }\n        return true;\n    }\n\n    function get_number_of_auctions() public view returns (uint){\n        // returns the number of auctions\n        return auctions.length;\n    }\n\n    function deploy_auction(uint identifier, bool type_sealed) public payable{\n        // check if identifier is already used\n        require(identifier_is_unused(identifier));\n        // deploy auction\n        uint idx = auctions.length;\n        auctions.push();\n        Auction storage new_auct = auctions[idx];\n        new_auct.endtime = block.number + interval;\n        new_auct.owner = msg.sender;\n        new_auct.sealed_auction = type_sealed;\n        new_auct.user_identifier = identifier;\n    }\n\n    function start_auction(uint identifier) public payable {\n        // start the auction, setting timelimit, can only not be reactivated\n        uint256 idx = get_idx_from_identifier(identifier);\n        require(msg.sender == auctions[idx].owner);\n        require(auctions[idx].active == false);\n        auctions[idx].endtime = block.number + interval;\n        auctions[idx].active = true;\n        \n    }\n\n    function deposit_money(uint identifier) public payable returns (uint){\n        // Deposit money in order to be able to participate\n        uint256 idx = get_idx_from_identifier(identifier);\n        auctions[idx].deposit[msg.sender] += msg.value;\n        auctions[idx].bidders.push(msg.sender);\n        return auctions[idx].deposit[msg.sender];\n    }\n\n    function get_deposit_balance(uint identifier) public view returns (uint){\n        // gets the balances of bidders\n        uint256 idx = get_idx_from_identifier(identifier);\n        return auctions[idx].deposit[msg.sender];\n    }\n\n    function set_bid(uint identifier, uint bid_value, uint nonce) public {\n        uint256 idx = get_idx_from_identifier(identifier);\n        // contract has to be active\n        require(auctions[idx].active);\n        // the owner can not bid\n        require(msg.sender != auctions[idx].owner);\n        // you can not bid if you have not deposit inital money (5 Ether)\n        require(auctions[idx].deposit[msg.sender]>=5*ether_var);\n        // only accept bid if in valid time period\n        require(auctions[idx].endtime > create_timestamp());\n\n        if (auctions[idx].sealed_auction == true){\n            auctions[idx].bids[msg.sender] = uint256(hashSeriesNumber(nonce, bid_value));\n        }\n        else{\n            require(bid_value > auctions[idx].bids[msg.sender]);\n            auctions[idx].bids[msg.sender] = bid_value;\n        }\n    }\n\n    function get_bid(uint identifier) public view returns (uint){\n        // returns last/highest bid of bidder\n        uint256 idx = get_idx_from_identifier(identifier);\n        return auctions[idx].bids[msg.sender];\n    }\n\n    function get_endtime(uint identifier) public view returns (uint){\n        // returns the endtime\n        uint256 idx = get_idx_from_identifier(identifier);\n        return auctions[idx].endtime;\n    }\n\n    function create_timestamp() public view returns (uint256){\n        // creates timestamp\n        return block.number;\n    }\n\n    function kill(uint identifier) public{\n        // transfers back all deposts for auction id\n        uint256 idx = get_idx_from_identifier(identifier);\n        require(msg.sender == auctions[idx].owner);\n        require(block.number > auctions[idx].endtime);\n        for (uint256 i = 0; i < auctions[idx].bidders.length; i++) {\n            address bidder = auctions[idx].bidders[i];\n            uint deposit = auctions[idx].deposit[auctions[idx].bidders[i]];\n            payable(bidder).transfer(deposit);\n            auctions[idx].deposit[auctions[idx].bidders[i]] = 0;\n        }\n    }    \n\n    function get_winner(uint identifier) public view returns (address, uint) {\n        // gets the winner in an open price auction\n        uint256 idx = get_idx_from_identifier(identifier);\n        require((auctions[idx].endtime < block.number));\n        require(auctions[idx].sealed_auction == false);\n        uint winning_bid=0;\n        address winner_address=get_owner(identifier);\n        for (uint256 i = 0; i < auctions[idx].bidders.length; i++) {\n            address curr_bidder = auctions[idx].bidders[i];\n            if (auctions[idx].bids[curr_bidder] > winning_bid){\n                winning_bid = auctions[idx].bids[curr_bidder];\n                winner_address = curr_bidder;\n            }\n        }  \n        return (winner_address, winning_bid);\n    }\n\n    function refund_deposit(uint identifier) public {\n        // refund the deposit if action is not active or if time is over\n        uint256 idx = get_idx_from_identifier(identifier);\n        require(auctions[idx].active == false || auctions[idx].endtime < block.number);\n        payable(msg.sender).transfer(auctions[idx].deposit[msg.sender]);\n        auctions[idx].deposit[msg.sender] = 0;\n    }\n}\n",
  "sourcePath": "/Users/yannickklose/Library/Mobile Documents/com~apple~CloudDocs/Documents/07 SoSe21/Blockchain Technolgies/BlockchainProject/contracts/AuctionHouse.sol",
  "compiler": {
    "name": "solc",
    "version": "0.8.0+commit.c7dfd78e.Emscripten.clang"
  },
  "schemaVersion": "3.4.0",
  "updatedAt": "2021-06-03T15:29:01.993Z",
  "devdoc": {
    "kind": "dev",
    "methods": {},
    "version": 1
  },
  "userdoc": {
    "kind": "user",
    "methods": {},
    "version": 1
  }
}