{
  "contractName": "AuctionHouse",
  "abi": [
    {
      "inputs": [],
      "stateMutability": "payable",
      "type": "constructor",
      "payable": true
    },
    {
      "anonymous": false,
      "inputs": [
        {
          "indexed": true,
          "internalType": "address",
          "name": "accountAddress",
          "type": "address"
        },
        {
          "indexed": false,
          "internalType": "uint256",
          "name": "amount",
          "type": "uint256"
        }
      ],
      "name": "LogDepositMade",
      "type": "event"
    },
    {
      "anonymous": false,
      "inputs": [
        {
          "indexed": true,
          "internalType": "address",
          "name": "previousOwner",
          "type": "address"
        },
        {
          "indexed": true,
          "internalType": "address",
          "name": "newOwner",
          "type": "address"
        }
      ],
      "name": "OwnershipTransferred",
      "type": "event"
    },
    {
      "anonymous": false,
      "inputs": [
        {
          "indexed": true,
          "internalType": "address",
          "name": "_from",
          "type": "address"
        },
        {
          "indexed": true,
          "internalType": "address",
          "name": "_to",
          "type": "address"
        },
        {
          "indexed": false,
          "internalType": "uint256",
          "name": "_value",
          "type": "uint256"
        }
      ],
      "name": "Transfer",
      "type": "event"
    },
    {
      "inputs": [],
      "name": "owner",
      "outputs": [
        {
          "internalType": "address",
          "name": "",
          "type": "address"
        }
      ],
      "stateMutability": "view",
      "type": "function",
      "constant": true
    },
    {
      "inputs": [],
      "name": "renounceOwnership",
      "outputs": [],
      "stateMutability": "nonpayable",
      "type": "function"
    },
    {
      "inputs": [
        {
          "internalType": "address",
          "name": "newOwner",
          "type": "address"
        }
      ],
      "name": "transferOwnership",
      "outputs": [],
      "stateMutability": "nonpayable",
      "type": "function"
    },
    {
      "inputs": [],
      "name": "start_auction",
      "outputs": [],
      "stateMutability": "payable",
      "type": "function",
      "payable": true
    },
    {
      "inputs": [],
      "name": "deposit_money",
      "outputs": [
        {
          "internalType": "uint256",
          "name": "",
          "type": "uint256"
        }
      ],
      "stateMutability": "payable",
      "type": "function",
      "payable": true
    },
    {
      "inputs": [],
      "name": "get_deposit_balance",
      "outputs": [
        {
          "internalType": "uint256",
          "name": "",
          "type": "uint256"
        }
      ],
      "stateMutability": "view",
      "type": "function",
      "constant": true
    },
    {
      "inputs": [
        {
          "internalType": "uint256",
          "name": "bid_value",
          "type": "uint256"
        }
      ],
      "name": "set_bid",
      "outputs": [],
      "stateMutability": "nonpayable",
      "type": "function"
    },
    {
      "inputs": [],
      "name": "get_bid",
      "outputs": [
        {
          "internalType": "uint256",
          "name": "",
          "type": "uint256"
        }
      ],
      "stateMutability": "view",
      "type": "function",
      "constant": true
    },
    {
      "inputs": [],
      "name": "get_endtime",
      "outputs": [
        {
          "internalType": "uint256",
          "name": "",
          "type": "uint256"
        }
      ],
      "stateMutability": "view",
      "type": "function",
      "constant": true
    },
    {
      "inputs": [],
      "name": "finish_auction",
      "outputs": [],
      "stateMutability": "nonpayable",
      "type": "function"
    },
    {
      "inputs": [],
      "name": "view_winner",
      "outputs": [
        {
          "internalType": "address",
          "name": "",
          "type": "address"
        },
        {
          "internalType": "uint256",
          "name": "",
          "type": "uint256"
        },
        {
          "internalType": "uint256",
          "name": "",
          "type": "uint256"
        }
      ],
      "stateMutability": "view",
      "type": "function",
      "constant": true
    },
    {
      "inputs": [],
      "name": "get_timestamp",
      "outputs": [
        {
          "internalType": "uint256",
          "name": "",
          "type": "uint256"
        }
      ],
      "stateMutability": "view",
      "type": "function",
      "constant": true
    }
  ],
  "bytecode": "0x6080604052670de0b6b3a764000060065560056008556000600960006101000a81548160ff02191690831515021790555060006100406100e360201b60201c565b9050806000806101000a81548173ffffffffffffffffffffffffffffffffffffffff021916908373ffffffffffffffffffffffffffffffffffffffff1602179055508073ffffffffffffffffffffffffffffffffffffffff16600073ffffffffffffffffffffffffffffffffffffffff167f8be0079c531659141344cd1fd0a4f28419497f9722a3daafe3b4186f6b6457e060405160405180910390a3506100eb565b600033905090565b61121f806100fa6000396000f3fe6080604052600436106100a75760003560e01c8063cc80943111610064578063cc8094311461019a578063d2832cc2146101c5578063e0b4109b146101e3578063f18ffff8146101fa578063f2fde38b14610204578063fc8c36a61461022d576100a7565b80630c676443146100ac5780632212dbc3146100d75780633c5f42e114610102578063715018a61461012b5780638da5cb5b14610142578063a2a58c681461016d575b600080fd5b3480156100b857600080fd5b506100c1610258565b6040516100ce919061102b565b60405180910390f35b3480156100e357600080fd5b506100ec610262565b6040516100f9919061102b565b60405180910390f35b34801561010e57600080fd5b5061012960048036038101906101249190610eac565b6102a9565b005b34801561013757600080fd5b50610140610460565b005b34801561014e57600080fd5b5061015761059a565b6040516101649190610f99565b60405180910390f35b34801561017957600080fd5b506101826105c3565b60405161019193929190610fb4565b60405180910390f35b3480156101a657600080fd5b506101af61076d565b6040516101bc919061102b565b60405180910390f35b6101cd6107b4565b6040516101da919061102b565b60405180910390f35b3480156101ef57600080fd5b506101f86109a1565b005b610202610b8c565b005b34801561021057600080fd5b5061022b60048036038101906102269190610e83565b610c61565b005b34801561023957600080fd5b50610242610e0a565b60405161024f919061102b565b60405180910390f35b6000600754905090565b6000600460003373ffffffffffffffffffffffffffffffffffffffff1673ffffffffffffffffffffffffffffffffffffffff16815260200190815260200160002054905090565b6102b161059a565b73ffffffffffffffffffffffffffffffffffffffff163373ffffffffffffffffffffffffffffffffffffffff1614156102e957600080fd5b60065460056102f891906110ad565b600360003373ffffffffffffffffffffffffffffffffffffffff1673ffffffffffffffffffffffffffffffffffffffff16815260200190815260200160002054101561034357600080fd5b600960009054906101000a900460ff1661035c57600080fd5b600260003373ffffffffffffffffffffffffffffffffffffffff1673ffffffffffffffffffffffffffffffffffffffff16815260200190815260200160002054811180156103aa5750600081115b6103b357600080fd5b42600754116103c157600080fd5b80600260003373ffffffffffffffffffffffffffffffffffffffff1673ffffffffffffffffffffffffffffffffffffffff1681526020019081526020016000208190555042600460003373ffffffffffffffffffffffffffffffffffffffff1673ffffffffffffffffffffffffffffffffffffffff16815260200190815260200160002081905550600854426104579190611057565b60078190555050565b610468610e51565b73ffffffffffffffffffffffffffffffffffffffff1661048661059a565b73ffffffffffffffffffffffffffffffffffffffff16146104dc576040517f08c379a00000000000000000000000000000000000000000000000000000000081526004016104d39061100b565b60405180910390fd5b600073ffffffffffffffffffffffffffffffffffffffff1660008054906101000a900473ffffffffffffffffffffffffffffffffffffffff1673ffffffffffffffffffffffffffffffffffffffff167f8be0079c531659141344cd1fd0a4f28419497f9722a3daafe3b4186f6b6457e060405160405180910390a360008060006101000a81548173ffffffffffffffffffffffffffffffffffffffff021916908373ffffffffffffffffffffffffffffffffffffffff160217905550565b60008060009054906101000a900473ffffffffffffffffffffffffffffffffffffffff16905090565b6000806000600960009054906101000a900460ff16156105e257600080fd5b600080600090506000600554116105f857600080fd5b60005b6005548110156106de5760006001600083815260200190815260200160002060009054906101000a900473ffffffffffffffffffffffffffffffffffffffff16905082600260008373ffffffffffffffffffffffffffffffffffffffff1673ffffffffffffffffffffffffffffffffffffffff1681526020019081526020016000205411156106ca57600260008273ffffffffffffffffffffffffffffffffffffffff1673ffffffffffffffffffffffffffffffffffffffff1681526020019081526020016000205492508093505b5080806106d690611143565b9150506105fb565b5081600260008473ffffffffffffffffffffffffffffffffffffffff1673ffffffffffffffffffffffffffffffffffffffff16815260200190815260200160002054600460008573ffffffffffffffffffffffffffffffffffffffff1673ffffffffffffffffffffffffffffffffffffffff168152602001908152602001600020549450945094505050909192565b6000600360003373ffffffffffffffffffffffffffffffffffffffff1673ffffffffffffffffffffffffffffffffffffffff16815260200190815260200160002054905090565b60006107be61059a565b73ffffffffffffffffffffffffffffffffffffffff163373ffffffffffffffffffffffffffffffffffffffff1614156107f657600080fd5b6000341161080357600080fd5b6000600360003373ffffffffffffffffffffffffffffffffffffffff1673ffffffffffffffffffffffffffffffffffffffff1681526020019081526020016000205414156108b8573360016000600554815260200190815260200160002060006101000a81548173ffffffffffffffffffffffffffffffffffffffff021916908373ffffffffffffffffffffffffffffffffffffffff160217905550600560008154809291906108b290611143565b91905055505b34600360003373ffffffffffffffffffffffffffffffffffffffff1673ffffffffffffffffffffffffffffffffffffffff16815260200190815260200160002060008282546109079190611057565b925050819055503373ffffffffffffffffffffffffffffffffffffffff167fa8126f7572bb1fdeae5b5aa9ec126438b91f658a07873f009d041ae690f3a19334604051610954919061102b565b60405180910390a2600360003373ffffffffffffffffffffffffffffffffffffffff1673ffffffffffffffffffffffffffffffffffffffff16815260200190815260200160002054905090565b6109a9610e51565b73ffffffffffffffffffffffffffffffffffffffff166109c761059a565b73ffffffffffffffffffffffffffffffffffffffff1614610a1d576040517f08c379a0000000000000000000000000000000000000000000000000000000008152600401610a149061100b565b60405180910390fd5b600960009054906101000a900460ff16610a3657600080fd5b6007544211610a4457600080fd5b6000600960006101000a81548160ff02191690831515021790555060005b600554811015610b895760006001600083815260200190815260200160002060009054906101000a900473ffffffffffffffffffffffffffffffffffffffff1690506000600360008373ffffffffffffffffffffffffffffffffffffffff1673ffffffffffffffffffffffffffffffffffffffff1681526020019081526020016000205490506000600360008473ffffffffffffffffffffffffffffffffffffffff1673ffffffffffffffffffffffffffffffffffffffff168152602001908152602001600020819055508173ffffffffffffffffffffffffffffffffffffffff166108fc829081150290604051600060405180830381858888f19350505050158015610b73573d6000803e3d6000fd5b5050508080610b8190611143565b915050610a62565b50565b610b94610e51565b73ffffffffffffffffffffffffffffffffffffffff16610bb261059a565b73ffffffffffffffffffffffffffffffffffffffff1614610c08576040517f08c379a0000000000000000000000000000000000000000000000000000000008152600401610bff9061100b565b60405180910390fd5b600960009054906101000a900460ff16158015610c2757506000600754145b610c3057600080fd5b60085442610c3e9190611057565b6007819055506001600960006101000a81548160ff021916908315150217905550565b610c69610e51565b73ffffffffffffffffffffffffffffffffffffffff16610c8761059a565b73ffffffffffffffffffffffffffffffffffffffff1614610cdd576040517f08c379a0000000000000000000000000000000000000000000000000000000008152600401610cd49061100b565b60405180910390fd5b600073ffffffffffffffffffffffffffffffffffffffff168173ffffffffffffffffffffffffffffffffffffffff161415610d4d576040517f08c379a0000000000000000000000000000000000000000000000000000000008152600401610d4490610feb565b60405180910390fd5b8073ffffffffffffffffffffffffffffffffffffffff1660008054906101000a900473ffffffffffffffffffffffffffffffffffffffff1673ffffffffffffffffffffffffffffffffffffffff167f8be0079c531659141344cd1fd0a4f28419497f9722a3daafe3b4186f6b6457e060405160405180910390a3806000806101000a81548173ffffffffffffffffffffffffffffffffffffffff021916908373ffffffffffffffffffffffffffffffffffffffff16021790555050565b6000600260003373ffffffffffffffffffffffffffffffffffffffff1673ffffffffffffffffffffffffffffffffffffffff16815260200190815260200160002054905090565b600033905090565b600081359050610e68816111bb565b92915050565b600081359050610e7d816111d2565b92915050565b600060208284031215610e9557600080fd5b6000610ea384828501610e59565b91505092915050565b600060208284031215610ebe57600080fd5b6000610ecc84828501610e6e565b91505092915050565b610ede81611107565b82525050565b6000610ef1602683611046565b91507f4f776e61626c653a206e6577206f776e657220697320746865207a65726f206160008301527f64647265737300000000000000000000000000000000000000000000000000006020830152604082019050919050565b6000610f57602083611046565b91507f4f776e61626c653a2063616c6c6572206973206e6f7420746865206f776e65726000830152602082019050919050565b610f9381611139565b82525050565b6000602082019050610fae6000830184610ed5565b92915050565b6000606082019050610fc96000830186610ed5565b610fd66020830185610f8a565b610fe36040830184610f8a565b949350505050565b6000602082019050818103600083015261100481610ee4565b9050919050565b6000602082019050818103600083015261102481610f4a565b9050919050565b60006020820190506110406000830184610f8a565b92915050565b600082825260208201905092915050565b600061106282611139565b915061106d83611139565b9250827fffffffffffffffffffffffffffffffffffffffffffffffffffffffffffffffff038211156110a2576110a161118c565b5b828201905092915050565b60006110b882611139565b91506110c383611139565b9250817fffffffffffffffffffffffffffffffffffffffffffffffffffffffffffffffff04831182151516156110fc576110fb61118c565b5b828202905092915050565b600061111282611119565b9050919050565b600073ffffffffffffffffffffffffffffffffffffffff82169050919050565b6000819050919050565b600061114e82611139565b91507fffffffffffffffffffffffffffffffffffffffffffffffffffffffffffffffff8214156111815761118061118c565b5b600182019050919050565b7f4e487b7100000000000000000000000000000000000000000000000000000000600052601160045260246000fd5b6111c481611107565b81146111cf57600080fd5b50565b6111db81611139565b81146111e657600080fd5b5056fea2646970667358221220c97ddc3f32b25d455a4b30306f649193f73ff332c145829605fe237445b9f21b64736f6c63430008000033",
  "immutableReferences": {},
  "source": "pragma solidity ^0.8.0;\n// SPDX-License-Identifier: UNLICENSED\nimport \"@openzeppelin/contracts/access/Ownable.sol\";\n\ncontract AuctionHouse is Ownable {\n    mapping (uint => address payable) private bidders;\n    mapping (address => uint) private bids;\n    mapping (address => uint) private deposit;\n    mapping (address => uint) private timestamp;\n\n    // define variables\n    uint _total_bidders;\n    uint256 ether_var = 10**18;\n    uint256 endtime;\n    uint256 interval = 5; // If nothing happens for $interval blocks the auction is over\n    bool active = false;\n\n    // Log the event about a deposit being made by an address and its amount\n    event LogDepositMade(address indexed accountAddress, uint amount);\n    event Transfer(address indexed _from, address indexed _to, uint256 _value);\n\n    constructor() public payable {}\n\n    modifier onlyNotOwner {\n        require(msg.sender != owner());\n        _;\n    }\n\n    modifier onlyDeposited {\n        require(deposit[msg.sender]>=5*ether_var);\n        _;\n    }\n\n    function start_auction() public payable onlyOwner {\n        //start the auction, setting timelimit, can only not be reactivated\n        require(!active && endtime == 0); // Contract should not already be finished\n        endtime = block.timestamp + interval;\n        active = true;\n    }\n\n    function deposit_money() public payable onlyNotOwner returns (uint) {\n        // Deposit money in order to be able to participate\n        require(msg.value > 0);\n        if (deposit[msg.sender] == 0) {\n            // This sender has not made a deposit yet\n            // Lets save that it has made a deposit so we can iterate over all senders later\n            bidders[_total_bidders] = payable(msg.sender);\n            _total_bidders++;\n        }\n        deposit[msg.sender] += msg.value;\n        emit LogDepositMade(msg.sender, msg.value);\n        return deposit[msg.sender];\n    }\n\n    function get_deposit_balance() public view returns (uint) {\n        // gets the balances of bidders\n        return deposit[msg.sender];\n    }\n\n    function set_bid(uint bid_value) public onlyNotOwner onlyDeposited {\n        // contract has to be active\n        require(active);\n        // only accept bid if its higher than the previous bid (and > 0)\n        require(bid_value > bids[msg.sender] && bid_value > 0);\n        // only accept bid if in valid time period\n        require(endtime > block.timestamp);\n        bids[msg.sender] = bid_value;\n        timestamp[msg.sender] = block.timestamp;\n        endtime = block.timestamp + interval;\n\n    }\n\n    function get_bid() public view returns (uint) {\n        // returns last/highest bid of bidder\n        return bids[msg.sender];\n    }\n\n    function get_endtime() public view returns (uint) {\n        // returns the endtime\n        return endtime;\n    }\n\n    /**\n    the owner can finish the auction, at which point the deposits will be paid back\n    and the winner can be determined by anyone by viewing view_winner()\n     */\n    function finish_auction() public onlyOwner {\n        require(active);\n        require(block.timestamp > endtime);\n        active = false;\n        // TODO now the owner has to pay the gas to return the deposit\n        // but i think thats good because the owner profits from the gas deposit\n        for (uint256 i = 0; i < _total_bidders; i++) {\n            address payable curr = bidders[i];\n            uint deposited = deposit[curr];\n            deposit[curr] = 0;\n            curr.transfer(deposited);\n        }\n    }\n\n    /**\n    if the contract is not active anymore\n     */\n    function view_winner() public view returns (address, uint, uint) {\n        require(!active);\n        address winner;\n        uint best_bid = 0;\n        require(_total_bidders > 0);\n        for (uint256 i = 0; i < _total_bidders; i++) {\n            address curr = bidders[i];\n            if (bids[curr] > best_bid) {\n                best_bid = bids[curr];\n                winner = curr;\n            }\n        }\n        return (winner, bids[winner], timestamp[winner]);\n    }\n\n    function get_timestamp() public view returns (uint) {\n        // returns the timestamp of the last/highest bid of the bidder\n        // Probably not secure! (TODO: add verification like in lecture 1)\n        return timestamp[msg.sender];\n    }\n}\n",
  "sourcePath": "/home/trever/git/BlockchainProject/contracts/AuctionHouse.sol",
  "compiler": {
    "name": "solc",
    "version": "0.8.0+commit.c7dfd78e.Emscripten.clang"
  },
  "schemaVersion": "3.4.1",
  "updatedAt": "2021-05-14T21:00:47.874Z",
  "networkType": "ethereum",
  "devdoc": {
    "kind": "dev",
    "methods": {
      "owner()": {
        "details": "Returns the address of the current owner."
      },
      "renounceOwnership()": {
        "details": "Leaves the contract without owner. It will not be possible to call `onlyOwner` functions anymore. Can only be called by the current owner. NOTE: Renouncing ownership will leave the contract without an owner, thereby removing any functionality that is only available to the owner."
      },
      "transferOwnership(address)": {
        "details": "Transfers ownership of the contract to a new account (`newOwner`). Can only be called by the current owner."
      }
    },
    "version": 1
  },
  "userdoc": {
    "kind": "user",
    "methods": {
      "finish_auction()": {
        "notice": "the owner can finish the auction, at which point the deposits will be paid back and the winner can be determined by anyone by viewing view_winner()"
      },
      "view_winner()": {
        "notice": "if the contract is not active anymore"
      }
    },
    "version": 1
  }
}