{
  "contractName": "AuctionHouse",
  "abi": [
    {
      "anonymous": false,
      "inputs": [
        {
          "indexed": true,
          "internalType": "address",
          "name": "owner",
          "type": "address"
        },
        {
          "indexed": false,
          "internalType": "uint256",
          "name": "idx",
          "type": "uint256"
        },
        {
          "indexed": false,
          "internalType": "uint256",
          "name": "identifier",
          "type": "uint256"
        },
        {
          "indexed": false,
          "internalType": "bool",
          "name": "sealed_auction",
          "type": "bool"
        }
      ],
      "name": "AuctionDeployed",
      "type": "event"
    },
    {
      "anonymous": false,
      "inputs": [
        {
          "indexed": true,
          "internalType": "address",
          "name": "sender",
          "type": "address"
        },
        {
          "indexed": false,
          "internalType": "uint256",
          "name": "value",
          "type": "uint256"
        },
        {
          "indexed": false,
          "internalType": "uint256",
          "name": "idx",
          "type": "uint256"
        }
      ],
      "name": "DepositEvent",
      "type": "event"
    },
    {
      "anonymous": false,
      "inputs": [
        {
          "indexed": true,
          "internalType": "address",
          "name": "sender",
          "type": "address"
        },
        {
          "indexed": false,
          "internalType": "uint256",
          "name": "value",
          "type": "uint256"
        },
        {
          "indexed": false,
          "internalType": "uint256",
          "name": "idx",
          "type": "uint256"
        }
      ],
      "name": "OpenBidEvent",
      "type": "event"
    },
    {
      "anonymous": false,
      "inputs": [
        {
          "indexed": true,
          "internalType": "address",
          "name": "sender",
          "type": "address"
        },
        {
          "indexed": false,
          "internalType": "uint256",
          "name": "idx",
          "type": "uint256"
        }
      ],
      "name": "SealedBidEvent",
      "type": "event"
    },
    {
      "inputs": [
        {
          "internalType": "uint256",
          "name": "nonce",
          "type": "uint256"
        },
        {
          "internalType": "uint256",
          "name": "number",
          "type": "uint256"
        }
      ],
      "name": "hashSeriesNumber",
      "outputs": [
        {
          "internalType": "uint256",
          "name": "",
          "type": "uint256"
        }
      ],
      "stateMutability": "pure",
      "type": "function"
    },
    {
      "inputs": [
        {
          "internalType": "uint256",
          "name": "idx",
          "type": "uint256"
        }
      ],
      "name": "get_owner",
      "outputs": [
        {
          "internalType": "address",
          "name": "",
          "type": "address"
        }
      ],
      "stateMutability": "view",
      "type": "function"
    },
    {
      "inputs": [
        {
          "internalType": "uint256",
          "name": "idx",
          "type": "uint256"
        }
      ],
      "name": "is_active",
      "outputs": [
        {
          "internalType": "bool",
          "name": "",
          "type": "bool"
        }
      ],
      "stateMutability": "view",
      "type": "function"
    },
    {
      "inputs": [
        {
          "internalType": "address",
          "name": "addr",
          "type": "address"
        },
        {
          "internalType": "uint256",
          "name": "idx",
          "type": "uint256"
        }
      ],
      "name": "is_owner",
      "outputs": [
        {
          "internalType": "bool",
          "name": "",
          "type": "bool"
        }
      ],
      "stateMutability": "view",
      "type": "function"
    },
    {
      "inputs": [
        {
          "internalType": "uint256",
          "name": "idx",
          "type": "uint256"
        }
      ],
      "name": "is_sealed",
      "outputs": [
        {
          "internalType": "bool",
          "name": "",
          "type": "bool"
        }
      ],
      "stateMutability": "view",
      "type": "function"
    },
    {
      "inputs": [
        {
          "internalType": "uint256",
          "name": "identifier",
          "type": "uint256"
        }
      ],
      "name": "get_idx_from_identifier",
      "outputs": [
        {
          "internalType": "uint256",
          "name": "",
          "type": "uint256"
        }
      ],
      "stateMutability": "view",
      "type": "function"
    },
    {
      "inputs": [
        {
          "internalType": "uint256",
          "name": "identifier",
          "type": "uint256"
        }
      ],
      "name": "identifier_is_unused",
      "outputs": [
        {
          "internalType": "bool",
          "name": "",
          "type": "bool"
        }
      ],
      "stateMutability": "view",
      "type": "function"
    },
    {
      "inputs": [],
      "name": "get_number_of_auctions",
      "outputs": [
        {
          "internalType": "uint256",
          "name": "",
          "type": "uint256"
        }
      ],
      "stateMutability": "view",
      "type": "function"
    },
    {
      "inputs": [
        {
          "internalType": "uint256",
          "name": "identifier",
          "type": "uint256"
        },
        {
          "internalType": "bool",
          "name": "type_sealed",
          "type": "bool"
        }
      ],
      "name": "deploy_auction",
      "outputs": [],
      "stateMutability": "payable",
      "type": "function"
    },
    {
      "inputs": [
        {
          "internalType": "uint256",
          "name": "idx",
          "type": "uint256"
        }
      ],
      "name": "start_auction",
      "outputs": [],
      "stateMutability": "payable",
      "type": "function"
    },
    {
      "inputs": [
        {
          "internalType": "uint256",
          "name": "idx",
          "type": "uint256"
        }
      ],
      "name": "deposit_money",
      "outputs": [
        {
          "internalType": "uint256",
          "name": "",
          "type": "uint256"
        }
      ],
      "stateMutability": "payable",
      "type": "function"
    },
    {
      "inputs": [
        {
          "internalType": "uint256",
          "name": "idx",
          "type": "uint256"
        }
      ],
      "name": "get_deposit_balance",
      "outputs": [
        {
          "internalType": "uint256",
          "name": "",
          "type": "uint256"
        }
      ],
      "stateMutability": "view",
      "type": "function"
    },
    {
      "inputs": [
        {
          "internalType": "uint256",
          "name": "idx",
          "type": "uint256"
        },
        {
          "internalType": "uint256",
          "name": "bid_value",
          "type": "uint256"
        }
      ],
      "name": "set_bid",
      "outputs": [],
      "stateMutability": "nonpayable",
      "type": "function"
    },
    {
      "inputs": [
        {
          "internalType": "uint256",
          "name": "idx",
          "type": "uint256"
        }
      ],
      "name": "get_bid",
      "outputs": [
        {
          "internalType": "uint256",
          "name": "",
          "type": "uint256"
        }
      ],
      "stateMutability": "view",
      "type": "function"
    },
    {
      "inputs": [
        {
          "internalType": "uint256",
          "name": "idx",
          "type": "uint256"
        }
      ],
      "name": "get_highest_bid",
      "outputs": [
        {
          "internalType": "uint256",
          "name": "",
          "type": "uint256"
        }
      ],
      "stateMutability": "view",
      "type": "function"
    },
    {
      "inputs": [
        {
          "internalType": "uint256",
          "name": "idx",
          "type": "uint256"
        }
      ],
      "name": "get_endtime",
      "outputs": [
        {
          "internalType": "uint256",
          "name": "",
          "type": "uint256"
        }
      ],
      "stateMutability": "view",
      "type": "function"
    },
    {
      "inputs": [],
      "name": "create_timestamp",
      "outputs": [
        {
          "internalType": "uint256",
          "name": "",
          "type": "uint256"
        }
      ],
      "stateMutability": "view",
      "type": "function"
    },
    {
      "inputs": [
        {
          "internalType": "uint256",
          "name": "idx",
          "type": "uint256"
        }
      ],
      "name": "kill",
      "outputs": [],
      "stateMutability": "nonpayable",
      "type": "function"
    },
    {
      "inputs": [
        {
          "internalType": "uint256",
          "name": "idx",
          "type": "uint256"
        }
      ],
      "name": "get_winner",
      "outputs": [
        {
          "internalType": "address",
          "name": "",
          "type": "address"
        },
        {
          "internalType": "uint256",
          "name": "",
          "type": "uint256"
        }
      ],
      "stateMutability": "view",
      "type": "function"
    },
    {
      "inputs": [
        {
          "internalType": "uint256",
          "name": "idx",
          "type": "uint256"
        }
      ],
      "name": "refund_deposit",
      "outputs": [],
      "stateMutability": "nonpayable",
      "type": "function"
    }
  ],
  "bytecode": "0x6080604052600860015534801561001557600080fd5b506124b6806100256000396000f3fe60806040526004361061011f5760003560e01c80637a2994eb116100a0578063a092c50411610064578063a092c5041461042a578063ce4339b714610467578063d29a0025146104a4578063e9117d89146104cd578063f458de9e146104fd5761011f565b80637a2994eb146103405780637a31ee4f146103695780637aaa33c514610394578063841af859146103d1578063970e2ba61461040e5761011f565b806344375fc7116100e757806344375fc714610230578063468298d41461024c5780636316033614610289578063686cfd29146102c657806372205875146103035761011f565b8063051a00d3146101245780630802ca28146101615780631c733acf1461018a578063243dc409146101c75780633ea3ff9314610205575b600080fd5b34801561013057600080fd5b5061014b60048036038101906101469190612141565b61053a565b604051610158919061228f565b60405180910390f35b34801561016d57600080fd5b50610188600480360381019061018391906121e2565b6105ee565b005b34801561019657600080fd5b506101b160048036038101906101ac919061217d565b610aaa565b6040516101be91906122aa565b60405180910390f35b3480156101d357600080fd5b506101ee60048036038101906101e9919061217d565b610d59565b6040516101fc929190612266565b60405180910390f35b34801561021157600080fd5b5061021a611076565b60405161022791906122aa565b60405180910390f35b61024a6004803603810190610245919061217d565b61107e565b005b34801561025857600080fd5b50610273600480360381019061026e919061217d565b61124e565b604051610280919061228f565b60405180910390f35b34801561029557600080fd5b506102b060048036038101906102ab919061217d565b6112c8565b6040516102bd919061228f565b60405180910390f35b3480156102d257600080fd5b506102ed60048036038101906102e891906121e2565b611358565b6040516102fa91906122aa565b60405180910390f35b34801561030f57600080fd5b5061032a6004803603810190610325919061217d565b61138e565b604051610337919061224b565b60405180910390f35b34801561034c57600080fd5b506103676004803603810190610362919061217d565b611402565b005b34801561037557600080fd5b5061037e61161f565b60405161038b91906122aa565b60405180910390f35b3480156103a057600080fd5b506103bb60048036038101906103b6919061217d565b61162b565b6040516103c8919061228f565b60405180910390f35b3480156103dd57600080fd5b506103f860048036038101906103f3919061217d565b61168c565b60405161040591906122aa565b60405180910390f35b610428600480360381019061042391906121a6565b611730565b005b34801561043657600080fd5b50610451600480360381019061044c919061217d565b61188a565b60405161045e91906122aa565b60405180910390f35b34801561047357600080fd5b5061048e6004803603810190610489919061217d565b61191b565b60405161049b91906122aa565b60405180910390f35b3480156104b057600080fd5b506104cb60048036038101906104c6919061217d565b6119ac565b005b6104e760048036038101906104e2919061217d565b611e81565b6040516104f491906122aa565b60405180910390f35b34801561050957600080fd5b50610524600480360381019061051f919061217d565b6120ae565b60405161053191906122aa565b60405180910390f35b6000808281548110610575577f4e487b7100000000000000000000000000000000000000000000000000000000600052603260045260246000fd5b906000526020600020906007020160000160009054906101000a900473ffffffffffffffffffffffffffffffffffffffff1673ffffffffffffffffffffffffffffffffffffffff168373ffffffffffffffffffffffffffffffffffffffff1614156105e357600190506105e8565b600090505b92915050565b60008281548110610628577f4e487b7100000000000000000000000000000000000000000000000000000000600052603260045260246000fd5b906000526020600020906007020160030160009054906101000a900460ff1661065057600080fd5b6000828154811061068a577f4e487b7100000000000000000000000000000000000000000000000000000000600052603260045260246000fd5b906000526020600020906007020160000160009054906101000a900473ffffffffffffffffffffffffffffffffffffffff1673ffffffffffffffffffffffffffffffffffffffff163373ffffffffffffffffffffffffffffffffffffffff1614156106f457600080fd5b674563918244f4000060008381548110610737577f4e487b7100000000000000000000000000000000000000000000000000000000600052603260045260246000fd5b906000526020600020906007020160050160003373ffffffffffffffffffffffffffffffffffffffff1673ffffffffffffffffffffffffffffffffffffffff16815260200190815260200160002054101561079157600080fd5b610799611076565b600083815481106107d3577f4e487b7100000000000000000000000000000000000000000000000000000000600052603260045260246000fd5b906000526020600020906007020160020154116107ef57600080fd5b600115156000838154811061082d577f4e487b7100000000000000000000000000000000000000000000000000000000600052603260045260246000fd5b906000526020600020906007020160030160019054906101000a900460ff161515141561093457806000838154811061088f577f4e487b7100000000000000000000000000000000000000000000000000000000600052603260045260246000fd5b906000526020600020906007020160060160003373ffffffffffffffffffffffffffffffffffffffff1673ffffffffffffffffffffffffffffffffffffffff168152602001908152602001600020819055503373ffffffffffffffffffffffffffffffffffffffff167f272ba7f62ee5837a19f4c8dd77198207a11e1cccea75d922a4eeccde4646a30d8360405161092791906122aa565b60405180910390a2610aa6565b6000828154811061096e577f4e487b7100000000000000000000000000000000000000000000000000000000600052603260045260246000fd5b906000526020600020906007020160060160003373ffffffffffffffffffffffffffffffffffffffff1673ffffffffffffffffffffffffffffffffffffffff1681526020019081526020016000205481116109c857600080fd5b8060008381548110610a03577f4e487b7100000000000000000000000000000000000000000000000000000000600052603260045260246000fd5b906000526020600020906007020160060160003373ffffffffffffffffffffffffffffffffffffffff1673ffffffffffffffffffffffffffffffffffffffff168152602001908152602001600020819055503373ffffffffffffffffffffffffffffffffffffffff167f26c5351ce9eed975c898f05f94fd88033c938f9b8970582c3b6f396f2309696c8284604051610a9d9291906122c5565b60405180910390a25b5050565b600080151560008381548110610ae9577f4e487b7100000000000000000000000000000000000000000000000000000000600052603260045260246000fd5b906000526020600020906007020160030160019054906101000a900460ff16151514610b1457600080fd5b6000805b60008481548110610b52577f4e487b7100000000000000000000000000000000000000000000000000000000600052603260045260246000fd5b906000526020600020906007020160040180549050811015610d4f576000808581548110610ba9577f4e487b7100000000000000000000000000000000000000000000000000000000600052603260045260246000fd5b90600052602060002090600702016004018281548110610bf2577f4e487b7100000000000000000000000000000000000000000000000000000000600052603260045260246000fd5b9060005260206000200160009054906101000a900473ffffffffffffffffffffffffffffffffffffffff1690508260008681548110610c5a577f4e487b7100000000000000000000000000000000000000000000000000000000600052603260045260246000fd5b906000526020600020906007020160060160008373ffffffffffffffffffffffffffffffffffffffff1673ffffffffffffffffffffffffffffffffffffffff168152602001908152602001600020541115610d3b5760008581548110610ce9577f4e487b7100000000000000000000000000000000000000000000000000000000600052603260045260246000fd5b906000526020600020906007020160060160008273ffffffffffffffffffffffffffffffffffffffff1673ffffffffffffffffffffffffffffffffffffffff1681526020019081526020016000205492505b508080610d47906123c3565b915050610b18565b5080915050919050565b6000804360008481548110610d97577f4e487b7100000000000000000000000000000000000000000000000000000000600052603260045260246000fd5b9060005260206000209060070201600201541115610db457600080fd5b6000151560008481548110610df2577f4e487b7100000000000000000000000000000000000000000000000000000000600052603260045260246000fd5b906000526020600020906007020160030160019054906101000a900460ff16151514610e1d57600080fd5b600080610e298561138e565b905060005b60008681548110610e68577f4e487b7100000000000000000000000000000000000000000000000000000000600052603260045260246000fd5b906000526020600020906007020160040180549050811015611068576000808781548110610ebf577f4e487b7100000000000000000000000000000000000000000000000000000000600052603260045260246000fd5b90600052602060002090600702016004018281548110610f08577f4e487b7100000000000000000000000000000000000000000000000000000000600052603260045260246000fd5b9060005260206000200160009054906101000a900473ffffffffffffffffffffffffffffffffffffffff1690508360008881548110610f70577f4e487b7100000000000000000000000000000000000000000000000000000000600052603260045260246000fd5b906000526020600020906007020160060160008373ffffffffffffffffffffffffffffffffffffffff1673ffffffffffffffffffffffffffffffffffffffff1681526020019081526020016000205411156110545760008781548110610fff577f4e487b7100000000000000000000000000000000000000000000000000000000600052603260045260246000fd5b906000526020600020906007020160060160008273ffffffffffffffffffffffffffffffffffffffff1673ffffffffffffffffffffffffffffffffffffffff1681526020019081526020016000205493508092505b508080611060906123c3565b915050610e2e565b508082935093505050915091565b600043905090565b600081815481106110b8577f4e487b7100000000000000000000000000000000000000000000000000000000600052603260045260246000fd5b906000526020600020906007020160000160009054906101000a900473ffffffffffffffffffffffffffffffffffffffff1673ffffffffffffffffffffffffffffffffffffffff163373ffffffffffffffffffffffffffffffffffffffff161461112157600080fd5b600015156000828154811061115f577f4e487b7100000000000000000000000000000000000000000000000000000000600052603260045260246000fd5b906000526020600020906007020160030160009054906101000a900460ff1615151461118a57600080fd5b600154436111989190612325565b600082815481106111d2577f4e487b7100000000000000000000000000000000000000000000000000000000600052603260045260246000fd5b906000526020600020906007020160020181905550600160008281548110611223577f4e487b7100000000000000000000000000000000000000000000000000000000600052603260045260246000fd5b906000526020600020906007020160030160006101000a81548160ff02191690831515021790555050565b6000600115156000838154811061128e577f4e487b7100000000000000000000000000000000000000000000000000000000600052603260045260246000fd5b906000526020600020906007020160030160019054906101000a900460ff16151514156112be57600190506112c3565b600090505b919050565b600080600090505b60008054905081101561134d578260008281548110611318577f4e487b7100000000000000000000000000000000000000000000000000000000600052603260045260246000fd5b906000526020600020906007020160010154141561133a576000915050611353565b8080611345906123c3565b9150506112d0565b50600190505b919050565b6000818360405160200161136d9291906122c5565b6040516020818303038152906040528051906020012060001c905092915050565b60008082815481106113c9577f4e487b7100000000000000000000000000000000000000000000000000000000600052603260045260246000fd5b906000526020600020906007020160000160009054906101000a900473ffffffffffffffffffffffffffffffffffffffff169050919050565b6000151560008281548110611440577f4e487b7100000000000000000000000000000000000000000000000000000000600052603260045260246000fd5b906000526020600020906007020160030160009054906101000a900460ff16151514806114b7575043600082815481106114a3577f4e487b7100000000000000000000000000000000000000000000000000000000600052603260045260246000fd5b906000526020600020906007020160020154105b6114c057600080fd5b3373ffffffffffffffffffffffffffffffffffffffff166108fc60008381548110611514577f4e487b7100000000000000000000000000000000000000000000000000000000600052603260045260246000fd5b906000526020600020906007020160050160003373ffffffffffffffffffffffffffffffffffffffff1673ffffffffffffffffffffffffffffffffffffffff168152602001908152602001600020549081150290604051600060405180830381858888f1935050505015801561158e573d6000803e3d6000fd5b5060008082815481106115ca577f4e487b7100000000000000000000000000000000000000000000000000000000600052603260045260246000fd5b906000526020600020906007020160050160003373ffffffffffffffffffffffffffffffffffffffff1673ffffffffffffffffffffffffffffffffffffffff1681526020019081526020016000208190555050565b60008080549050905090565b6000808281548110611666577f4e487b7100000000000000000000000000000000000000000000000000000000600052603260045260246000fd5b906000526020600020906007020160030160009054906101000a900460ff169050919050565b600080151561169a836112c8565b1515146116a657600080fd5b60005b6000805490508110156117255782600082815481106116f1577f4e487b7100000000000000000000000000000000000000000000000000000000600052603260045260246000fd5b9060005260206000209060070201600101541415611712578091505061172b565b808061171d906123c3565b9150506116a9565b50600090505b919050565b611739826112c8565b61174257600080fd5b60008080549050905060006001816001815401808255809150500390600052602060002090505060008082815481106117a4577f4e487b7100000000000000000000000000000000000000000000000000000000600052603260045260246000fd5b90600052602060002090600702019050600154436117c29190612325565b8160020181905550338160000160006101000a81548173ffffffffffffffffffffffffffffffffffffffff021916908373ffffffffffffffffffffffffffffffffffffffff160217905550828160030160016101000a81548160ff0219169083151502179055508381600101819055503373ffffffffffffffffffffffffffffffffffffffff167ff04b9fd96031702b939d571a81acc9c809b2376063fcbc6afd6f75af5ed1392283868660405161187c939291906122ee565b60405180910390a250505050565b60008082815481106118c5577f4e487b7100000000000000000000000000000000000000000000000000000000600052603260045260246000fd5b906000526020600020906007020160050160003373ffffffffffffffffffffffffffffffffffffffff1673ffffffffffffffffffffffffffffffffffffffff168152602001908152602001600020549050919050565b6000808281548110611956577f4e487b7100000000000000000000000000000000000000000000000000000000600052603260045260246000fd5b906000526020600020906007020160060160003373ffffffffffffffffffffffffffffffffffffffff1673ffffffffffffffffffffffffffffffffffffffff168152602001908152602001600020549050919050565b600081815481106119e6577f4e487b7100000000000000000000000000000000000000000000000000000000600052603260045260246000fd5b906000526020600020906007020160000160009054906101000a900473ffffffffffffffffffffffffffffffffffffffff1673ffffffffffffffffffffffffffffffffffffffff163373ffffffffffffffffffffffffffffffffffffffff1614611a4f57600080fd5b60008181548110611a89577f4e487b7100000000000000000000000000000000000000000000000000000000600052603260045260246000fd5b9060005260206000209060070201600201544311611aa657600080fd5b60005b60008281548110611ae3577f4e487b7100000000000000000000000000000000000000000000000000000000600052603260045260246000fd5b906000526020600020906007020160040180549050811015611e7d576000808381548110611b3a577f4e487b7100000000000000000000000000000000000000000000000000000000600052603260045260246000fd5b90600052602060002090600702016004018281548110611b83577f4e487b7100000000000000000000000000000000000000000000000000000000600052603260045260246000fd5b9060005260206000200160009054906101000a900473ffffffffffffffffffffffffffffffffffffffff1690506000808481548110611beb577f4e487b7100000000000000000000000000000000000000000000000000000000600052603260045260246000fd5b90600052602060002090600702016005016000808681548110611c37577f4e487b7100000000000000000000000000000000000000000000000000000000600052603260045260246000fd5b90600052602060002090600702016004018581548110611c80577f4e487b7100000000000000000000000000000000000000000000000000000000600052603260045260246000fd5b9060005260206000200160009054906101000a900473ffffffffffffffffffffffffffffffffffffffff1673ffffffffffffffffffffffffffffffffffffffff1673ffffffffffffffffffffffffffffffffffffffff1681526020019081526020016000205490508173ffffffffffffffffffffffffffffffffffffffff166108fc829081150290604051600060405180830381858888f19350505050158015611d2e573d6000803e3d6000fd5b506000808581548110611d6a577f4e487b7100000000000000000000000000000000000000000000000000000000600052603260045260246000fd5b90600052602060002090600702016005016000808781548110611db6577f4e487b7100000000000000000000000000000000000000000000000000000000600052603260045260246000fd5b90600052602060002090600702016004018681548110611dff577f4e487b7100000000000000000000000000000000000000000000000000000000600052603260045260246000fd5b9060005260206000200160009054906101000a900473ffffffffffffffffffffffffffffffffffffffff1673ffffffffffffffffffffffffffffffffffffffff1673ffffffffffffffffffffffffffffffffffffffff1681526020019081526020016000208190555050508080611e75906123c3565b915050611aa9565b5050565b60003460008381548110611ebe577f4e487b7100000000000000000000000000000000000000000000000000000000600052603260045260246000fd5b906000526020600020906007020160050160003373ffffffffffffffffffffffffffffffffffffffff1673ffffffffffffffffffffffffffffffffffffffff1681526020019081526020016000206000828254611f1b9190612325565b9250508190555060008281548110611f5c577f4e487b7100000000000000000000000000000000000000000000000000000000600052603260045260246000fd5b9060005260206000209060070201600401339080600181540180825580915050600190039060005260206000200160009091909190916101000a81548173ffffffffffffffffffffffffffffffffffffffff021916908373ffffffffffffffffffffffffffffffffffffffff1602179055503373ffffffffffffffffffffffffffffffffffffffff167fad40ae5dc69974ba932d08b0a608e89109412d41d04850f5196f144875ae266034846040516120169291906122c5565b60405180910390a260008281548110612058577f4e487b7100000000000000000000000000000000000000000000000000000000600052603260045260246000fd5b906000526020600020906007020160050160003373ffffffffffffffffffffffffffffffffffffffff1673ffffffffffffffffffffffffffffffffffffffff168152602001908152602001600020549050919050565b60008082815481106120e9577f4e487b7100000000000000000000000000000000000000000000000000000000600052603260045260246000fd5b9060005260206000209060070201600201549050919050565b6000813590506121118161243b565b92915050565b60008135905061212681612452565b92915050565b60008135905061213b81612469565b92915050565b6000806040838503121561215457600080fd5b600061216285828601612102565b92505060206121738582860161212c565b9150509250929050565b60006020828403121561218f57600080fd5b600061219d8482850161212c565b91505092915050565b600080604083850312156121b957600080fd5b60006121c78582860161212c565b92505060206121d885828601612117565b9150509250929050565b600080604083850312156121f557600080fd5b60006122038582860161212c565b92505060206122148582860161212c565b9150509250929050565b6122278161237b565b82525050565b6122368161238d565b82525050565b612245816123b9565b82525050565b6000602082019050612260600083018461221e565b92915050565b600060408201905061227b600083018561221e565b612288602083018461223c565b9392505050565b60006020820190506122a4600083018461222d565b92915050565b60006020820190506122bf600083018461223c565b92915050565b60006040820190506122da600083018561223c565b6122e7602083018461223c565b9392505050565b6000606082019050612303600083018661223c565b612310602083018561223c565b61231d604083018461222d565b949350505050565b6000612330826123b9565b915061233b836123b9565b9250827fffffffffffffffffffffffffffffffffffffffffffffffffffffffffffffffff038211156123705761236f61240c565b5b828201905092915050565b600061238682612399565b9050919050565b60008115159050919050565b600073ffffffffffffffffffffffffffffffffffffffff82169050919050565b6000819050919050565b60006123ce826123b9565b91507fffffffffffffffffffffffffffffffffffffffffffffffffffffffffffffffff8214156124015761240061240c565b5b600182019050919050565b7f4e487b7100000000000000000000000000000000000000000000000000000000600052601160045260246000fd5b6124448161237b565b811461244f57600080fd5b50565b61245b8161238d565b811461246657600080fd5b50565b612472816123b9565b811461247d57600080fd5b5056fea264697066735822122007a92a033b67dc35ce086a409a54bc81b1df43ab1d1e4c217bf6b5b9a0daa82364736f6c63430008000033",
  "immutableReferences": {},
  "source": "// SPDX-License-Identifier: MIT\r\npragma solidity ^0.8.0;\r\n\r\ncontract AuctionHouse {\r\n\r\n    struct Auction {\r\n        address owner;\r\n        uint auction_identifier;\r\n        uint endtime; \r\n        bool active; \r\n        bool sealed_auction; \r\n        address[] bidders;\r\n        mapping (address => uint) deposit;   \r\n        mapping (address => uint) bids;\r\n    }\r\n\r\n    Auction[] auctions;\r\n\r\n    uint256 interval = 8; \r\n    \r\n    // define events\r\n    event DepositEvent(address indexed sender, uint value, uint256 idx);\r\n    event AuctionDeployed(address indexed owner, uint256 idx, uint256 identifier, bool sealed_auction);\r\n    event OpenBidEvent(address indexed sender, uint value, uint256 idx);\r\n    event SealedBidEvent(address indexed sender, uint256 idx);\r\n\r\n\r\n    function hashSeriesNumber(uint256 nonce, uint256 number) public pure returns (uint) {\r\n        // hash the value of a string and number \r\n        return uint256(keccak256(abi.encode(number, nonce)));\r\n    }\r\n\r\n    function get_owner(uint idx) public view returns (address){\r\n        // returns the address of the owner for certain id \r\n        return auctions[idx].owner;\r\n    }\r\n\r\n    function is_active(uint idx) public view returns (bool){\r\n        // returns whether the auction is active \r\n        return auctions[idx].active;\r\n    }\r\n\r\n    function is_owner(address addr, uint idx) public view returns (bool){\r\n        // returns true/false of an address with idx\r\n        if (addr == auctions[idx].owner){\r\n            return true;\r\n        }\r\n        else{\r\n            return false;\r\n        }\r\n    }\r\n\r\n    function is_sealed(uint idx) public view returns (bool){\r\n        // returns true/false if the auction is sealed\r\n        if (auctions[idx].sealed_auction == true){\r\n            return true;\r\n        }\r\n        else{\r\n            return false;\r\n        }\r\n    }\r\n\r\n    function get_idx_from_identifier(uint identifier) public view returns (uint){\r\n        // get the id of an auction given an identifier\r\n        require(identifier_is_unused(identifier)==false);\r\n        for (uint256 idx = 0; idx < auctions.length; idx++) {\r\n            if (auctions[idx].auction_identifier == identifier){\r\n                return idx;\r\n            }\r\n        }\r\n        return 0;\r\n    }\r\n\r\n    function identifier_is_unused(uint identifier) public view returns (bool){\r\n        // check if the identifier is already in use\r\n        for (uint256 idx = 0; idx < auctions.length; idx++) {\r\n            if (auctions[idx].auction_identifier == identifier){\r\n                return false;\r\n            }\r\n        }\r\n        return true;\r\n    }\r\n\r\n    function get_number_of_auctions() public view returns (uint){\r\n        // returns the number of auctions\r\n        return auctions.length;\r\n    }\r\n\r\n    function deploy_auction(uint identifier, bool type_sealed) public payable{\r\n        // deploys an auction\r\n        require(identifier_is_unused(identifier));\r\n        uint idx = auctions.length;\r\n        auctions.push();\r\n        Auction storage new_auct = auctions[idx];\r\n        new_auct.endtime = block.number + interval;\r\n        new_auct.owner = msg.sender;\r\n        new_auct.sealed_auction = type_sealed;\r\n        new_auct.auction_identifier = identifier;\r\n        emit AuctionDeployed(msg.sender, idx, identifier, type_sealed);\r\n    }\r\n\r\n    function start_auction(uint idx) public payable {\r\n        // start the auction, setting timelimit, can only not be reactivated\r\n        require(msg.sender == auctions[idx].owner);\r\n        require(auctions[idx].active == false);\r\n        auctions[idx].endtime = block.number + interval;\r\n        auctions[idx].active = true;\r\n        \r\n    }\r\n\r\n    function deposit_money(uint idx) public payable returns (uint){\r\n        // Deposit money in order to be able to participate\r\n        auctions[idx].deposit[msg.sender] += msg.value;\r\n        auctions[idx].bidders.push(msg.sender);\r\n        emit DepositEvent(msg.sender, msg.value, idx);\r\n        return auctions[idx].deposit[msg.sender];\r\n    }\r\n\r\n    function get_deposit_balance(uint idx) public view returns (uint){\r\n        // gets the balances of bidders\r\n        return auctions[idx].deposit[msg.sender];\r\n    }\r\n\r\n    function set_bid(uint idx, uint bid_value) public {\r\n        // sets the bid, requirements have to be fulfilled \r\n        require(auctions[idx].active);\r\n        require(msg.sender != auctions[idx].owner);\r\n        require(auctions[idx].deposit[msg.sender]>=5 ether);\r\n        require(auctions[idx].endtime > create_timestamp());\r\n\r\n        if (auctions[idx].sealed_auction == true){\r\n            auctions[idx].bids[msg.sender] = bid_value;\r\n            emit SealedBidEvent(msg.sender, idx);\r\n        }\r\n        else{\r\n            require(bid_value > auctions[idx].bids[msg.sender]);\r\n            auctions[idx].bids[msg.sender] = bid_value;\r\n            emit OpenBidEvent(msg.sender, bid_value, idx);\r\n        }\r\n    }\r\n\r\n    function get_bid(uint idx) public view returns (uint){\r\n        // returns last/highest bid of bidder\r\n        return auctions[idx].bids[msg.sender];\r\n    }\r\n\r\n    function get_highest_bid(uint idx) public view returns (uint) {\r\n        require(auctions[idx].sealed_auction == false);\r\n        uint winning_bid=0;\r\n        for (uint256 i = 0; i < auctions[idx].bidders.length; i++) {\r\n            address curr_bidder = auctions[idx].bidders[i];\r\n            if (auctions[idx].bids[curr_bidder] > winning_bid){\r\n                winning_bid = auctions[idx].bids[curr_bidder];\r\n            }\r\n        }  \r\n        return winning_bid;\r\n    }\r\n\r\n    function get_endtime(uint idx) public view returns (uint){\r\n        // returns the endtime\r\n        return auctions[idx].endtime;\r\n    }\r\n\r\n    function create_timestamp() public view returns (uint256){\r\n        // creates timestamp\r\n        return block.number;\r\n    }\r\n\r\n    function kill(uint idx) public{\r\n        // transfers back all deposts for auction id\r\n        require(msg.sender == auctions[idx].owner);\r\n        require(block.number > auctions[idx].endtime);\r\n        for (uint256 i = 0; i < auctions[idx].bidders.length; i++) {\r\n            address bidder = auctions[idx].bidders[i];\r\n            uint deposit = auctions[idx].deposit[auctions[idx].bidders[i]];\r\n            payable(bidder).transfer(deposit);\r\n            auctions[idx].deposit[auctions[idx].bidders[i]] = 0;\r\n        }\r\n    }    \r\n\r\n    function get_winner(uint idx) public view returns (address, uint) {\r\n        // gets the winner in an open price auction\r\n        require((auctions[idx].endtime <= block.number));\r\n        require(auctions[idx].sealed_auction == false);\r\n        uint winning_bid=0;\r\n        address winner_address=get_owner(idx);\r\n        for (uint256 i = 0; i < auctions[idx].bidders.length; i++) {\r\n            address curr_bidder = auctions[idx].bidders[i];\r\n            if (auctions[idx].bids[curr_bidder] > winning_bid){\r\n                winning_bid = auctions[idx].bids[curr_bidder];\r\n                winner_address = curr_bidder;\r\n            }\r\n        }  \r\n        return (winner_address, winning_bid);\r\n    }\r\n\r\n    function refund_deposit(uint idx) public {\r\n        // refund the deposit if action is not active or if time is over\r\n        require(auctions[idx].active == false || auctions[idx].endtime < block.number);\r\n        payable(msg.sender).transfer(auctions[idx].deposit[msg.sender]);\r\n        auctions[idx].deposit[msg.sender] = 0;\r\n    }\r\n}\r\n",
  "sourcePath": "C:/Users/maxgi/Uni-Max/Coding/BLKCHN21/BlockchainProject/contracts/AuctionHouse.sol",
  "compiler": {
    "name": "solc",
    "version": "0.8.0+commit.c7dfd78e.Emscripten.clang"
  },
  "schemaVersion": "3.4.1",
  "updatedAt": "2021-06-23T17:07:47.890Z",
  "devdoc": {
    "kind": "dev",
    "methods": {},
    "version": 1
  },
  "userdoc": {
    "kind": "user",
    "methods": {},
    "version": 1
  }
}