{
  "contractName": "AuctionHouse",
  "abi": [
    {
      "inputs": [],
      "payable": true,
      "stateMutability": "payable",
      "type": "constructor"
    },
    {
      "anonymous": false,
      "inputs": [
        {
          "indexed": true,
          "internalType": "address",
          "name": "accountAddress",
          "type": "address"
        },
        {
          "indexed": false,
          "internalType": "uint256",
          "name": "amount",
          "type": "uint256"
        }
      ],
      "name": "LogDepositMade",
      "type": "event"
    },
    {
      "anonymous": false,
      "inputs": [
        {
          "indexed": true,
          "internalType": "address",
          "name": "_from",
          "type": "address"
        },
        {
          "indexed": true,
          "internalType": "address",
          "name": "_to",
          "type": "address"
        },
        {
          "indexed": false,
          "internalType": "uint256",
          "name": "_value",
          "type": "uint256"
        }
      ],
      "name": "Transfer",
      "type": "event"
    },
    {
      "constant": true,
      "inputs": [],
      "name": "owner",
      "outputs": [
        {
          "internalType": "address",
          "name": "",
          "type": "address"
        }
      ],
      "payable": false,
      "stateMutability": "view",
      "type": "function"
    },
    {
      "constant": false,
      "inputs": [],
      "name": "deposit_money",
      "outputs": [
        {
          "internalType": "uint256",
          "name": "",
          "type": "uint256"
        }
      ],
      "payable": true,
      "stateMutability": "payable",
      "type": "function"
    },
    {
      "constant": true,
      "inputs": [],
      "name": "get_deposit_balance",
      "outputs": [
        {
          "internalType": "uint256",
          "name": "",
          "type": "uint256"
        }
      ],
      "payable": false,
      "stateMutability": "view",
      "type": "function"
    },
    {
      "constant": false,
      "inputs": [
        {
          "internalType": "uint256",
          "name": "bid_value",
          "type": "uint256"
        }
      ],
      "name": "set_bid",
      "outputs": [
        {
          "internalType": "uint256",
          "name": "",
          "type": "uint256"
        }
      ],
      "payable": false,
      "stateMutability": "nonpayable",
      "type": "function"
    },
    {
      "constant": true,
      "inputs": [],
      "name": "get_bid",
      "outputs": [
        {
          "internalType": "uint256",
          "name": "",
          "type": "uint256"
        }
      ],
      "payable": false,
      "stateMutability": "view",
      "type": "function"
    },
    {
      "constant": true,
      "inputs": [],
      "name": "get_endtime",
      "outputs": [
        {
          "internalType": "uint256",
          "name": "",
          "type": "uint256"
        }
      ],
      "payable": false,
      "stateMutability": "view",
      "type": "function"
    },
    {
      "constant": true,
      "inputs": [],
      "name": "get_timestamp",
      "outputs": [
        {
          "internalType": "uint256",
          "name": "",
          "type": "uint256"
        }
      ],
      "payable": false,
      "stateMutability": "view",
      "type": "function"
    },
    {
      "constant": true,
      "inputs": [],
      "name": "create_timestamp",
      "outputs": [
        {
          "internalType": "uint256",
          "name": "",
          "type": "uint256"
        }
      ],
      "payable": false,
      "stateMutability": "view",
      "type": "function"
    }
  ],
  "bytecode": "0x6080604052670de0b6b3a7640000600455600560065533600360006101000a81548173ffffffffffffffffffffffffffffffffffffffff021916908373ffffffffffffffffffffffffffffffffffffffff16021790555060065442016005819055506105ce806100706000396000f3fe60806040526004361061007b5760003560e01c80638da5cb5b1161004e5780638da5cb5b14610150578063cc809431146101a7578063d2832cc2146101d2578063fc8c36a6146101f05761007b565b80630c676443146100805780632212dbc3146100ab5780633c5f42e1146100d65780633ea3ff9314610125575b600080fd5b34801561008c57600080fd5b5061009561021b565b6040518082815260200191505060405180910390f35b3480156100b757600080fd5b506100c0610225565b6040518082815260200191505060405180910390f35b3480156100e257600080fd5b5061010f600480360360208110156100f957600080fd5b810190808035906020019092919050505061026c565b6040518082815260200191505060405180910390f35b34801561013157600080fd5b5061013a6103fc565b6040518082815260200191505060405180910390f35b34801561015c57600080fd5b50610165610404565b604051808273ffffffffffffffffffffffffffffffffffffffff1673ffffffffffffffffffffffffffffffffffffffff16815260200191505060405180910390f35b3480156101b357600080fd5b506101bc61042a565b6040518082815260200191505060405180910390f35b6101da610471565b6040518082815260200191505060405180910390f35b3480156101fc57600080fd5b50610205610553565b6040518082815260200191505060405180910390f35b6000600554905090565b6000600260003373ffffffffffffffffffffffffffffffffffffffff1673ffffffffffffffffffffffffffffffffffffffff16815260200190815260200160002054905090565b6000600360009054906101000a900473ffffffffffffffffffffffffffffffffffffffff1673ffffffffffffffffffffffffffffffffffffffff163373ffffffffffffffffffffffffffffffffffffffff16146103f757600454600502600160003373ffffffffffffffffffffffffffffffffffffffff1673ffffffffffffffffffffffffffffffffffffffff16815260200190815260200160002054106103f6576000803373ffffffffffffffffffffffffffffffffffffffff1673ffffffffffffffffffffffffffffffffffffffff168152602001908152602001600020548211156103f55761035c6103fc565b60055411156103f457816000803373ffffffffffffffffffffffffffffffffffffffff1673ffffffffffffffffffffffffffffffffffffffff168152602001908152602001600020819055506103b06103fc565b600260003373ffffffffffffffffffffffffffffffffffffffff1673ffffffffffffffffffffffffffffffffffffffff168152602001908152602001600020819055505b5b5b5b919050565b600042905090565b600360009054906101000a900473ffffffffffffffffffffffffffffffffffffffff1681565b6000600160003373ffffffffffffffffffffffffffffffffffffffff1673ffffffffffffffffffffffffffffffffffffffff16815260200190815260200160002054905090565b600034600160003373ffffffffffffffffffffffffffffffffffffffff1673ffffffffffffffffffffffffffffffffffffffff168152602001908152602001600020600082825401925050819055503373ffffffffffffffffffffffffffffffffffffffff167fa8126f7572bb1fdeae5b5aa9ec126438b91f658a07873f009d041ae690f3a193346040518082815260200191505060405180910390a2600160003373ffffffffffffffffffffffffffffffffffffffff1673ffffffffffffffffffffffffffffffffffffffff16815260200190815260200160002054905090565b60008060003373ffffffffffffffffffffffffffffffffffffffff1673ffffffffffffffffffffffffffffffffffffffff1681526020019081526020016000205490509056fea265627a7a72315820abdd70f333640123c91ba0cb79190e7892275408dcdec1362f0e812f1a804e0264736f6c63430005100032",
  "source": "pragma solidity ^0.5.8;\n\ncontract AuctionHouse {\n    mapping (address => uint) private bids;\n    mapping (address => uint) private deposit;\n    mapping (address => uint) private timestamp;\n    address public owner;\n    // define variables\n    uint256 ether_var = 10**18;\n    uint256 endtime;\n    uint256 interval = 5; // in seconds\n\n    // Log the event about a deposit being made by an address and its amount\n    event LogDepositMade(address indexed accountAddress, uint amount);\n    event Transfer(address indexed _from, address indexed _to, uint256 _value);\n\n    constructor() public payable {\n        // set the owner at the beginning\n        owner = msg.sender;\n        // set time limit \n        endtime = now + interval;\n    }\n    // id --> owner; pass address;\n\n    //function start_auction() public payable {\n        // start the auction, setting timelimit\n    //    if (msg.sender == owner){\n    //        endtime = now + interval;\n    //    }\n    //}\n\n    function deposit_money() public payable returns (uint){\n        // Deposit money in order to be able to participate\n        deposit[msg.sender] += msg.value;\n        emit LogDepositMade(msg.sender, msg.value);\n        return deposit[msg.sender];\n    }\n\n    function get_deposit_balance() public view returns (uint){\n        // gets the balances of bidders\n        return deposit[msg.sender];\n    }\n\n    function set_bid(uint bid_value) public returns (uint){\n        // not payable \n        // the owner can not bid\n        if (msg.sender != owner){\n            // you can not bid if you have not deposit inital money (5 Ether)\n            if (deposit[msg.sender]>=5*ether_var){\n                // only accept bid if its higher than the previous bid\n                if (bid_value > bids[msg.sender]) {\n                    // only accept bid if in valid time period\n                    if (endtime > create_timestamp()){\n                        bids[msg.sender] = bid_value;\n                        timestamp[msg.sender] = create_timestamp();\n                    }\n                }\n            }\n        }\n    }\n\n    function get_bid() public view returns (uint){\n        // returns last/highest bid of bidder\n        return bids[msg.sender];\n    }\n\n    function get_endtime() public view returns (uint){\n        // returns the endtime\n        return endtime;\n    }\n\n    function get_timestamp() public view returns (uint){\n        // returns the timestamp of the last/highest bid of the bidder\n        // Probably not secure! (TODO: add verification like in lecture 1)\n        return timestamp[msg.sender];\n    }\n\n    function create_timestamp() public view returns (uint256){\n        // creates timestamp\n        return now;\n    }\n\n    /*\n    function get_highest_bid() public view returns (uint) {\n        uint256 largest = 0; \n        uint256 i;\n\n        for(i = 0; i < bids.length; i++){\n            if(bids[i] > largest) {\n                largest = bids[i]; \n            } \n        }\n        return largest;\n    }\n    */\n\n}\n",
  "sourcePath": "/Users/yannickklose/Library/Mobile Documents/com~apple~CloudDocs/Documents/07 SoSe21/Blockchain Technolgies/BlockchainProject/contracts/AuctionHouse.sol",
  "compiler": {
    "name": "solc",
    "version": "0.5.16+commit.9c3226ce.Emscripten.clang"
  },
  "schemaVersion": "3.4.0",
  "updatedAt": "2021-05-12T17:48:12.737Z",
  "devdoc": {
    "methods": {}
  },
  "userdoc": {
    "methods": {}
  }
}