{
  "contractName": "AuctionHouse",
  "abi": [
    {
      "anonymous": false,
      "inputs": [
        {
          "indexed": true,
          "internalType": "address",
          "name": "owner",
          "type": "address"
        },
        {
          "indexed": false,
          "internalType": "uint256",
          "name": "idx",
          "type": "uint256"
        },
        {
          "indexed": false,
          "internalType": "uint256",
          "name": "identifier",
          "type": "uint256"
        },
        {
          "indexed": false,
          "internalType": "bool",
          "name": "sealed_auction",
          "type": "bool"
        }
      ],
      "name": "AuctionDeployed",
      "type": "event"
    },
    {
      "anonymous": false,
      "inputs": [
        {
          "indexed": true,
          "internalType": "address",
          "name": "sender",
          "type": "address"
        },
        {
          "indexed": true,
          "internalType": "uint256",
          "name": "idx",
          "type": "uint256"
        },
        {
          "indexed": true,
          "internalType": "uint256",
          "name": "blockNr",
          "type": "uint256"
        },
        {
          "indexed": false,
          "internalType": "uint256",
          "name": "value",
          "type": "uint256"
        }
      ],
      "name": "BidEvent",
      "type": "event"
    },
    {
      "anonymous": false,
      "inputs": [
        {
          "indexed": true,
          "internalType": "address",
          "name": "sender",
          "type": "address"
        },
        {
          "indexed": false,
          "internalType": "uint256",
          "name": "value",
          "type": "uint256"
        },
        {
          "indexed": false,
          "internalType": "uint256",
          "name": "idx",
          "type": "uint256"
        }
      ],
      "name": "DepositEvent",
      "type": "event"
    },
    {
      "inputs": [
        {
          "internalType": "uint256",
          "name": "",
          "type": "uint256"
        }
      ],
      "name": "auctions",
      "outputs": [
        {
          "internalType": "address",
          "name": "owner",
          "type": "address"
        },
        {
          "internalType": "uint256",
          "name": "auction_identifier",
          "type": "uint256"
        },
        {
          "internalType": "uint256",
          "name": "endtime",
          "type": "uint256"
        },
        {
          "internalType": "bool",
          "name": "active",
          "type": "bool"
        },
        {
          "internalType": "bool",
          "name": "sealed_auction",
          "type": "bool"
        }
      ],
      "stateMutability": "view",
      "type": "function",
      "constant": true
    },
    {
      "inputs": [
        {
          "internalType": "uint256",
          "name": "nonce",
          "type": "uint256"
        },
        {
          "internalType": "uint256",
          "name": "number",
          "type": "uint256"
        }
      ],
      "name": "hashSeriesNumber",
      "outputs": [
        {
          "internalType": "uint256",
          "name": "",
          "type": "uint256"
        }
      ],
      "stateMutability": "pure",
      "type": "function",
      "constant": true
    },
    {
      "inputs": [
        {
          "internalType": "uint256",
          "name": "idx",
          "type": "uint256"
        }
      ],
      "name": "get_owner",
      "outputs": [
        {
          "internalType": "address",
          "name": "",
          "type": "address"
        }
      ],
      "stateMutability": "view",
      "type": "function",
      "constant": true
    },
    {
      "inputs": [
        {
          "internalType": "address",
          "name": "addr",
          "type": "address"
        },
        {
          "internalType": "uint256",
          "name": "idx",
          "type": "uint256"
        }
      ],
      "name": "is_owner",
      "outputs": [
        {
          "internalType": "bool",
          "name": "",
          "type": "bool"
        }
      ],
      "stateMutability": "view",
      "type": "function",
      "constant": true
    },
    {
      "inputs": [
        {
          "internalType": "uint256",
          "name": "idx",
          "type": "uint256"
        }
      ],
      "name": "is_sealed",
      "outputs": [
        {
          "internalType": "bool",
          "name": "",
          "type": "bool"
        }
      ],
      "stateMutability": "view",
      "type": "function",
      "constant": true
    },
    {
      "inputs": [
        {
          "internalType": "uint256",
          "name": "identifier",
          "type": "uint256"
        }
      ],
      "name": "get_idx_from_identifier",
      "outputs": [
        {
          "internalType": "uint256",
          "name": "",
          "type": "uint256"
        }
      ],
      "stateMutability": "view",
      "type": "function",
      "constant": true
    },
    {
      "inputs": [
        {
          "internalType": "uint256",
          "name": "identifier",
          "type": "uint256"
        }
      ],
      "name": "identifier_is_unused",
      "outputs": [
        {
          "internalType": "bool",
          "name": "",
          "type": "bool"
        }
      ],
      "stateMutability": "view",
      "type": "function",
      "constant": true
    },
    {
      "inputs": [],
      "name": "get_number_of_auctions",
      "outputs": [
        {
          "internalType": "uint256",
          "name": "",
          "type": "uint256"
        }
      ],
      "stateMutability": "view",
      "type": "function",
      "constant": true
    },
    {
      "inputs": [
        {
          "internalType": "uint256",
          "name": "identifier",
          "type": "uint256"
        },
        {
          "internalType": "bool",
          "name": "type_sealed",
          "type": "bool"
        }
      ],
      "name": "deploy_auction",
      "outputs": [],
      "stateMutability": "payable",
      "type": "function",
      "payable": true
    },
    {
      "inputs": [
        {
          "internalType": "uint256",
          "name": "idx",
          "type": "uint256"
        }
      ],
      "name": "start_auction",
      "outputs": [],
      "stateMutability": "payable",
      "type": "function",
      "payable": true
    },
    {
      "inputs": [
        {
          "internalType": "uint256",
          "name": "idx",
          "type": "uint256"
        }
      ],
      "name": "is_active",
      "outputs": [
        {
          "internalType": "bool",
          "name": "",
          "type": "bool"
        }
      ],
      "stateMutability": "view",
      "type": "function",
      "constant": true
    },
    {
      "inputs": [
        {
          "internalType": "uint256",
          "name": "idx",
          "type": "uint256"
        }
      ],
      "name": "deposit_money",
      "outputs": [
        {
          "internalType": "uint256",
          "name": "",
          "type": "uint256"
        }
      ],
      "stateMutability": "payable",
      "type": "function",
      "payable": true
    },
    {
      "inputs": [
        {
          "internalType": "uint256",
          "name": "idx",
          "type": "uint256"
        }
      ],
      "name": "get_deposit_balance",
      "outputs": [
        {
          "internalType": "uint256",
          "name": "",
          "type": "uint256"
        }
      ],
      "stateMutability": "view",
      "type": "function",
      "constant": true
    },
    {
      "inputs": [
        {
          "internalType": "uint256",
          "name": "idx",
          "type": "uint256"
        },
        {
          "internalType": "uint256",
          "name": "bid_value",
          "type": "uint256"
        }
      ],
      "name": "set_bid",
      "outputs": [],
      "stateMutability": "nonpayable",
      "type": "function"
    },
    {
      "inputs": [
        {
          "internalType": "uint256",
          "name": "idx",
          "type": "uint256"
        }
      ],
      "name": "get_bid",
      "outputs": [
        {
          "internalType": "uint256",
          "name": "",
          "type": "uint256"
        }
      ],
      "stateMutability": "view",
      "type": "function",
      "constant": true
    },
    {
      "inputs": [
        {
          "internalType": "uint256",
          "name": "idx",
          "type": "uint256"
        }
      ],
      "name": "get_highest_bid",
      "outputs": [
        {
          "internalType": "uint256",
          "name": "",
          "type": "uint256"
        }
      ],
      "stateMutability": "view",
      "type": "function",
      "constant": true
    },
    {
      "inputs": [
        {
          "internalType": "uint256",
          "name": "idx",
          "type": "uint256"
        }
      ],
      "name": "get_endtime",
      "outputs": [
        {
          "internalType": "uint256",
          "name": "",
          "type": "uint256"
        }
      ],
      "stateMutability": "view",
      "type": "function",
      "constant": true
    },
    {
      "inputs": [],
      "name": "create_timestamp",
      "outputs": [
        {
          "internalType": "uint256",
          "name": "",
          "type": "uint256"
        }
      ],
      "stateMutability": "view",
      "type": "function",
      "constant": true
    },
    {
      "inputs": [
        {
          "internalType": "uint256",
          "name": "idx",
          "type": "uint256"
        }
      ],
      "name": "kill",
      "outputs": [],
      "stateMutability": "nonpayable",
      "type": "function"
    },
    {
      "inputs": [
        {
          "internalType": "uint256",
          "name": "idx",
          "type": "uint256"
        }
      ],
      "name": "get_winner",
      "outputs": [
        {
          "internalType": "address",
          "name": "winner",
          "type": "address"
        },
        {
          "internalType": "uint256",
          "name": "bid",
          "type": "uint256"
        }
      ],
      "stateMutability": "view",
      "type": "function",
      "constant": true
    },
    {
      "inputs": [
        {
          "internalType": "uint256",
          "name": "idx",
          "type": "uint256"
        }
      ],
      "name": "refund_deposit",
      "outputs": [],
      "stateMutability": "nonpayable",
      "type": "function"
    }
  ],
  "bytecode": "0x6080604052600360015534801561001557600080fd5b50613191806100256000396000f3fe60806040526004361061012a5760003560e01c806372205875116100ab578063970e2ba61161006f578063970e2ba61461045a578063a092c50414610476578063ce4339b7146104b3578063d29a0025146104f0578063e9117d8914610519578063f458de9e146105495761012a565b8063722058751461034f5780637a2994eb1461038c5780637a31ee4f146103b55780637aaa33c5146103e0578063841af8591461041d5761012a565b806344375fc7116100f257806344375fc71461023b578063468298d414610257578063571a26a01461029457806363160336146102d5578063686cfd29146103125761012a565b8063051a00d31461012f5780630802ca281461016c5780631c733acf14610195578063243dc409146101d25780633ea3ff9314610210575b600080fd5b34801561013b57600080fd5b506101566004803603810190610151919061256b565b610586565b6040516101639190612d6f565b60405180910390f35b34801561017857600080fd5b50610193600480360381019061018e919061260c565b61063a565b005b3480156101a157600080fd5b506101bc60048036038101906101b791906125a7565b610bb7565b6040516101c99190612f6a565b60405180910390f35b3480156101de57600080fd5b506101f960048036038101906101f491906125a7565b610e9c565b604051610207929190612cf3565b60405180910390f35b34801561021c57600080fd5b50610225611197565b6040516102329190612f6a565b60405180910390f35b610255600480360381019061025091906125a7565b61119f565b005b34801561026357600080fd5b5061027e600480360381019061027991906125a7565b6113db565b60405161028b9190612d6f565b60405180910390f35b3480156102a057600080fd5b506102bb60048036038101906102b691906125a7565b611455565b6040516102cc959493929190612d1c565b60405180910390f35b3480156102e157600080fd5b506102fc60048036038101906102f791906125a7565b6114d5565b6040516103099190612d6f565b60405180910390f35b34801561031e57600080fd5b506103396004803603810190610334919061260c565b611565565b6040516103469190612f6a565b60405180910390f35b34801561035b57600080fd5b50610376600480360381019061037191906125a7565b61159b565b6040516103839190612cd8565b60405180910390f35b34801561039857600080fd5b506103b360048036038101906103ae91906125a7565b61160f565b005b3480156103c157600080fd5b506103ca61192c565b6040516103d79190612f6a565b60405180910390f35b3480156103ec57600080fd5b50610407600480360381019061040291906125a7565b611938565b6040516104149190612d6f565b60405180910390f35b34801561042957600080fd5b50610444600480360381019061043f91906125a7565b6119ef565b6040516104519190612f6a565b60405180910390f35b610474600480360381019061046f91906125d0565b611ac4565b005b34801561048257600080fd5b5061049d600480360381019061049891906125a7565b611c48565b6040516104aa9190612f6a565b60405180910390f35b3480156104bf57600080fd5b506104da60048036038101906104d591906125a7565b611cd9565b6040516104e79190612f6a565b60405180910390f35b3480156104fc57600080fd5b50610517600480360381019061051291906125a7565b611d6a565b005b610533600480360381019061052e91906125a7565b6122ab565b6040516105409190612f6a565b60405180910390f35b34801561055557600080fd5b50610570600480360381019061056b91906125a7565b6124d8565b60405161057d9190612f6a565b60405180910390f35b60008082815481106105c1577f4e487b7100000000000000000000000000000000000000000000000000000000600052603260045260246000fd5b906000526020600020906007020160000160009054906101000a900473ffffffffffffffffffffffffffffffffffffffff1673ffffffffffffffffffffffffffffffffffffffff168373ffffffffffffffffffffffffffffffffffffffff16141561062f5760019050610634565b600090505b92915050565b60008281548110610674577f4e487b7100000000000000000000000000000000000000000000000000000000600052603260045260246000fd5b906000526020600020906007020160030160009054906101000a900460ff166106d2576040517f08c379a00000000000000000000000000000000000000000000000000000000081526004016106c990612eaa565b60405180910390fd5b6000828154811061070c577f4e487b7100000000000000000000000000000000000000000000000000000000600052603260045260246000fd5b906000526020600020906007020160000160009054906101000a900473ffffffffffffffffffffffffffffffffffffffff1673ffffffffffffffffffffffffffffffffffffffff163373ffffffffffffffffffffffffffffffffffffffff1614156107ac576040517f08c379a00000000000000000000000000000000000000000000000000000000081526004016107a390612e8a565b60405180910390fd5b674563918244f40000600083815481106107ef577f4e487b7100000000000000000000000000000000000000000000000000000000600052603260045260246000fd5b906000526020600020906007020160050160003373ffffffffffffffffffffffffffffffffffffffff1673ffffffffffffffffffffffffffffffffffffffff16815260200190815260200160002054101561087f576040517f08c379a000000000000000000000000000000000000000000000000000000000815260040161087690612f2a565b60405180910390fd5b610887611197565b600083815481106108c1577f4e487b7100000000000000000000000000000000000000000000000000000000600052603260045260246000fd5b9060005260206000209060070201600201541015610914576040517f08c379a000000000000000000000000000000000000000000000000000000000815260040161090b90612eca565b60405180910390fd5b6001151560008381548110610952577f4e487b7100000000000000000000000000000000000000000000000000000000600052603260045260246000fd5b906000526020600020906007020160030160019054906101000a900460ff1615151415610a0b5780600083815481106109b4577f4e487b7100000000000000000000000000000000000000000000000000000000600052603260045260246000fd5b906000526020600020906007020160060160003373ffffffffffffffffffffffffffffffffffffffff1673ffffffffffffffffffffffffffffffffffffffff16815260200190815260200160002081905550610b63565b60008281548110610a45577f4e487b7100000000000000000000000000000000000000000000000000000000600052603260045260246000fd5b906000526020600020906007020160060160003373ffffffffffffffffffffffffffffffffffffffff1673ffffffffffffffffffffffffffffffffffffffff168152602001908152602001600020548111610ad5576040517f08c379a0000000000000000000000000000000000000000000000000000000008152600401610acc90612e0a565b60405180910390fd5b8060008381548110610b10577f4e487b7100000000000000000000000000000000000000000000000000000000600052603260045260246000fd5b906000526020600020906007020160060160003373ffffffffffffffffffffffffffffffffffffffff1673ffffffffffffffffffffffffffffffffffffffff168152602001908152602001600020819055505b43823373ffffffffffffffffffffffffffffffffffffffff167fc17b1d2fac2243aa836e914be7fcd693b7e5e91f1f1a1e425ab805d50184159a84604051610bab9190612f6a565b60405180910390a45050565b600080151560008381548110610bf6577f4e487b7100000000000000000000000000000000000000000000000000000000600052603260045260246000fd5b906000526020600020906007020160030160019054906101000a900460ff16151514610c57576040517f08c379a0000000000000000000000000000000000000000000000000000000008152600401610c4e90612dea565b60405180910390fd5b6000805b60008481548110610c95577f4e487b7100000000000000000000000000000000000000000000000000000000600052603260045260246000fd5b906000526020600020906007020160040180549050811015610e92576000808581548110610cec577f4e487b7100000000000000000000000000000000000000000000000000000000600052603260045260246000fd5b90600052602060002090600702016004018281548110610d35577f4e487b7100000000000000000000000000000000000000000000000000000000600052603260045260246000fd5b9060005260206000200160009054906101000a900473ffffffffffffffffffffffffffffffffffffffff1690508260008681548110610d9d577f4e487b7100000000000000000000000000000000000000000000000000000000600052603260045260246000fd5b906000526020600020906007020160060160008373ffffffffffffffffffffffffffffffffffffffff1673ffffffffffffffffffffffffffffffffffffffff168152602001908152602001600020541115610e7e5760008581548110610e2c577f4e487b7100000000000000000000000000000000000000000000000000000000600052603260045260246000fd5b906000526020600020906007020160060160008273ffffffffffffffffffffffffffffffffffffffff1673ffffffffffffffffffffffffffffffffffffffff1681526020019081526020016000205492505b508080610e8a90613094565b915050610c5b565b5080915050919050565b6000806000151560008481548110610edd577f4e487b7100000000000000000000000000000000000000000000000000000000600052603260045260246000fd5b906000526020600020906007020160030160019054906101000a900460ff16151514610f3e576040517f08c379a0000000000000000000000000000000000000000000000000000000008152600401610f3590612f0a565b60405180910390fd5b600080610f4a8561159b565b905060005b60008681548110610f89577f4e487b7100000000000000000000000000000000000000000000000000000000600052603260045260246000fd5b906000526020600020906007020160040180549050811015611189576000808781548110610fe0577f4e487b7100000000000000000000000000000000000000000000000000000000600052603260045260246000fd5b90600052602060002090600702016004018281548110611029577f4e487b7100000000000000000000000000000000000000000000000000000000600052603260045260246000fd5b9060005260206000200160009054906101000a900473ffffffffffffffffffffffffffffffffffffffff1690508360008881548110611091577f4e487b7100000000000000000000000000000000000000000000000000000000600052603260045260246000fd5b906000526020600020906007020160060160008373ffffffffffffffffffffffffffffffffffffffff1673ffffffffffffffffffffffffffffffffffffffff1681526020019081526020016000205411156111755760008781548110611120577f4e487b7100000000000000000000000000000000000000000000000000000000600052603260045260246000fd5b906000526020600020906007020160060160008273ffffffffffffffffffffffffffffffffffffffff1673ffffffffffffffffffffffffffffffffffffffff1681526020019081526020016000205493508092505b50808061118190613094565b915050610f4f565b508082935093505050915091565b600043905090565b600081815481106111d9577f4e487b7100000000000000000000000000000000000000000000000000000000600052603260045260246000fd5b906000526020600020906007020160000160009054906101000a900473ffffffffffffffffffffffffffffffffffffffff1673ffffffffffffffffffffffffffffffffffffffff163373ffffffffffffffffffffffffffffffffffffffff1614611278576040517f08c379a000000000000000000000000000000000000000000000000000000000815260040161126f90612daa565b60405180910390fd5b60001515600082815481106112b6577f4e487b7100000000000000000000000000000000000000000000000000000000600052603260045260246000fd5b906000526020600020906007020160030160009054906101000a900460ff16151514611317576040517f08c379a000000000000000000000000000000000000000000000000000000000815260040161130e90612dca565b60405180910390fd5b600154436113259190612ff6565b6000828154811061135f577f4e487b7100000000000000000000000000000000000000000000000000000000600052603260045260246000fd5b9060005260206000209060070201600201819055506001600082815481106113b0577f4e487b7100000000000000000000000000000000000000000000000000000000600052603260045260246000fd5b906000526020600020906007020160030160006101000a81548160ff02191690831515021790555050565b6000600115156000838154811061141b577f4e487b7100000000000000000000000000000000000000000000000000000000600052603260045260246000fd5b906000526020600020906007020160030160019054906101000a900460ff161515141561144b5760019050611450565b600090505b919050565b6000818154811061146557600080fd5b90600052602060002090600702016000915090508060000160009054906101000a900473ffffffffffffffffffffffffffffffffffffffff16908060010154908060020154908060030160009054906101000a900460ff16908060030160019054906101000a900460ff16905085565b600080600090505b60008054905081101561155a578260008281548110611525577f4e487b7100000000000000000000000000000000000000000000000000000000600052603260045260246000fd5b9060005260206000209060070201600101541415611547576000915050611560565b808061155290613094565b9150506114dd565b50600190505b919050565b6000818360405160200161157a929190612cac565b6040516020818303038152906040528051906020012060001c905092915050565b60008082815481106115d6577f4e487b7100000000000000000000000000000000000000000000000000000000600052603260045260246000fd5b906000526020600020906007020160000160009054906101000a900473ffffffffffffffffffffffffffffffffffffffff169050919050565b600080828154811061164a577f4e487b7100000000000000000000000000000000000000000000000000000000600052603260045260246000fd5b906000526020600020906007020160050160003373ffffffffffffffffffffffffffffffffffffffff1673ffffffffffffffffffffffffffffffffffffffff16815260200190815260200160002054116116d9576040517f08c379a00000000000000000000000000000000000000000000000000000000081526004016116d090612e4a565b60405180910390fd5b6000151560008281548110611717577f4e487b7100000000000000000000000000000000000000000000000000000000600052603260045260246000fd5b906000526020600020906007020160030160009054906101000a900460ff161515148061178e5750436000828154811061177a577f4e487b7100000000000000000000000000000000000000000000000000000000600052603260045260246000fd5b906000526020600020906007020160020154105b6117cd576040517f08c379a00000000000000000000000000000000000000000000000000000000081526004016117c490612e2a565b60405180910390fd5b3373ffffffffffffffffffffffffffffffffffffffff166108fc60008381548110611821577f4e487b7100000000000000000000000000000000000000000000000000000000600052603260045260246000fd5b906000526020600020906007020160050160003373ffffffffffffffffffffffffffffffffffffffff1673ffffffffffffffffffffffffffffffffffffffff168152602001908152602001600020549081150290604051600060405180830381858888f1935050505015801561189b573d6000803e3d6000fd5b5060008082815481106118d7577f4e487b7100000000000000000000000000000000000000000000000000000000600052603260045260246000fd5b906000526020600020906007020160050160003373ffffffffffffffffffffffffffffffffffffffff1673ffffffffffffffffffffffffffffffffffffffff1681526020019081526020016000208190555050565b60008080549050905090565b6000808281548110611973577f4e487b7100000000000000000000000000000000000000000000000000000000600052603260045260246000fd5b906000526020600020906007020160030160009054906101000a900460ff1680156119e85750600082815481106119d3577f4e487b7100000000000000000000000000000000000000000000000000000000600052603260045260246000fd5b90600052602060002090600702016002015443105b9050919050565b60006119fa826114d5565b15611a3a576040517f08c379a0000000000000000000000000000000000000000000000000000000008152600401611a3190612e6a565b60405180910390fd5b60005b600080549050811015611ab9578260008281548110611a85577f4e487b7100000000000000000000000000000000000000000000000000000000600052603260045260246000fd5b9060005260206000209060070201600101541415611aa65780915050611abf565b8080611ab190613094565b915050611a3d565b50600090505b919050565b611acd826114d5565b611b0c576040517f08c379a0000000000000000000000000000000000000000000000000000000008152600401611b0390612f4a565b60405180910390fd5b6000808054905090506000600181600181540180825580915050039060005260206000209050506000808281548110611b6e577f4e487b7100000000000000000000000000000000000000000000000000000000600052603260045260246000fd5b9060005260206000209060070201905060008160020181905550338160000160006101000a81548173ffffffffffffffffffffffffffffffffffffffff021916908373ffffffffffffffffffffffffffffffffffffffff160217905550828160030160016101000a81548160ff0219169083151502179055508381600101819055503373ffffffffffffffffffffffffffffffffffffffff167ff04b9fd96031702b939d571a81acc9c809b2376063fcbc6afd6f75af5ed13922838686604051611c3a93929190612fae565b60405180910390a250505050565b6000808281548110611c83577f4e487b7100000000000000000000000000000000000000000000000000000000600052603260045260246000fd5b906000526020600020906007020160050160003373ffffffffffffffffffffffffffffffffffffffff1673ffffffffffffffffffffffffffffffffffffffff168152602001908152602001600020549050919050565b6000808281548110611d14577f4e487b7100000000000000000000000000000000000000000000000000000000600052603260045260246000fd5b906000526020600020906007020160060160003373ffffffffffffffffffffffffffffffffffffffff1673ffffffffffffffffffffffffffffffffffffffff168152602001908152602001600020549050919050565b60008181548110611da4577f4e487b7100000000000000000000000000000000000000000000000000000000600052603260045260246000fd5b906000526020600020906007020160000160009054906101000a900473ffffffffffffffffffffffffffffffffffffffff1673ffffffffffffffffffffffffffffffffffffffff163373ffffffffffffffffffffffffffffffffffffffff1614611e43576040517f08c379a0000000000000000000000000000000000000000000000000000000008152600401611e3a90612eea565b60405180910390fd5b60008181548110611e7d577f4e487b7100000000000000000000000000000000000000000000000000000000600052603260045260246000fd5b9060005260206000209060070201600201544311611ed0576040517f08c379a0000000000000000000000000000000000000000000000000000000008152600401611ec790612d8a565b60405180910390fd5b60005b60008281548110611f0d577f4e487b7100000000000000000000000000000000000000000000000000000000600052603260045260246000fd5b9060005260206000209060070201600401805490508110156122a7576000808381548110611f64577f4e487b7100000000000000000000000000000000000000000000000000000000600052603260045260246000fd5b90600052602060002090600702016004018281548110611fad577f4e487b7100000000000000000000000000000000000000000000000000000000600052603260045260246000fd5b9060005260206000200160009054906101000a900473ffffffffffffffffffffffffffffffffffffffff1690506000808481548110612015577f4e487b7100000000000000000000000000000000000000000000000000000000600052603260045260246000fd5b90600052602060002090600702016005016000808681548110612061577f4e487b7100000000000000000000000000000000000000000000000000000000600052603260045260246000fd5b906000526020600020906007020160040185815481106120aa577f4e487b7100000000000000000000000000000000000000000000000000000000600052603260045260246000fd5b9060005260206000200160009054906101000a900473ffffffffffffffffffffffffffffffffffffffff1673ffffffffffffffffffffffffffffffffffffffff1673ffffffffffffffffffffffffffffffffffffffff1681526020019081526020016000205490508173ffffffffffffffffffffffffffffffffffffffff166108fc829081150290604051600060405180830381858888f19350505050158015612158573d6000803e3d6000fd5b506000808581548110612194577f4e487b7100000000000000000000000000000000000000000000000000000000600052603260045260246000fd5b906000526020600020906007020160050160008087815481106121e0577f4e487b7100000000000000000000000000000000000000000000000000000000600052603260045260246000fd5b90600052602060002090600702016004018681548110612229577f4e487b7100000000000000000000000000000000000000000000000000000000600052603260045260246000fd5b9060005260206000200160009054906101000a900473ffffffffffffffffffffffffffffffffffffffff1673ffffffffffffffffffffffffffffffffffffffff1673ffffffffffffffffffffffffffffffffffffffff168152602001908152602001600020819055505050808061229f90613094565b915050611ed3565b5050565b600034600083815481106122e8577f4e487b7100000000000000000000000000000000000000000000000000000000600052603260045260246000fd5b906000526020600020906007020160050160003373ffffffffffffffffffffffffffffffffffffffff1673ffffffffffffffffffffffffffffffffffffffff16815260200190815260200160002060008282546123459190612ff6565b9250508190555060008281548110612386577f4e487b7100000000000000000000000000000000000000000000000000000000600052603260045260246000fd5b9060005260206000209060070201600401339080600181540180825580915050600190039060005260206000200160009091909190916101000a81548173ffffffffffffffffffffffffffffffffffffffff021916908373ffffffffffffffffffffffffffffffffffffffff1602179055503373ffffffffffffffffffffffffffffffffffffffff167fad40ae5dc69974ba932d08b0a608e89109412d41d04850f5196f144875ae26603484604051612440929190612f85565b60405180910390a260008281548110612482577f4e487b7100000000000000000000000000000000000000000000000000000000600052603260045260246000fd5b906000526020600020906007020160050160003373ffffffffffffffffffffffffffffffffffffffff1673ffffffffffffffffffffffffffffffffffffffff168152602001908152602001600020549050919050565b6000808281548110612513577f4e487b7100000000000000000000000000000000000000000000000000000000600052603260045260246000fd5b9060005260206000209060070201600201549050919050565b60008135905061253b81613116565b92915050565b6000813590506125508161312d565b92915050565b60008135905061256581613144565b92915050565b6000806040838503121561257e57600080fd5b600061258c8582860161252c565b925050602061259d85828601612556565b9150509250929050565b6000602082840312156125b957600080fd5b60006125c784828501612556565b91505092915050565b600080604083850312156125e357600080fd5b60006125f185828601612556565b925050602061260285828601612541565b9150509250929050565b6000806040838503121561261f57600080fd5b600061262d85828601612556565b925050602061263e85828601612556565b9150509250929050565b6126518161304c565b82525050565b6126608161305e565b82525050565b6000612673603a83612fe5565b91507f4552524f523a205468652061756374696f6e2063616e206f6e6c79206265206b60008301527f696c6c6564207768656e2061756374696f6e206973206f7665720000000000006020830152604082019050919050565b60006126d9602b83612fe5565b91507f4552524f523a204f6e6c7920746865206f776e65722063616e2073746172742060008301527f7468652061756374696f6e0000000000000000000000000000000000000000006020830152604082019050919050565b600061273f602b83612fe5565b91507f4552524f523a205468652061756374696f6e2063616e206f6e6c79206265207360008301527f746172746564206f6e63650000000000000000000000000000000000000000006020830152604082019050919050565b60006127a5603983612fe5565b91507f4552524f523a206765742068696768657374206269642063616e206f6e6c792060008301527f62652063616c6c6564206f6e206f70656e2061756374696f6e000000000000006020830152604082019050919050565b600061280b603f83612fe5565b91507f4552524f523a2042696473206861766520746f2062652068696768657220746860008301527f616e2070726576696f7573206269647320286f70656e2061756374696f6e29006020830152604082019050919050565b6000612871605b83612fe5565b91507f4552524f523a20526566756e64206973206f6e6c7920706f737369626c65206160008301527f66746572207468652061756374696f6e206973206f766572206f72206265666f60208301527f7265207468652061756374696f6e2068617320737461727465642e00000000006040830152606082019050919050565b60006128fd602b83612fe5565b91507f4552524f523a205468652053656e64657220646f6573206e6f7420686176652060008301527f616e79206465706f7369740000000000000000000000000000000000000000006020830152604082019050919050565b6000612963602083612fe5565b91507f4552524f523a204964656e74696669657220646f6573206e6f742065786973746000830152602082019050919050565b60006129a3602f83612fe5565b91507f4552524f523a20546865206f776e65722063616e206e6f7420626964206f6e2060008301527f6869732f6865722061756374696f6e00000000000000000000000000000000006020830152604082019050919050565b6000612a09602d83612fe5565b91507f4552524f523a205468652061756374696f6e2068617320746f2062652073746160008301527f72746564202861637469766529000000000000000000000000000000000000006020830152604082019050919050565b6000612a6f603483612fe5565b91507f4552524f523a2041756374696f6e20697320616c7265616479206f766572202860008301527f426c6f636b206c696d69742072656163686564290000000000000000000000006020830152604082019050919050565b6000612ad5602b83612fe5565b91507f4552524f523a204f6e6c7920746865206f776e65722063616e206b696c6c207460008301527f68652061756374696f6e2e0000000000000000000000000000000000000000006020830152604082019050919050565b6000612b3b604383612fe5565b91507f4552524f523a205468652066756e6374696f6e206765742077696e6e6572206360008301527f616e206f6e6c792062652063616c6c6564206f6e206f70656e2061756374696f60208301527f6e732e00000000000000000000000000000000000000000000000000000000006040830152606082019050919050565b6000612bc7602d83612fe5565b91507f4552524f523a204465706f736974206973206e6f7420656e6f7567682028617460008301527f206c6561737420352045544829000000000000000000000000000000000000006020830152604082019050919050565b6000612c2d602183612fe5565b91507f4552524f523a204964656e74696669657220697320616c72656164792075736560008301527f64000000000000000000000000000000000000000000000000000000000000006020830152604082019050919050565b612c8f8161308a565b82525050565b612ca6612ca18261308a565b6130dd565b82525050565b6000612cb88285612c95565b602082019150612cc88284612c95565b6020820191508190509392505050565b6000602082019050612ced6000830184612648565b92915050565b6000604082019050612d086000830185612648565b612d156020830184612c86565b9392505050565b600060a082019050612d316000830188612648565b612d3e6020830187612c86565b612d4b6040830186612c86565b612d586060830185612657565b612d656080830184612657565b9695505050505050565b6000602082019050612d846000830184612657565b92915050565b60006020820190508181036000830152612da381612666565b9050919050565b60006020820190508181036000830152612dc3816126cc565b9050919050565b60006020820190508181036000830152612de381612732565b9050919050565b60006020820190508181036000830152612e0381612798565b9050919050565b60006020820190508181036000830152612e23816127fe565b9050919050565b60006020820190508181036000830152612e4381612864565b9050919050565b60006020820190508181036000830152612e63816128f0565b9050919050565b60006020820190508181036000830152612e8381612956565b9050919050565b60006020820190508181036000830152612ea381612996565b9050919050565b60006020820190508181036000830152612ec3816129fc565b9050919050565b60006020820190508181036000830152612ee381612a62565b9050919050565b60006020820190508181036000830152612f0381612ac8565b9050919050565b60006020820190508181036000830152612f2381612b2e565b9050919050565b60006020820190508181036000830152612f4381612bba565b9050919050565b60006020820190508181036000830152612f6381612c20565b9050919050565b6000602082019050612f7f6000830184612c86565b92915050565b6000604082019050612f9a6000830185612c86565b612fa76020830184612c86565b9392505050565b6000606082019050612fc36000830186612c86565b612fd06020830185612c86565b612fdd6040830184612657565b949350505050565b600082825260208201905092915050565b60006130018261308a565b915061300c8361308a565b9250827fffffffffffffffffffffffffffffffffffffffffffffffffffffffffffffffff03821115613041576130406130e7565b5b828201905092915050565b60006130578261306a565b9050919050565b60008115159050919050565b600073ffffffffffffffffffffffffffffffffffffffff82169050919050565b6000819050919050565b600061309f8261308a565b91507fffffffffffffffffffffffffffffffffffffffffffffffffffffffffffffffff8214156130d2576130d16130e7565b5b600182019050919050565b6000819050919050565b7f4e487b7100000000000000000000000000000000000000000000000000000000600052601160045260246000fd5b61311f8161304c565b811461312a57600080fd5b50565b6131368161305e565b811461314157600080fd5b50565b61314d8161308a565b811461315857600080fd5b5056fea2646970667358221220cc638825ac8b0e310e48069b95fdf022f8ee86c83cc3c5820dc1eba9b3be86a064736f6c63430008000033",
  "immutableReferences": {},
  "source": "// SPDX-License-Identifier: MIT\npragma solidity ^0.8.0;\n\ncontract AuctionHouse {\n\n    struct Auction {\n        address owner;\n        uint auction_identifier;\n        uint endtime; \n        bool active; \n        bool sealed_auction; \n        address[] bidders;\n        mapping (address => uint) deposit;   \n        mapping (address => uint) bids;\n    }\n\n    Auction[] public auctions;\n\n    uint256 interval = 3; \n    \n    // define events\n    event DepositEvent(address indexed sender, uint value, uint256 idx);\n    event AuctionDeployed(address indexed owner, uint256 idx, uint256 identifier, bool sealed_auction);\n    event BidEvent(address indexed sender, uint256 indexed idx, uint indexed blockNr, uint value);\n\n    function hashSeriesNumber(uint256 nonce, uint256 number) public pure returns (uint) {\n        // hash the value of a string and number \n        return uint256(keccak256(abi.encodePacked(number, nonce)));\n    }\n\n    function get_owner(uint idx) public view returns (address){\n        // returns the address of the owner for certain id \n        return auctions[idx].owner;\n    }\n\n    function is_owner(address addr, uint idx) public view returns (bool){\n        // returns true/false of an address with idx\n        if (addr == auctions[idx].owner){\n            return true;\n        }\n        else{\n            return false;\n        }\n    }\n\n    function is_sealed(uint idx) public view returns (bool){\n        // returns true/false if the auction is sealed\n        if (auctions[idx].sealed_auction == true){\n            return true;\n        }\n        else{\n            return false;\n        }\n    }\n\n    function get_idx_from_identifier(uint identifier) public view returns (uint){\n        // get the id of an auction given an identifier\n        require(!identifier_is_unused(identifier), \"ERROR: Identifier does not exist\");\n        for (uint256 idx = 0; idx < auctions.length; idx++) {\n            if (auctions[idx].auction_identifier == identifier){\n                return idx;\n            }\n        }\n        return 0;\n    }\n\n    function identifier_is_unused(uint identifier) public view returns (bool){\n        // check if the identifier is already in use\n        for (uint256 idx = 0; idx < auctions.length; idx++) {\n            if (auctions[idx].auction_identifier == identifier){\n                return false;\n            }\n        }\n        return true;\n    }\n\n    function get_number_of_auctions() public view returns (uint){\n        // returns the number of auctions\n        return auctions.length;\n    }\n\n    function deploy_auction(uint identifier, bool type_sealed) public payable{\n        // deploys an auction\n        require(identifier_is_unused(identifier), \"ERROR: Identifier is already used\");\n        uint idx = auctions.length;\n        auctions.push();\n        Auction storage new_auct = auctions[idx];\n        // Changed by Max\n        new_auct.endtime = 0;\n        new_auct.owner = msg.sender;\n        new_auct.sealed_auction = type_sealed;\n        new_auct.auction_identifier = identifier;\n        emit AuctionDeployed(msg.sender, idx, identifier, type_sealed);\n    }\n\n    function start_auction(uint idx) public payable {\n        // start the auction, setting timelimit, can only not be reactivated\n        require(msg.sender == auctions[idx].owner, \"ERROR: Only the owner can start the auction\");\n        require(auctions[idx].active == false, \"ERROR: The auction can only be started once\");\n        auctions[idx].endtime = block.number + interval;\n        auctions[idx].active = true;\n        \n    }\n\n    function is_active(uint idx) public view returns (bool) {\n        return auctions[idx].active && block.number < auctions[idx].endtime;\n    }\n\n    function deposit_money(uint idx) public payable returns (uint){\n        // Deposit money in order to be able to participate\n        auctions[idx].deposit[msg.sender] += msg.value;\n        auctions[idx].bidders.push(msg.sender);\n        emit DepositEvent(msg.sender, msg.value, idx);\n        return auctions[idx].deposit[msg.sender];\n    }\n\n    function get_deposit_balance(uint idx) public view returns (uint){\n        // gets the balances of bidders\n        return auctions[idx].deposit[msg.sender];\n    }\n\n    function set_bid(uint idx, uint bid_value) public {\n        // sets the bid, requirements have to be fulfilled \n        require(auctions[idx].active, \"ERROR: The auction has to be started (active)\");\n        require(msg.sender != auctions[idx].owner, \"ERROR: The owner can not bid on his/her auction\");\n        require(auctions[idx].deposit[msg.sender]>=5 ether, \"ERROR: Deposit is not enough (at least 5 ETH)\");\n        require(auctions[idx].endtime >= create_timestamp(), \"ERROR: Auction is already over (Block limit reached)\");\n\n        if (auctions[idx].sealed_auction == true){\n            auctions[idx].bids[msg.sender] = bid_value;\n        }\n        else{\n            require(bid_value > auctions[idx].bids[msg.sender], \"ERROR: Bids have to be higher than previous bids (open auction)\");\n            auctions[idx].bids[msg.sender] = bid_value;\n        }\n        emit BidEvent(msg.sender, idx, block.number, bid_value);\n    }\n\n    function get_bid(uint idx) public view returns (uint){\n        // returns last/highest bid of bidder\n        return auctions[idx].bids[msg.sender];\n    }\n\n    function get_highest_bid(uint idx) public view returns (uint) {\n        require(auctions[idx].sealed_auction == false, \"ERROR: get highest bid can only be called on open auction\");\n        uint winning_bid=0;\n        for (uint256 i = 0; i < auctions[idx].bidders.length; i++) {\n            address curr_bidder = auctions[idx].bidders[i];\n            if (auctions[idx].bids[curr_bidder] > winning_bid){\n                winning_bid = auctions[idx].bids[curr_bidder];\n            }\n        }  \n        return winning_bid;\n    }\n\n    function get_endtime(uint idx) public view returns (uint){\n        // returns the endtime\n        return auctions[idx].endtime;\n    }\n\n    function create_timestamp() public view returns (uint256){\n        // creates timestamp\n        return block.number;\n    }\n\n    function kill(uint idx) public{\n        // transfers back all deposts for auction id\n        require(msg.sender == auctions[idx].owner, \"ERROR: Only the owner can kill the auction.\");\n        require(block.number > auctions[idx].endtime, \"ERROR: The auction can only be killed when auction is over\");\n        for (uint256 i = 0; i < auctions[idx].bidders.length; i++) {\n            address bidder = auctions[idx].bidders[i];\n            uint deposit = auctions[idx].deposit[auctions[idx].bidders[i]];\n            payable(bidder).transfer(deposit);\n            auctions[idx].deposit[auctions[idx].bidders[i]] = 0;\n        }\n    }    \n\n    function get_winner(uint idx) public view returns (address winner, uint bid) {\n        require(auctions[idx].sealed_auction == false, \"ERROR: The function get winner can only be called on open auctions.\");\n        uint winning_bid=0;\n        address winner_address=get_owner(idx);\n        for (uint256 i = 0; i < auctions[idx].bidders.length; i++) {\n            address curr_bidder = auctions[idx].bidders[i];\n            if (auctions[idx].bids[curr_bidder] > winning_bid){\n                winning_bid = auctions[idx].bids[curr_bidder];\n                winner_address = curr_bidder;\n            }\n        }  \n        return (winner_address, winning_bid);\n    }\n\n    function refund_deposit(uint idx) public {\n        // refund the deposit if action is not active or if time is over\n        require(auctions[idx].deposit[msg.sender] > 0, \"ERROR: The Sender does not have any deposit\");\n        require(auctions[idx].active == false || auctions[idx].endtime < block.number, \"ERROR: Refund is only possible after the auction is over or before the auction has started.\");\n        payable(msg.sender).transfer(auctions[idx].deposit[msg.sender]);\n        auctions[idx].deposit[msg.sender] = 0;\n    }\n}\n",
  "sourcePath": "/Users/yannickklose/Library/Mobile Documents/com~apple~CloudDocs/Documents/07 SoSe21/Blockchain Technolgies/BlockchainProject/contracts/AuctionHouse.sol",
  "compiler": {
    "name": "solc",
    "version": "0.8.0+commit.c7dfd78e.Emscripten.clang"
  },
  "schemaVersion": "3.4.0",
  "updatedAt": "2021-07-05T19:49:35.060Z",
  "networkType": "ethereum",
  "devdoc": {
    "kind": "dev",
    "methods": {},
    "version": 1
  },
  "userdoc": {
    "kind": "user",
    "methods": {},
    "version": 1
  }
}