{
  "contractName": "AuctionHouse",
  "abi": [
    {
      "inputs": [],
      "stateMutability": "payable",
      "type": "constructor"
    },
    {
      "anonymous": false,
      "inputs": [
        {
          "indexed": true,
          "internalType": "address",
          "name": "accountAddress",
          "type": "address"
        },
        {
          "indexed": false,
          "internalType": "uint256",
          "name": "amount",
          "type": "uint256"
        }
      ],
      "name": "LogDepositMade",
      "type": "event"
    },
    {
      "anonymous": false,
      "inputs": [
        {
          "indexed": true,
          "internalType": "address",
          "name": "_from",
          "type": "address"
        },
        {
          "indexed": true,
          "internalType": "address",
          "name": "_to",
          "type": "address"
        },
        {
          "indexed": false,
          "internalType": "uint256",
          "name": "_value",
          "type": "uint256"
        }
      ],
      "name": "Transfer",
      "type": "event"
    },
    {
      "inputs": [
        {
          "internalType": "uint256",
          "name": "idx",
          "type": "uint256"
        }
      ],
      "name": "get_owner",
      "outputs": [
        {
          "internalType": "address",
          "name": "",
          "type": "address"
        }
      ],
      "stateMutability": "view",
      "type": "function"
    },
    {
      "inputs": [
        {
          "internalType": "address",
          "name": "add",
          "type": "address"
        },
        {
          "internalType": "uint256",
          "name": "idx",
          "type": "uint256"
        }
      ],
      "name": "is_owner",
      "outputs": [
        {
          "internalType": "bool",
          "name": "",
          "type": "bool"
        }
      ],
      "stateMutability": "view",
      "type": "function"
    },
    {
      "inputs": [
        {
          "internalType": "address",
          "name": "owner",
          "type": "address"
        }
      ],
      "name": "get_id",
      "outputs": [
        {
          "internalType": "uint256",
          "name": "",
          "type": "uint256"
        }
      ],
      "stateMutability": "view",
      "type": "function"
    },
    {
      "inputs": [],
      "name": "deploy_auction",
      "outputs": [],
      "stateMutability": "payable",
      "type": "function"
    },
    {
      "inputs": [
        {
          "internalType": "uint256",
          "name": "idx",
          "type": "uint256"
        }
      ],
      "name": "start_auction",
      "outputs": [],
      "stateMutability": "payable",
      "type": "function"
    },
    {
      "inputs": [
        {
          "internalType": "uint256",
          "name": "idx",
          "type": "uint256"
        }
      ],
      "name": "deposit_money",
      "outputs": [
        {
          "internalType": "uint256",
          "name": "",
          "type": "uint256"
        }
      ],
      "stateMutability": "payable",
      "type": "function"
    },
    {
      "inputs": [
        {
          "internalType": "uint256",
          "name": "idx",
          "type": "uint256"
        }
      ],
      "name": "get_deposit_balance",
      "outputs": [
        {
          "internalType": "uint256",
          "name": "",
          "type": "uint256"
        }
      ],
      "stateMutability": "view",
      "type": "function"
    },
    {
      "inputs": [
        {
          "internalType": "uint256",
          "name": "idx",
          "type": "uint256"
        },
        {
          "internalType": "uint256",
          "name": "bid_value",
          "type": "uint256"
        }
      ],
      "name": "set_bid",
      "outputs": [],
      "stateMutability": "nonpayable",
      "type": "function"
    },
    {
      "inputs": [
        {
          "internalType": "uint256",
          "name": "idx",
          "type": "uint256"
        }
      ],
      "name": "get_bid",
      "outputs": [
        {
          "internalType": "uint256",
          "name": "",
          "type": "uint256"
        }
      ],
      "stateMutability": "view",
      "type": "function"
    },
    {
      "inputs": [
        {
          "internalType": "uint256",
          "name": "idx",
          "type": "uint256"
        }
      ],
      "name": "get_endtime",
      "outputs": [
        {
          "internalType": "uint256",
          "name": "",
          "type": "uint256"
        }
      ],
      "stateMutability": "view",
      "type": "function"
    },
    {
      "inputs": [],
      "name": "create_timestamp",
      "outputs": [
        {
          "internalType": "uint256",
          "name": "",
          "type": "uint256"
        }
      ],
      "stateMutability": "view",
      "type": "function"
    },
    {
      "inputs": [
        {
          "internalType": "uint256",
          "name": "idx",
          "type": "uint256"
        }
      ],
      "name": "kill",
      "outputs": [],
      "stateMutability": "nonpayable",
      "type": "function"
    },
    {
      "inputs": [
        {
          "internalType": "uint256",
          "name": "idx",
          "type": "uint256"
        }
      ],
      "name": "get_winner",
      "outputs": [
        {
          "internalType": "address",
          "name": "",
          "type": "address"
        },
        {
          "internalType": "uint256",
          "name": "",
          "type": "uint256"
        }
      ],
      "stateMutability": "view",
      "type": "function"
    },
    {
      "inputs": [
        {
          "internalType": "uint256",
          "name": "idx",
          "type": "uint256"
        }
      ],
      "name": "refund_deposit",
      "outputs": [],
      "stateMutability": "nonpayable",
      "type": "function"
    }
  ],
  "bytecode": "0x6080604052670de0b6b3a76400006001556402540be4006002556007600355611ae38061002d6000396000f3fe6080604052600436106100dd5760003560e01c80637a2994eb1161007f578063d29a002511610059578063d29a0025146102b7578063e9117d89146102e0578063ef2784a814610310578063f458de9e1461034d576100dd565b80637a2994eb14610214578063a092c5041461023d578063ce4339b71461027a576100dd565b80633ea3ff93116100bb5780633ea3ff931461018657806344375fc7146101b157806372205875146101cd5780637839e3ac1461020a576100dd565b8063051a00d3146100e25780630802ca281461011f578063243dc40914610148575b600080fd5b3480156100ee57600080fd5b50610109600480360381019061010491906117c7565b61038a565b60405161011691906118d9565b60405180910390f35b34801561012b57600080fd5b506101466004803603810190610141919061182c565b61043e565b005b34801561015457600080fd5b5061016f600480360381019061016a9190611803565b610757565b60405161017d9291906118b0565b60405180910390f35b34801561019257600080fd5b5061019b610a0a565b6040516101a891906118f4565b60405180910390f35b6101cb60048036038101906101c69190611803565b610a12565b005b3480156101d957600080fd5b506101f460048036038101906101ef9190611803565b610bde565b6040516102019190611895565b60405180910390f35b610212610c52565b005b34801561022057600080fd5b5061023b60048036038101906102369190611803565b610d2c565b005b34801561024957600080fd5b50610264600480360381019061025f9190611803565b610ef4565b60405161027191906118f4565b60405180910390f35b34801561028657600080fd5b506102a1600480360381019061029c9190611803565b610f85565b6040516102ae91906118f4565b60405180910390f35b3480156102c357600080fd5b506102de60048036038101906102d99190611803565b611016565b005b6102fa60048036038101906102f59190611803565b6114eb565b60405161030791906118f4565b60405180910390f35b34801561031c57600080fd5b506103376004803603810190610332919061179e565b6116c8565b60405161034491906118f4565b60405180910390f35b34801561035957600080fd5b50610374600480360381019061036f9190611803565b611720565b60405161038191906118f4565b60405180910390f35b60008082815481106103c5577f4e487b7100000000000000000000000000000000000000000000000000000000600052603260045260246000fd5b906000526020600020906006020160000160009054906101000a900473ffffffffffffffffffffffffffffffffffffffff1673ffffffffffffffffffffffffffffffffffffffff168373ffffffffffffffffffffffffffffffffffffffff1614156104335760019050610438565b600090505b92915050565b60008281548110610478577f4e487b7100000000000000000000000000000000000000000000000000000000600052603260045260246000fd5b906000526020600020906006020160020160009054906101000a900460ff161561075357600082815481106104d6577f4e487b7100000000000000000000000000000000000000000000000000000000600052603260045260246000fd5b906000526020600020906006020160000160009054906101000a900473ffffffffffffffffffffffffffffffffffffffff1673ffffffffffffffffffffffffffffffffffffffff163373ffffffffffffffffffffffffffffffffffffffff16146107525760015460056105499190611965565b60008381548110610583577f4e487b7100000000000000000000000000000000000000000000000000000000600052603260045260246000fd5b906000526020600020906006020160050160003373ffffffffffffffffffffffffffffffffffffffff1673ffffffffffffffffffffffffffffffffffffffff16815260200190815260200160002054106107515760008281548110610611577f4e487b7100000000000000000000000000000000000000000000000000000000600052603260045260246000fd5b906000526020600020906006020160040160003373ffffffffffffffffffffffffffffffffffffffff1673ffffffffffffffffffffffffffffffffffffffff168152602001908152602001600020548111156107505761066f610a0a565b600083815481106106a9577f4e487b7100000000000000000000000000000000000000000000000000000000600052603260045260246000fd5b906000526020600020906006020160010154111561074f5780600083815481106106fc577f4e487b7100000000000000000000000000000000000000000000000000000000600052603260045260246000fd5b906000526020600020906006020160040160003373ffffffffffffffffffffffffffffffffffffffff1673ffffffffffffffffffffffffffffffffffffffff168152602001908152602001600020819055505b5b5b5b5b5050565b6000804360008481548110610795577f4e487b7100000000000000000000000000000000000000000000000000000000600052603260045260246000fd5b906000526020600020906006020160010154106107b157600080fd5b6000806107bd85610bde565b905060005b600086815481106107fc577f4e487b7100000000000000000000000000000000000000000000000000000000600052603260045260246000fd5b9060005260206000209060060201600301805490508110156109fc576000808781548110610853577f4e487b7100000000000000000000000000000000000000000000000000000000600052603260045260246000fd5b9060005260206000209060060201600301828154811061089c577f4e487b7100000000000000000000000000000000000000000000000000000000600052603260045260246000fd5b9060005260206000200160009054906101000a900473ffffffffffffffffffffffffffffffffffffffff1690508360008881548110610904577f4e487b7100000000000000000000000000000000000000000000000000000000600052603260045260246000fd5b906000526020600020906006020160040160008373ffffffffffffffffffffffffffffffffffffffff1673ffffffffffffffffffffffffffffffffffffffff1681526020019081526020016000205411156109e85760008781548110610993577f4e487b7100000000000000000000000000000000000000000000000000000000600052603260045260246000fd5b906000526020600020906006020160040160008273ffffffffffffffffffffffffffffffffffffffff1673ffffffffffffffffffffffffffffffffffffffff1681526020019081526020016000205493508092505b5080806109f490611a07565b9150506107c2565b508082935093505050915091565b600043905090565b60008181548110610a4c577f4e487b7100000000000000000000000000000000000000000000000000000000600052603260045260246000fd5b906000526020600020906006020160000160009054906101000a900473ffffffffffffffffffffffffffffffffffffffff1673ffffffffffffffffffffffffffffffffffffffff163373ffffffffffffffffffffffffffffffffffffffff16148015610b1457506000151560008281548110610af1577f4e487b7100000000000000000000000000000000000000000000000000000000600052603260045260246000fd5b906000526020600020906006020160020160009054906101000a900460ff161515145b15610bdb5760035443610b27919061190f565b60008281548110610b61577f4e487b7100000000000000000000000000000000000000000000000000000000600052603260045260246000fd5b906000526020600020906006020160010181905550600160008281548110610bb2577f4e487b7100000000000000000000000000000000000000000000000000000000600052603260045260246000fd5b906000526020600020906006020160020160006101000a81548160ff0219169083151502179055505b50565b6000808281548110610c19577f4e487b7100000000000000000000000000000000000000000000000000000000600052603260045260246000fd5b906000526020600020906006020160000160009054906101000a900473ffffffffffffffffffffffffffffffffffffffff169050919050565b600080805490509050600254811015610d29576000600181600181540180825580915050039060005260206000209050506000808281548110610cbe577f4e487b7100000000000000000000000000000000000000000000000000000000600052603260045260246000fd5b9060005260206000209060060201905060035443610cdc919061190f565b8160010181905550338160000160006101000a81548173ffffffffffffffffffffffffffffffffffffffff021916908373ffffffffffffffffffffffffffffffffffffffff160217905550505b50565b6000151560008281548110610d6a577f4e487b7100000000000000000000000000000000000000000000000000000000600052603260045260246000fd5b906000526020600020906006020160020160009054906101000a900460ff16151514610d9557600080fd5b3373ffffffffffffffffffffffffffffffffffffffff166108fc60008381548110610de9577f4e487b7100000000000000000000000000000000000000000000000000000000600052603260045260246000fd5b906000526020600020906006020160050160003373ffffffffffffffffffffffffffffffffffffffff1673ffffffffffffffffffffffffffffffffffffffff168152602001908152602001600020549081150290604051600060405180830381858888f19350505050158015610e63573d6000803e3d6000fd5b506000808281548110610e9f577f4e487b7100000000000000000000000000000000000000000000000000000000600052603260045260246000fd5b906000526020600020906006020160050160003373ffffffffffffffffffffffffffffffffffffffff1673ffffffffffffffffffffffffffffffffffffffff1681526020019081526020016000208190555050565b6000808281548110610f2f577f4e487b7100000000000000000000000000000000000000000000000000000000600052603260045260246000fd5b906000526020600020906006020160050160003373ffffffffffffffffffffffffffffffffffffffff1673ffffffffffffffffffffffffffffffffffffffff168152602001908152602001600020549050919050565b6000808281548110610fc0577f4e487b7100000000000000000000000000000000000000000000000000000000600052603260045260246000fd5b906000526020600020906006020160040160003373ffffffffffffffffffffffffffffffffffffffff1673ffffffffffffffffffffffffffffffffffffffff168152602001908152602001600020549050919050565b60008181548110611050577f4e487b7100000000000000000000000000000000000000000000000000000000600052603260045260246000fd5b906000526020600020906006020160000160009054906101000a900473ffffffffffffffffffffffffffffffffffffffff1673ffffffffffffffffffffffffffffffffffffffff163373ffffffffffffffffffffffffffffffffffffffff16146110b957600080fd5b600081815481106110f3577f4e487b7100000000000000000000000000000000000000000000000000000000600052603260045260246000fd5b906000526020600020906006020160010154431161111057600080fd5b60005b6000828154811061114d577f4e487b7100000000000000000000000000000000000000000000000000000000600052603260045260246000fd5b9060005260206000209060060201600301805490508110156114e75760008083815481106111a4577f4e487b7100000000000000000000000000000000000000000000000000000000600052603260045260246000fd5b906000526020600020906006020160030182815481106111ed577f4e487b7100000000000000000000000000000000000000000000000000000000600052603260045260246000fd5b9060005260206000200160009054906101000a900473ffffffffffffffffffffffffffffffffffffffff1690506000808481548110611255577f4e487b7100000000000000000000000000000000000000000000000000000000600052603260045260246000fd5b906000526020600020906006020160050160008086815481106112a1577f4e487b7100000000000000000000000000000000000000000000000000000000600052603260045260246000fd5b906000526020600020906006020160030185815481106112ea577f4e487b7100000000000000000000000000000000000000000000000000000000600052603260045260246000fd5b9060005260206000200160009054906101000a900473ffffffffffffffffffffffffffffffffffffffff1673ffffffffffffffffffffffffffffffffffffffff1673ffffffffffffffffffffffffffffffffffffffff1681526020019081526020016000205490508173ffffffffffffffffffffffffffffffffffffffff166108fc829081150290604051600060405180830381858888f19350505050158015611398573d6000803e3d6000fd5b5060008085815481106113d4577f4e487b7100000000000000000000000000000000000000000000000000000000600052603260045260246000fd5b90600052602060002090600602016005016000808781548110611420577f4e487b7100000000000000000000000000000000000000000000000000000000600052603260045260246000fd5b90600052602060002090600602016003018681548110611469577f4e487b7100000000000000000000000000000000000000000000000000000000600052603260045260246000fd5b9060005260206000200160009054906101000a900473ffffffffffffffffffffffffffffffffffffffff1673ffffffffffffffffffffffffffffffffffffffff1673ffffffffffffffffffffffffffffffffffffffff16815260200190815260200160002081905550505080806114df90611a07565b915050611113565b5050565b60003460008381548110611528577f4e487b7100000000000000000000000000000000000000000000000000000000600052603260045260246000fd5b906000526020600020906006020160050160003373ffffffffffffffffffffffffffffffffffffffff1673ffffffffffffffffffffffffffffffffffffffff1681526020019081526020016000206000828254611585919061190f565b92505081905550600082815481106115c6577f4e487b7100000000000000000000000000000000000000000000000000000000600052603260045260246000fd5b9060005260206000209060060201600301339080600181540180825580915050600190039060005260206000200160009091909190916101000a81548173ffffffffffffffffffffffffffffffffffffffff021916908373ffffffffffffffffffffffffffffffffffffffff16021790555060008281548110611672577f4e487b7100000000000000000000000000000000000000000000000000000000600052603260045260246000fd5b906000526020600020906006020160050160003373ffffffffffffffffffffffffffffffffffffffff1673ffffffffffffffffffffffffffffffffffffffff168152602001908152602001600020549050919050565b600080600090505b600080549050811015611708576116e7838261038a565b156116f5578091505061171b565b808061170090611a07565b9150506116d0565b506001600254611718919061190f565b90505b919050565b600080828154811061175b577f4e487b7100000000000000000000000000000000000000000000000000000000600052603260045260246000fd5b9060005260206000209060060201600101549050919050565b60008135905061178381611a7f565b92915050565b60008135905061179881611a96565b92915050565b6000602082840312156117b057600080fd5b60006117be84828501611774565b91505092915050565b600080604083850312156117da57600080fd5b60006117e885828601611774565b92505060206117f985828601611789565b9150509250929050565b60006020828403121561181557600080fd5b600061182384828501611789565b91505092915050565b6000806040838503121561183f57600080fd5b600061184d85828601611789565b925050602061185e85828601611789565b9150509250929050565b611871816119bf565b82525050565b611880816119d1565b82525050565b61188f816119fd565b82525050565b60006020820190506118aa6000830184611868565b92915050565b60006040820190506118c56000830185611868565b6118d26020830184611886565b9392505050565b60006020820190506118ee6000830184611877565b92915050565b60006020820190506119096000830184611886565b92915050565b600061191a826119fd565b9150611925836119fd565b9250827fffffffffffffffffffffffffffffffffffffffffffffffffffffffffffffffff0382111561195a57611959611a50565b5b828201905092915050565b6000611970826119fd565b915061197b836119fd565b9250817fffffffffffffffffffffffffffffffffffffffffffffffffffffffffffffffff04831182151516156119b4576119b3611a50565b5b828202905092915050565b60006119ca826119dd565b9050919050565b60008115159050919050565b600073ffffffffffffffffffffffffffffffffffffffff82169050919050565b6000819050919050565b6000611a12826119fd565b91507fffffffffffffffffffffffffffffffffffffffffffffffffffffffffffffffff821415611a4557611a44611a50565b5b600182019050919050565b7f4e487b7100000000000000000000000000000000000000000000000000000000600052601160045260246000fd5b611a88816119bf565b8114611a9357600080fd5b50565b611a9f816119fd565b8114611aaa57600080fd5b5056fea26469706673582212205f601c80d33f7e3785fb36272615ddd8180c60bcd47150c281b746efa7dc22be64736f6c63430008000033",
  "immutableReferences": {},
  "source": "//pragma solidity ^0.5.8;\npragma solidity ^0.8.0;\n\ncontract AuctionHouse {\n\n    struct Auction {\n        address owner;\n        uint endtime; \n        bool active; \n        address[] bidders;\n        mapping (address => uint) bids;\n        mapping (address => uint) deposit;   \n    }\n\n    Auction[] auctions;\n\n    // define variables\n    uint256 ether_var = 10**18;\n    uint256 max_num_contracts = 10**10;\n    uint256 interval = 7;\n\n    // Log the event about a deposit being made by an address and its amount\n    event LogDepositMade(address indexed accountAddress, uint amount);\n    event Transfer(address indexed _from, address indexed _to, uint256 _value);\n\n    constructor() public payable{\n        // TODO: add something here\n    }\n\n    function get_owner(uint idx) public view returns (address){\n        // returns the address of the owner for certain id \n        return auctions[idx].owner;\n    }\n\n    function is_owner(address add, uint idx) public view returns (bool){\n        if (add == auctions[idx].owner){\n            return true;\n        }\n        else{\n            return false;\n        }\n    }\n\n    function get_id(address owner) public view returns (uint){\n        for (uint256 idx = 0; idx < auctions.length; idx++) {\n            if (is_owner(owner, idx)){\n                return idx;\n            }\n        }\n        return max_num_contracts+1; // TODO: larger value\n    }\n\n    function deploy_auction() public payable{\n        // deploy an auction\n        uint idx = auctions.length;\n        // check if maximum number of contracts is reached\n        if (idx < max_num_contracts){\n            auctions.push();\n            // define parameters\n            Auction storage new_auct = auctions[idx];\n            new_auct.endtime = block.number + interval;\n            new_auct.owner = msg.sender;\n        }\n    }\n\n    function start_auction(uint idx) public payable {\n        //start the auction, setting timelimit, can only not be reactivated\n        if (msg.sender == auctions[idx].owner && auctions[idx].active == false){\n            auctions[idx].endtime = block.number + interval;\n            auctions[idx].active = true;\n        }\n    }\n\n    function deposit_money(uint idx) public payable returns (uint){\n        // Deposit money in order to be able to participate\n        auctions[idx].deposit[msg.sender] += msg.value;\n        auctions[idx].bidders.push(msg.sender);\n        return auctions[idx].deposit[msg.sender];\n    }\n\n    function get_deposit_balance(uint idx) public view returns (uint){\n        // gets the balances of bidders\n        return auctions[idx].deposit[msg.sender];\n    }\n\n    function set_bid(uint idx, uint bid_value) public {\n        // contract has to be active\n        if (auctions[idx].active){\n            // the owner can not bid\n            if (msg.sender != auctions[idx].owner){\n                // you can not bid if you have not deposit inital money (5 Ether)\n                if (auctions[idx].deposit[msg.sender]>=5*ether_var){\n                    // only accept bid if its higher than the previous bid\n                    if (bid_value > auctions[idx].bids[msg.sender]) {\n                        // only accept bid if in valid time period\n                        if (auctions[idx].endtime > create_timestamp()){\n                            auctions[idx].bids[msg.sender] = bid_value;\n                        }\n                    }\n                }\n            }\n        }\n    }\n\n    function get_bid(uint idx) public view returns (uint){\n        // returns last/highest bid of bidder\n        return auctions[idx].bids[msg.sender];\n    }\n\n    function get_endtime(uint idx) public view returns (uint){\n        // returns the endtime\n        return auctions[idx].endtime;\n    }\n\n    function create_timestamp() public view returns (uint256){\n        // creates timestamp\n        return block.number;\n    }\n\n    function kill(uint idx) public{\n        // transfers back all deposts for auction id\n        require(msg.sender == auctions[idx].owner);\n        require(block.number > auctions[idx].endtime);\n        for (uint256 i = 0; i < auctions[idx].bidders.length; i++) {\n            address bidder = auctions[idx].bidders[i];\n            uint deposit = auctions[idx].deposit[auctions[idx].bidders[i]];\n            payable(bidder).transfer(deposit);\n            auctions[idx].deposit[auctions[idx].bidders[i]] = 0;\n        }\n    }    \n\n    function get_winner(uint idx) public view returns (address, uint) {\n        require((auctions[idx].endtime < block.number));\n        uint winning_bid=0;\n        address winner_address=get_owner(idx);\n        for (uint256 i = 0; i < auctions[idx].bidders.length; i++) {\n            address curr_bidder = auctions[idx].bidders[i];\n            if (auctions[idx].bids[curr_bidder] > winning_bid){\n                winning_bid = auctions[idx].bids[curr_bidder];\n                winner_address = curr_bidder;\n            }\n        }  \n        return (winner_address, winning_bid);\n    }\n\n    function refund_deposit(uint idx) public {\n        // refund the deposit if action is not active \n        require(auctions[idx].active == false);\n        payable(msg.sender).transfer(auctions[idx].deposit[msg.sender]);\n        auctions[idx].deposit[msg.sender] = 0;\n    }\n\n}\n",
  "sourcePath": "/Users/yannickklose/Library/Mobile Documents/com~apple~CloudDocs/Documents/07 SoSe21/Blockchain Technolgies/BlockchainProject/contracts/AuctionHouse.sol",
  "compiler": {
    "name": "solc",
    "version": "0.8.0+commit.c7dfd78e.Emscripten.clang"
  },
  "schemaVersion": "3.4.0",
  "updatedAt": "2021-05-16T09:39:35.269Z",
  "devdoc": {
    "kind": "dev",
    "methods": {},
    "version": 1
  },
  "userdoc": {
    "kind": "user",
    "methods": {},
    "version": 1
  }
}