{
  "contractName": "AuctionHouse",
  "abi": [
    {
      "inputs": [],
      "payable": true,
      "stateMutability": "payable",
      "type": "constructor"
    },
    {
      "anonymous": false,
      "inputs": [
        {
          "indexed": true,
          "internalType": "address",
          "name": "accountAddress",
          "type": "address"
        },
        {
          "indexed": false,
          "internalType": "uint256",
          "name": "amount",
          "type": "uint256"
        }
      ],
      "name": "LogDepositMade",
      "type": "event"
    },
    {
      "anonymous": false,
      "inputs": [
        {
          "indexed": true,
          "internalType": "address",
          "name": "_from",
          "type": "address"
        },
        {
          "indexed": true,
          "internalType": "address",
          "name": "_to",
          "type": "address"
        },
        {
          "indexed": false,
          "internalType": "uint256",
          "name": "_value",
          "type": "uint256"
        }
      ],
      "name": "Transfer",
      "type": "event"
    },
    {
      "constant": true,
      "inputs": [],
      "name": "owner",
      "outputs": [
        {
          "internalType": "address",
          "name": "",
          "type": "address"
        }
      ],
      "payable": false,
      "stateMutability": "view",
      "type": "function"
    },
    {
      "constant": false,
      "inputs": [],
      "name": "deposit_money",
      "outputs": [
        {
          "internalType": "uint256",
          "name": "",
          "type": "uint256"
        }
      ],
      "payable": true,
      "stateMutability": "payable",
      "type": "function"
    },
    {
      "constant": true,
      "inputs": [],
      "name": "get_balance",
      "outputs": [
        {
          "internalType": "uint256",
          "name": "",
          "type": "uint256"
        }
      ],
      "payable": false,
      "stateMutability": "view",
      "type": "function"
    },
    {
      "constant": false,
      "inputs": [],
      "name": "set_bid",
      "outputs": [
        {
          "internalType": "uint256",
          "name": "",
          "type": "uint256"
        }
      ],
      "payable": true,
      "stateMutability": "payable",
      "type": "function"
    },
    {
      "constant": true,
      "inputs": [],
      "name": "get_bid",
      "outputs": [
        {
          "internalType": "uint256",
          "name": "",
          "type": "uint256"
        }
      ],
      "payable": false,
      "stateMutability": "view",
      "type": "function"
    }
  ],
  "bytecode": "0x608060405233600260006101000a81548173ffffffffffffffffffffffffffffffffffffffff021916908373ffffffffffffffffffffffffffffffffffffffff16021790555061042f806100546000396000f3fe60806040526004361061004a5760003560e01c80633e96390b1461004f5780638da5cb5b1461006d578063c1cfb99a146100c4578063d2832cc2146100ef578063fc8c36a61461010d575b600080fd5b610057610138565b6040518082815260200191505060405180910390f35b34801561007957600080fd5b50610082610265565b604051808273ffffffffffffffffffffffffffffffffffffffff1673ffffffffffffffffffffffffffffffffffffffff16815260200191505060405180910390f35b3480156100d057600080fd5b506100d961028b565b6040518082815260200191505060405180910390f35b6100f76102d2565b6040518082815260200191505060405180910390f35b34801561011957600080fd5b506101226103b4565b6040518082815260200191505060405180910390f35b6000600260009054906101000a900473ffffffffffffffffffffffffffffffffffffffff1673ffffffffffffffffffffffffffffffffffffffff163373ffffffffffffffffffffffffffffffffffffffff161461026257600160003373ffffffffffffffffffffffffffffffffffffffff1673ffffffffffffffffffffffffffffffffffffffff16815260200190815260200160002054341015610261576000803373ffffffffffffffffffffffffffffffffffffffff1673ffffffffffffffffffffffffffffffffffffffff1681526020019081526020016000205434111561026057346000803373ffffffffffffffffffffffffffffffffffffffff1673ffffffffffffffffffffffffffffffffffffffff168152602001908152602001600020819055505b5b5b90565b600260009054906101000a900473ffffffffffffffffffffffffffffffffffffffff1681565b6000600160003373ffffffffffffffffffffffffffffffffffffffff1673ffffffffffffffffffffffffffffffffffffffff16815260200190815260200160002054905090565b600034600160003373ffffffffffffffffffffffffffffffffffffffff1673ffffffffffffffffffffffffffffffffffffffff168152602001908152602001600020600082825401925050819055503373ffffffffffffffffffffffffffffffffffffffff167fa8126f7572bb1fdeae5b5aa9ec126438b91f658a07873f009d041ae690f3a193346040518082815260200191505060405180910390a2600160003373ffffffffffffffffffffffffffffffffffffffff1673ffffffffffffffffffffffffffffffffffffffff16815260200190815260200160002054905090565b60008060003373ffffffffffffffffffffffffffffffffffffffff1673ffffffffffffffffffffffffffffffffffffffff1681526020019081526020016000205490509056fea265627a7a7231582014e67d04e11c3e79614a0de838e631ad95a1fd7888d35fd69b94bf8edb85c9d564736f6c63430005100032",
  "source": "pragma solidity ^0.5.8;\r\n\r\ncontract AuctionHouse {\r\n    mapping (address => uint) private bids;\r\n    mapping (address => uint) private balances;\r\n    address public owner;\r\n\r\n    // Log the event about a deposit being made by an address and its amount\r\n    event LogDepositMade(address indexed accountAddress, uint amount);\r\n    event Transfer(address indexed _from, address indexed _to, uint256 _value);\r\n\r\n    constructor() public payable {\r\n        owner = msg.sender;\r\n    }\r\n\r\n    function deposit_money() public payable returns (uint){\r\n        // Deposit money in order to be able to participate\r\n        balances[msg.sender] += msg.value;\r\n        emit LogDepositMade(msg.sender, msg.value);\r\n        return balances[msg.sender];\r\n    }\r\n\r\n    function get_balance() public view returns (uint){\r\n        // gets the balances of bidders\r\n        return balances[msg.sender];\r\n    }\r\n\r\n    function set_bid() public payable returns (uint){\r\n        // the owner can not bid\r\n        if (msg.sender != owner){\r\n            // you can not bid more than you have in balance\r\n            if (msg.value < balances[msg.sender]){\r\n                // only accept bid if its higher than the previous bid\r\n                if (msg.value > bids[msg.sender]) {\r\n                    bids[msg.sender] = msg.value;\r\n                }\r\n            }\r\n        }\r\n    }\r\n\r\n    function get_bid() public view returns (uint){\r\n        return bids[msg.sender];\r\n    }\r\n\r\n    /*\r\n    function get_highest_bid() public view returns (uint) {\r\n        uint256 largest = 0; \r\n        uint256 i;\r\n\r\n        for(i = 0; i < bids.length; i++){\r\n            if(bids[i] > largest) {\r\n                largest = bids[i]; \r\n            } \r\n        }\r\n        return largest;\r\n    }\r\n    */\r\n\r\n}\r\n",
  "sourcePath": "C:/Users/maxgi/Uni-Max/Coding/BLKCHN21/BlockchainProject/contracts/AuctionHouse.sol",
  "compiler": {
    "name": "solc",
    "version": "0.5.16+commit.9c3226ce.Emscripten.clang"
  },
  "schemaVersion": "3.4.1",
  "updatedAt": "2021-05-11T08:16:31.543Z",
  "networkType": "ethereum",
  "devdoc": {
    "methods": {}
  },
  "userdoc": {
    "methods": {}
  }
}