{
  "contractName": "ManyAuctions",
  "abi": [
    {
      "anonymous": false,
      "inputs": [
        {
          "indexed": true,
          "internalType": "address",
          "name": "previousOwner",
          "type": "address"
        },
        {
          "indexed": true,
          "internalType": "address",
          "name": "newOwner",
          "type": "address"
        }
      ],
      "name": "OwnershipTransferred",
      "type": "event"
    },
    {
      "inputs": [],
      "name": "owner",
      "outputs": [
        {
          "internalType": "address",
          "name": "",
          "type": "address"
        }
      ],
      "stateMutability": "view",
      "type": "function"
    },
    {
      "inputs": [],
      "name": "renounceOwnership",
      "outputs": [],
      "stateMutability": "nonpayable",
      "type": "function"
    },
    {
      "inputs": [
        {
          "internalType": "address",
          "name": "newOwner",
          "type": "address"
        }
      ],
      "name": "transferOwnership",
      "outputs": [],
      "stateMutability": "nonpayable",
      "type": "function"
    },
    {
      "inputs": [
        {
          "internalType": "address[]",
          "name": "bidders",
          "type": "address[]"
        }
      ],
      "name": "createAuction",
      "outputs": [
        {
          "internalType": "uint256",
          "name": "",
          "type": "uint256"
        }
      ],
      "stateMutability": "nonpayable",
      "type": "function"
    },
    {
      "inputs": [
        {
          "internalType": "uint256",
          "name": "auction",
          "type": "uint256"
        },
        {
          "internalType": "uint256",
          "name": "new_bid",
          "type": "uint256"
        }
      ],
      "name": "bid",
      "outputs": [],
      "stateMutability": "nonpayable",
      "type": "function"
    },
    {
      "inputs": [
        {
          "internalType": "uint256",
          "name": "auction",
          "type": "uint256"
        }
      ],
      "name": "finish",
      "outputs": [
        {
          "internalType": "address",
          "name": "",
          "type": "address"
        },
        {
          "internalType": "uint256",
          "name": "",
          "type": "uint256"
        }
      ],
      "stateMutability": "nonpayable",
      "type": "function"
    },
    {
      "inputs": [
        {
          "internalType": "uint256",
          "name": "auction",
          "type": "uint256"
        }
      ],
      "name": "get_winner",
      "outputs": [
        {
          "internalType": "address",
          "name": "",
          "type": "address"
        },
        {
          "internalType": "uint256",
          "name": "",
          "type": "uint256"
        }
      ],
      "stateMutability": "view",
      "type": "function"
    }
  ],
  "bytecode": "0x6080604052670de0b6b3a764000060015561138860025534801561002257600080fd5b5060006100336100d660201b60201c565b9050806000806101000a81548173ffffffffffffffffffffffffffffffffffffffff021916908373ffffffffffffffffffffffffffffffffffffffff1602179055508073ffffffffffffffffffffffffffffffffffffffff16600073ffffffffffffffffffffffffffffffffffffffff167f8be0079c531659141344cd1fd0a4f28419497f9722a3daafe3b4186f6b6457e060405160405180910390a3506100de565b600033905090565b6112b6806100ed6000396000f3fe608060405234801561001057600080fd5b506004361061007d5760003560e01c806376e4856b1161005b57806376e4856b146100d95780638da5cb5b14610109578063d353a1cb14610127578063f2fde38b146101585761007d565b8063243dc40914610082578063598647f8146100b3578063715018a6146100cf575b600080fd5b61009c60048036038101906100979190610db9565b610174565b6040516100aa929190610ffd565b60405180910390f35b6100cd60048036038101906100c89190610de2565b610313565b005b6100d76106a7565b005b6100f360048036038101906100ee9190610d78565b6107e1565b60405161010091906110e6565b60405180910390f35b610111610913565b60405161011e9190610fe2565b60405180910390f35b610141600480360381019061013c9190610db9565b61093c565b60405161014f929190610ffd565b60405180910390f35b610172600480360381019061016d9190610d4f565b610a37565b005b6000806000600384815481106101b3577f4e487b7100000000000000000000000000000000000000000000000000000000600052603260045260246000fd5b906000526020600020906003020190508060000160009054906101000a900460ff16156101df57600080fd5b60008060005b8360010180549050811015610304576000846001018281548110610232577f4e487b7100000000000000000000000000000000000000000000000000000000600052603260045260246000fd5b9060005260206000200160009054906101000a900473ffffffffffffffffffffffffffffffffffffffff169050828560020160008373ffffffffffffffffffffffffffffffffffffffff1673ffffffffffffffffffffffffffffffffffffffff1681526020019081526020016000205411156102f0578093508460020160008273ffffffffffffffffffffffffffffffffffffffff1673ffffffffffffffffffffffffffffffffffffffff1681526020019081526020016000205492505b5080806102fc906111ab565b9150506101e5565b50818194509450505050915091565b81806003805490501161035b576040517f08c379a000000000000000000000000000000000000000000000000000000000815260040161035290611086565b60405180910390fd5b6000805b60038381548110610399577f4e487b7100000000000000000000000000000000000000000000000000000000600052603260045260246000fd5b9060005260206000209060030201600101805490508110156104b2573373ffffffffffffffffffffffffffffffffffffffff1660038481548110610406577f4e487b7100000000000000000000000000000000000000000000000000000000600052603260045260246000fd5b9060005260206000209060030201600101828154811061044f577f4e487b7100000000000000000000000000000000000000000000000000000000600052603260045260246000fd5b9060005260206000200160009054906101000a900473ffffffffffffffffffffffffffffffffffffffff1673ffffffffffffffffffffffffffffffffffffffff16141561049f57600191506104b2565b80806104aa906111ab565b91505061035f565b50806104f3576040517f08c379a00000000000000000000000000000000000000000000000000000000081526004016104ea906110c6565b60405180910390fd5b6003828154811061052d577f4e487b7100000000000000000000000000000000000000000000000000000000600052603260045260246000fd5b906000526020600020906003020160000160009054906101000a900460ff1661058b576040517f08c379a000000000000000000000000000000000000000000000000000000000815260040161058290611066565b60405180910390fd5b6000600385815481106105c7577f4e487b7100000000000000000000000000000000000000000000000000000000600052603260045260246000fd5b906000526020600020906003020190508060020160003373ffffffffffffffffffffffffffffffffffffffff1673ffffffffffffffffffffffffffffffffffffffff16815260200190815260200160002054841161065a576040517f08c379a000000000000000000000000000000000000000000000000000000000815260040161065190611046565b60405180910390fd5b838160020160003373ffffffffffffffffffffffffffffffffffffffff1673ffffffffffffffffffffffffffffffffffffffff168152602001908152602001600020819055505050505050565b6106af610be0565b73ffffffffffffffffffffffffffffffffffffffff166106cd610913565b73ffffffffffffffffffffffffffffffffffffffff1614610723576040517f08c379a000000000000000000000000000000000000000000000000000000000815260040161071a906110a6565b60405180910390fd5b600073ffffffffffffffffffffffffffffffffffffffff1660008054906101000a900473ffffffffffffffffffffffffffffffffffffffff1673ffffffffffffffffffffffffffffffffffffffff167f8be0079c531659141344cd1fd0a4f28419497f9722a3daafe3b4186f6b6457e060405160405180910390a360008060006101000a81548173ffffffffffffffffffffffffffffffffffffffff021916908373ffffffffffffffffffffffffffffffffffffffff160217905550565b60006107eb610be0565b73ffffffffffffffffffffffffffffffffffffffff16610809610913565b73ffffffffffffffffffffffffffffffffffffffff161461085f576040517f08c379a0000000000000000000000000000000000000000000000000000000008152600401610856906110a6565b60405180910390fd5b600060038054905090506003600181600181540180825580915050039060005260206000209050506000600382815481106108c3577f4e487b7100000000000000000000000000000000000000000000000000000000600052603260045260246000fd5b90600052602060002090600302019050838160010190805190602001906108eb929190610be8565b5060018160000160006101000a81548160ff0219169083151502179055508192505050919050565b60008060009054906101000a900473ffffffffffffffffffffffffffffffffffffffff16905090565b600080610947610be0565b73ffffffffffffffffffffffffffffffffffffffff16610965610913565b73ffffffffffffffffffffffffffffffffffffffff16146109bb576040517f08c379a00000000000000000000000000000000000000000000000000000000081526004016109b2906110a6565b60405180910390fd5b6000600384815481106109f7577f4e487b7100000000000000000000000000000000000000000000000000000000600052603260045260246000fd5b9060005260206000209060030201905060008160000160006101000a81548160ff021916908315150217905550610a2d84610174565b9250925050915091565b610a3f610be0565b73ffffffffffffffffffffffffffffffffffffffff16610a5d610913565b73ffffffffffffffffffffffffffffffffffffffff1614610ab3576040517f08c379a0000000000000000000000000000000000000000000000000000000008152600401610aaa906110a6565b60405180910390fd5b600073ffffffffffffffffffffffffffffffffffffffff168173ffffffffffffffffffffffffffffffffffffffff161415610b23576040517f08c379a0000000000000000000000000000000000000000000000000000000008152600401610b1a90611026565b60405180910390fd5b8073ffffffffffffffffffffffffffffffffffffffff1660008054906101000a900473ffffffffffffffffffffffffffffffffffffffff1673ffffffffffffffffffffffffffffffffffffffff167f8be0079c531659141344cd1fd0a4f28419497f9722a3daafe3b4186f6b6457e060405160405180910390a3806000806101000a81548173ffffffffffffffffffffffffffffffffffffffff021916908373ffffffffffffffffffffffffffffffffffffffff16021790555050565b600033905090565b828054828255906000526020600020908101928215610c61579160200282015b82811115610c605782518260006101000a81548173ffffffffffffffffffffffffffffffffffffffff021916908373ffffffffffffffffffffffffffffffffffffffff16021790555091602001919060010190610c08565b5b509050610c6e9190610c72565b5090565b5b80821115610c8b576000816000905550600101610c73565b5090565b6000610ca2610c9d84611132565b611101565b90508083825260208201905082856020860282011115610cc157600080fd5b60005b85811015610cf15781610cd78882610cfb565b845260208401935060208301925050600181019050610cc4565b5050509392505050565b600081359050610d0a81611252565b92915050565b600082601f830112610d2157600080fd5b8135610d31848260208601610c8f565b91505092915050565b600081359050610d4981611269565b92915050565b600060208284031215610d6157600080fd5b6000610d6f84828501610cfb565b91505092915050565b600060208284031215610d8a57600080fd5b600082013567ffffffffffffffff811115610da457600080fd5b610db084828501610d10565b91505092915050565b600060208284031215610dcb57600080fd5b6000610dd984828501610d3a565b91505092915050565b60008060408385031215610df557600080fd5b6000610e0385828601610d3a565b9250506020610e1485828601610d3a565b9150509250929050565b610e278161116f565b82525050565b6000610e3a60268361115e565b91507f4f776e61626c653a206e6577206f776e657220697320746865207a65726f206160008301527f64647265737300000000000000000000000000000000000000000000000000006020830152604082019050919050565b6000610ea060198361115e565b91507f4d75737420626964206d6f7265207468616e206265666f7265000000000000006000830152602082019050919050565b6000610ee060128361115e565b91507f41756374696f6e206e6f742061637469766500000000000000000000000000006000830152602082019050919050565b6000610f2060168361115e565b91507f41756374696f6e20646f6573206e6f74206578697374000000000000000000006000830152602082019050919050565b6000610f6060208361115e565b91507f4f776e61626c653a2063616c6c6572206973206e6f7420746865206f776e65726000830152602082019050919050565b6000610fa060158361115e565b91507f426964646572206e6f7420696e2061756374696f6e00000000000000000000006000830152602082019050919050565b610fdc816111a1565b82525050565b6000602082019050610ff76000830184610e1e565b92915050565b60006040820190506110126000830185610e1e565b61101f6020830184610fd3565b9392505050565b6000602082019050818103600083015261103f81610e2d565b9050919050565b6000602082019050818103600083015261105f81610e93565b9050919050565b6000602082019050818103600083015261107f81610ed3565b9050919050565b6000602082019050818103600083015261109f81610f13565b9050919050565b600060208201905081810360008301526110bf81610f53565b9050919050565b600060208201905081810360008301526110df81610f93565b9050919050565b60006020820190506110fb6000830184610fd3565b92915050565b6000604051905081810181811067ffffffffffffffff8211171561112857611127611223565b5b8060405250919050565b600067ffffffffffffffff82111561114d5761114c611223565b5b602082029050602081019050919050565b600082825260208201905092915050565b600061117a82611181565b9050919050565b600073ffffffffffffffffffffffffffffffffffffffff82169050919050565b6000819050919050565b60006111b6826111a1565b91507fffffffffffffffffffffffffffffffffffffffffffffffffffffffffffffffff8214156111e9576111e86111f4565b5b600182019050919050565b7f4e487b7100000000000000000000000000000000000000000000000000000000600052601160045260246000fd5b7f4e487b7100000000000000000000000000000000000000000000000000000000600052604160045260246000fd5b61125b8161116f565b811461126657600080fd5b50565b611272816111a1565b811461127d57600080fd5b5056fea264697066735822122080dcb5db4732969f5aab129f649e685195796210b718e8be7ac7d96a0d383b4e64736f6c63430008000033",
  "immutableReferences": {},
  "source": "pragma solidity ^0.8.0;\n// SPDX-License-Identifier: UNLICENSED\nimport \"@openzeppelin/contracts/access/Ownable.sol\";\n\ncontract ManyAuctions is Ownable {\n    uint256 ether_var = 10**18;\n    uint interval = 5000;\n    struct Auction {\n        bool active;\n        address[] bidders;\n        mapping (address => uint) bids;\n    }\n    Auction[] auctions;\n\n    modifier onlyNotOwner {\n        require(msg.sender != owner());\n        _;\n    }\n\n    modifier canBid(uint auction_id) {\n        require(auctions.length > auction_id, \"Auction does not exist\");\n        bool exists = false;\n        for (uint256 i = 0; i < auctions[auction_id].bidders.length; i++) {\n            if (auctions[auction_id].bidders[i] == msg.sender) {\n                exists = true;\n                break;\n            }\n        }\n        require(exists, \"Bidder not in auction\");\n        require(auctions[auction_id].active, \"Auction not active\");\n        _;\n    }\n\n    function createAuction(address[] memory bidders) onlyOwner public returns (uint) {\n        // https://ethereum.stackexchange.com/questions/97366/storage-arrays-with-nested-mappings-do-not-support-pusharg\n        uint idx = auctions.length;\n        auctions.push();\n        Auction storage new_auct = auctions[idx];\n        new_auct.bidders = bidders;\n        new_auct.active = true;\n        return (idx);\n    }\n\n    function bid(uint auction, uint new_bid) canBid(auction) public {\n        Auction storage auct = auctions[auction];\n        // New bid must be bigger than old bid\n        require(new_bid > auct.bids[msg.sender], \"Must bid more than before\");\n        auct.bids[msg.sender] = new_bid;\n    }\n\n    /**\n    returns winner, ends auction\n    */\n    function finish(uint auction) onlyOwner public returns (address, uint) {\n        Auction storage auct = auctions[auction];\n        auct.active = false;\n        return get_winner(auction);\n    }\n\n    function get_winner(uint auction) public view returns (address, uint) {\n        Auction storage auct = auctions[auction];\n        require(!auct.active);\n        address winner;\n        uint winning_bid;\n        for (uint256 i = 0; i < auct.bidders.length; i++) {\n            address curr = auct.bidders[i];\n            if (auct.bids[curr] > winning_bid) {\n                winner = curr;\n                winning_bid = auct.bids[curr];\n            }\n        }\n        return (winner, winning_bid);\n    }\n\n}\n",
  "sourcePath": "/Users/yannickklose/Library/Mobile Documents/com~apple~CloudDocs/Documents/07 SoSe21/Blockchain Technolgies/BlockchainProject/contracts/ManyAuctions.sol",
  "compiler": {
    "name": "solc",
    "version": "0.8.0+commit.c7dfd78e.Emscripten.clang"
  },
  "schemaVersion": "3.4.0",
  "updatedAt": "2021-05-16T09:39:04.580Z",
  "devdoc": {
    "kind": "dev",
    "methods": {
      "owner()": {
        "details": "Returns the address of the current owner."
      },
      "renounceOwnership()": {
        "details": "Leaves the contract without owner. It will not be possible to call `onlyOwner` functions anymore. Can only be called by the current owner. NOTE: Renouncing ownership will leave the contract without an owner, thereby removing any functionality that is only available to the owner."
      },
      "transferOwnership(address)": {
        "details": "Transfers ownership of the contract to a new account (`newOwner`). Can only be called by the current owner."
      }
    },
    "version": 1
  },
  "userdoc": {
    "kind": "user",
    "methods": {
      "finish(uint256)": {
        "notice": "returns winner, ends auction"
      }
    },
    "version": 1
  }
}