{
  "contractName": "ManyAuctions",
  "abi": [
    {
      "anonymous": false,
      "inputs": [
        {
          "indexed": true,
          "internalType": "address",
          "name": "previousOwner",
          "type": "address"
        },
        {
          "indexed": true,
          "internalType": "address",
          "name": "newOwner",
          "type": "address"
        }
      ],
      "name": "OwnershipTransferred",
      "type": "event"
    },
    {
      "inputs": [],
      "name": "owner",
      "outputs": [
        {
          "internalType": "address",
          "name": "",
          "type": "address"
        }
      ],
      "stateMutability": "view",
      "type": "function"
    },
    {
      "inputs": [],
      "name": "renounceOwnership",
      "outputs": [],
      "stateMutability": "nonpayable",
      "type": "function"
    },
    {
      "inputs": [
        {
          "internalType": "address",
          "name": "newOwner",
          "type": "address"
        }
      ],
      "name": "transferOwnership",
      "outputs": [],
      "stateMutability": "nonpayable",
      "type": "function"
    },
    {
      "inputs": [
        {
          "internalType": "address[]",
          "name": "bidders",
          "type": "address[]"
        }
      ],
      "name": "createAuction",
      "outputs": [
        {
          "internalType": "uint256",
          "name": "",
          "type": "uint256"
        }
      ],
      "stateMutability": "nonpayable",
      "type": "function"
    },
    {
      "inputs": [
        {
          "internalType": "uint256",
          "name": "auction",
          "type": "uint256"
        },
        {
          "internalType": "uint256",
          "name": "new_bid",
          "type": "uint256"
        }
      ],
      "name": "bid",
      "outputs": [],
      "stateMutability": "nonpayable",
      "type": "function"
    },
    {
      "inputs": [
        {
          "internalType": "uint256",
          "name": "auction",
          "type": "uint256"
        }
      ],
      "name": "get_winner",
      "outputs": [
        {
          "internalType": "address",
          "name": "",
          "type": "address"
        },
        {
          "internalType": "uint256",
          "name": "",
          "type": "uint256"
        }
      ],
      "stateMutability": "nonpayable",
      "type": "function"
    }
  ],
  "bytecode": "0x6080604052670de0b6b3a764000060015561138860025534801561002257600080fd5b5060006100336100d660201b60201c565b9050806000806101000a81548173ffffffffffffffffffffffffffffffffffffffff021916908373ffffffffffffffffffffffffffffffffffffffff1602179055508073ffffffffffffffffffffffffffffffffffffffff16600073ffffffffffffffffffffffffffffffffffffffff167f8be0079c531659141344cd1fd0a4f28419497f9722a3daafe3b4186f6b6457e060405160405180910390a3506100de565b600033905090565b6111ec806100ed6000396000f3fe608060405234801561001057600080fd5b50600436106100625760003560e01c8063243dc40914610067578063598647f814610098578063715018a6146100b457806376e4856b146100be5780638da5cb5b146100ee578063f2fde38b1461010c575b600080fd5b610081600480360381019061007c9190610cef565b610128565b60405161008f929190610f33565b60405180910390f35b6100b260048036038101906100ad9190610d18565b610344565b005b6100bc6106d8565b005b6100d860048036038101906100d39190610cae565b610812565b6040516100e5919061101c565b60405180910390f35b6100f6610944565b6040516101039190610f18565b60405180910390f35b61012660048036038101906101219190610c85565b61096d565b005b600080610133610b16565b73ffffffffffffffffffffffffffffffffffffffff16610151610944565b73ffffffffffffffffffffffffffffffffffffffff16146101a7576040517f08c379a000000000000000000000000000000000000000000000000000000000815260040161019e90610fdc565b60405180910390fd5b6000600384815481106101e3577f4e487b7100000000000000000000000000000000000000000000000000000000600052603260045260246000fd5b9060005260206000209060030201905060008160000160006101000a81548160ff02191690831515021790555060008060005b8360010180549050811015610335576000846001018281548110610263577f4e487b7100000000000000000000000000000000000000000000000000000000600052603260045260246000fd5b9060005260206000200160009054906101000a900473ffffffffffffffffffffffffffffffffffffffff169050828560020160008373ffffffffffffffffffffffffffffffffffffffff1673ffffffffffffffffffffffffffffffffffffffff168152602001908152602001600020541115610321578093508460020160008273ffffffffffffffffffffffffffffffffffffffff1673ffffffffffffffffffffffffffffffffffffffff1681526020019081526020016000205492505b50808061032d906110e1565b915050610216565b50818194509450505050915091565b81806003805490501161038c576040517f08c379a000000000000000000000000000000000000000000000000000000000815260040161038390610fbc565b60405180910390fd5b6000805b600383815481106103ca577f4e487b7100000000000000000000000000000000000000000000000000000000600052603260045260246000fd5b9060005260206000209060030201600101805490508110156104e3573373ffffffffffffffffffffffffffffffffffffffff1660038481548110610437577f4e487b7100000000000000000000000000000000000000000000000000000000600052603260045260246000fd5b90600052602060002090600302016001018281548110610480577f4e487b7100000000000000000000000000000000000000000000000000000000600052603260045260246000fd5b9060005260206000200160009054906101000a900473ffffffffffffffffffffffffffffffffffffffff1673ffffffffffffffffffffffffffffffffffffffff1614156104d057600191506104e3565b80806104db906110e1565b915050610390565b5080610524576040517f08c379a000000000000000000000000000000000000000000000000000000000815260040161051b90610ffc565b60405180910390fd5b6003828154811061055e577f4e487b7100000000000000000000000000000000000000000000000000000000600052603260045260246000fd5b906000526020600020906003020160000160009054906101000a900460ff166105bc576040517f08c379a00000000000000000000000000000000000000000000000000000000081526004016105b390610f9c565b60405180910390fd5b6000600385815481106105f8577f4e487b7100000000000000000000000000000000000000000000000000000000600052603260045260246000fd5b906000526020600020906003020190508060020160003373ffffffffffffffffffffffffffffffffffffffff1673ffffffffffffffffffffffffffffffffffffffff16815260200190815260200160002054841161068b576040517f08c379a000000000000000000000000000000000000000000000000000000000815260040161068290610f7c565b60405180910390fd5b838160020160003373ffffffffffffffffffffffffffffffffffffffff1673ffffffffffffffffffffffffffffffffffffffff168152602001908152602001600020819055505050505050565b6106e0610b16565b73ffffffffffffffffffffffffffffffffffffffff166106fe610944565b73ffffffffffffffffffffffffffffffffffffffff1614610754576040517f08c379a000000000000000000000000000000000000000000000000000000000815260040161074b90610fdc565b60405180910390fd5b600073ffffffffffffffffffffffffffffffffffffffff1660008054906101000a900473ffffffffffffffffffffffffffffffffffffffff1673ffffffffffffffffffffffffffffffffffffffff167f8be0079c531659141344cd1fd0a4f28419497f9722a3daafe3b4186f6b6457e060405160405180910390a360008060006101000a81548173ffffffffffffffffffffffffffffffffffffffff021916908373ffffffffffffffffffffffffffffffffffffffff160217905550565b600061081c610b16565b73ffffffffffffffffffffffffffffffffffffffff1661083a610944565b73ffffffffffffffffffffffffffffffffffffffff1614610890576040517f08c379a000000000000000000000000000000000000000000000000000000000815260040161088790610fdc565b60405180910390fd5b600060038054905090506003600181600181540180825580915050039060005260206000209050506000600382815481106108f4577f4e487b7100000000000000000000000000000000000000000000000000000000600052603260045260246000fd5b906000526020600020906003020190508381600101908051906020019061091c929190610b1e565b5060018160000160006101000a81548160ff0219169083151502179055508192505050919050565b60008060009054906101000a900473ffffffffffffffffffffffffffffffffffffffff16905090565b610975610b16565b73ffffffffffffffffffffffffffffffffffffffff16610993610944565b73ffffffffffffffffffffffffffffffffffffffff16146109e9576040517f08c379a00000000000000000000000000000000000000000000000000000000081526004016109e090610fdc565b60405180910390fd5b600073ffffffffffffffffffffffffffffffffffffffff168173ffffffffffffffffffffffffffffffffffffffff161415610a59576040517f08c379a0000000000000000000000000000000000000000000000000000000008152600401610a5090610f5c565b60405180910390fd5b8073ffffffffffffffffffffffffffffffffffffffff1660008054906101000a900473ffffffffffffffffffffffffffffffffffffffff1673ffffffffffffffffffffffffffffffffffffffff167f8be0079c531659141344cd1fd0a4f28419497f9722a3daafe3b4186f6b6457e060405160405180910390a3806000806101000a81548173ffffffffffffffffffffffffffffffffffffffff021916908373ffffffffffffffffffffffffffffffffffffffff16021790555050565b600033905090565b828054828255906000526020600020908101928215610b97579160200282015b82811115610b965782518260006101000a81548173ffffffffffffffffffffffffffffffffffffffff021916908373ffffffffffffffffffffffffffffffffffffffff16021790555091602001919060010190610b3e565b5b509050610ba49190610ba8565b5090565b5b80821115610bc1576000816000905550600101610ba9565b5090565b6000610bd8610bd384611068565b611037565b90508083825260208201905082856020860282011115610bf757600080fd5b60005b85811015610c275781610c0d8882610c31565b845260208401935060208301925050600181019050610bfa565b5050509392505050565b600081359050610c4081611188565b92915050565b600082601f830112610c5757600080fd5b8135610c67848260208601610bc5565b91505092915050565b600081359050610c7f8161119f565b92915050565b600060208284031215610c9757600080fd5b6000610ca584828501610c31565b91505092915050565b600060208284031215610cc057600080fd5b600082013567ffffffffffffffff811115610cda57600080fd5b610ce684828501610c46565b91505092915050565b600060208284031215610d0157600080fd5b6000610d0f84828501610c70565b91505092915050565b60008060408385031215610d2b57600080fd5b6000610d3985828601610c70565b9250506020610d4a85828601610c70565b9150509250929050565b610d5d816110a5565b82525050565b6000610d70602683611094565b91507f4f776e61626c653a206e6577206f776e657220697320746865207a65726f206160008301527f64647265737300000000000000000000000000000000000000000000000000006020830152604082019050919050565b6000610dd6601983611094565b91507f4d75737420626964206d6f7265207468616e206265666f7265000000000000006000830152602082019050919050565b6000610e16601283611094565b91507f41756374696f6e206e6f742061637469766500000000000000000000000000006000830152602082019050919050565b6000610e56601683611094565b91507f41756374696f6e20646f6573206e6f74206578697374000000000000000000006000830152602082019050919050565b6000610e96602083611094565b91507f4f776e61626c653a2063616c6c6572206973206e6f7420746865206f776e65726000830152602082019050919050565b6000610ed6601583611094565b91507f426964646572206e6f7420696e2061756374696f6e00000000000000000000006000830152602082019050919050565b610f12816110d7565b82525050565b6000602082019050610f2d6000830184610d54565b92915050565b6000604082019050610f486000830185610d54565b610f556020830184610f09565b9392505050565b60006020820190508181036000830152610f7581610d63565b9050919050565b60006020820190508181036000830152610f9581610dc9565b9050919050565b60006020820190508181036000830152610fb581610e09565b9050919050565b60006020820190508181036000830152610fd581610e49565b9050919050565b60006020820190508181036000830152610ff581610e89565b9050919050565b6000602082019050818103600083015261101581610ec9565b9050919050565b60006020820190506110316000830184610f09565b92915050565b6000604051905081810181811067ffffffffffffffff8211171561105e5761105d611159565b5b8060405250919050565b600067ffffffffffffffff82111561108357611082611159565b5b602082029050602081019050919050565b600082825260208201905092915050565b60006110b0826110b7565b9050919050565b600073ffffffffffffffffffffffffffffffffffffffff82169050919050565b6000819050919050565b60006110ec826110d7565b91507fffffffffffffffffffffffffffffffffffffffffffffffffffffffffffffffff82141561111f5761111e61112a565b5b600182019050919050565b7f4e487b7100000000000000000000000000000000000000000000000000000000600052601160045260246000fd5b7f4e487b7100000000000000000000000000000000000000000000000000000000600052604160045260246000fd5b611191816110a5565b811461119c57600080fd5b50565b6111a8816110d7565b81146111b357600080fd5b5056fea26469706673582212203caeef349750f93f22200a9328b724b2ead36e9fc563ba2316b87aa67780a3df64736f6c63430008000033",
  "immutableReferences": {},
  "source": "pragma solidity ^0.8.0;\n// SPDX-License-Identifier: UNLICENSED\nimport \"@openzeppelin/contracts/access/Ownable.sol\";\n\n/**\nDifference to AuctionHouse:\n- Bidders are predetermined by owner on startup\n- Many Auctions are supported\n */\ncontract ManyAuctions is Ownable {\n    uint256 ether_var = 10**18;\n    uint interval = 5000;\n    struct Auction {\n        bool active;\n        address[] bidders;\n        mapping (address => uint) bids;\n    }\n    Auction[] auctions;\n\n    modifier onlyNotOwner {\n        require(msg.sender != owner());\n        _;\n    }\n\n    modifier canBid(uint auction_id) {\n        require(auctions.length > auction_id, \"Auction does not exist\");\n        bool exists = false;\n        for (uint256 i = 0; i < auctions[auction_id].bidders.length; i++) {\n            if (auctions[auction_id].bidders[i] == msg.sender) {\n                exists = true;\n                break;\n            }\n        }\n        require(exists, \"Bidder not in auction\");\n        require(auctions[auction_id].active, \"Auction not active\");\n        _;\n    }\n\n    function createAuction(address[] memory bidders) onlyOwner public returns (uint) {\n        // https://ethereum.stackexchange.com/questions/97366/storage-arrays-with-nested-mappings-do-not-support-pusharg\n        uint idx = auctions.length;\n        auctions.push();\n        Auction storage new_auct = auctions[idx];\n        new_auct.bidders = bidders;\n        new_auct.active = true;\n        return (idx);\n    }\n\n    function bid(uint auction, uint new_bid) canBid(auction) public {\n        Auction storage auct = auctions[auction];\n        // New bid must be bigger than old bid\n        require(new_bid > auct.bids[msg.sender], \"Must bid more than before\");\n        auct.bids[msg.sender] = new_bid;\n    }\n\n    /**\n    returns winner. The end of the auction is implicit because the end_time must be over. There is no need to save this explicitly\n    */\n    function get_winner(uint auction) onlyOwner public returns (address, uint) {\n        Auction storage auct = auctions[auction];\n        auct.active = false;\n        address winner;\n        uint winning_bid;\n        for (uint256 i = 0; i < auct.bidders.length; i++) {\n            address curr = auct.bidders[i];\n            if (auct.bids[curr] > winning_bid) {\n                winner = curr;\n                winning_bid = auct.bids[curr];\n            }\n        }\n        return (winner, winning_bid);\n    }\n\n}",
  "sourcePath": "/home/trever/git/BlockchainProject/contracts/ManyAuctions.sol",
  "compiler": {
    "name": "solc",
    "version": "0.8.0+commit.c7dfd78e.Emscripten.clang"
  },
  "schemaVersion": "3.4.1",
  "updatedAt": "2021-05-14T19:28:57.442Z",
  "devdoc": {
    "kind": "dev",
    "methods": {
      "owner()": {
        "details": "Returns the address of the current owner."
      },
      "renounceOwnership()": {
        "details": "Leaves the contract without owner. It will not be possible to call `onlyOwner` functions anymore. Can only be called by the current owner. NOTE: Renouncing ownership will leave the contract without an owner, thereby removing any functionality that is only available to the owner."
      },
      "transferOwnership(address)": {
        "details": "Transfers ownership of the contract to a new account (`newOwner`). Can only be called by the current owner."
      }
    },
    "version": 1
  },
  "userdoc": {
    "kind": "user",
    "methods": {
      "get_winner(uint256)": {
        "notice": "returns winner. The end of the auction is implicit because the end_time must be over. There is no need to save this explicitly"
      }
    },
    "notice": "Difference to AuctionHouse: - Bidders are predetermined by owner on startup - Many Auctions are supported",
    "version": 1
  }
}